{
	"ETHKL/twitterpost.sol": {
		"DecentralizedPost": {
			"abi": [
				{
					"inputs": [],
					"stateMutability": "nonpayable",
					"type": "constructor"
				},
				{
					"anonymous": false,
					"inputs": [
						{
							"indexed": false,
							"internalType": "uint256",
							"name": "postId",
							"type": "uint256"
						},
						{
							"indexed": true,
							"internalType": "address",
							"name": "userAddress",
							"type": "address"
						},
						{
							"indexed": false,
							"internalType": "string",
							"name": "ipfsHash",
							"type": "string"
						},
						{
							"indexed": false,
							"internalType": "string",
							"name": "imageHash",
							"type": "string"
						},
						{
							"indexed": false,
							"internalType": "string",
							"name": "content",
							"type": "string"
						},
						{
							"indexed": false,
							"internalType": "uint256",
							"name": "timestamp",
							"type": "uint256"
						},
						{
							"indexed": false,
							"internalType": "string",
							"name": "worldId",
							"type": "string"
						}
					],
					"name": "PostCreated",
					"type": "event"
				},
				{
					"inputs": [
						{
							"internalType": "string",
							"name": "_ipfsHash",
							"type": "string"
						},
						{
							"internalType": "string",
							"name": "_imageHash",
							"type": "string"
						},
						{
							"internalType": "string",
							"name": "_content",
							"type": "string"
						},
						{
							"internalType": "string",
							"name": "_worldId",
							"type": "string"
						}
					],
					"name": "createPost",
					"outputs": [],
					"stateMutability": "nonpayable",
					"type": "function"
				},
				{
					"inputs": [
						{
							"internalType": "uint256",
							"name": "_postId",
							"type": "uint256"
						}
					],
					"name": "getPost",
					"outputs": [
						{
							"components": [
								{
									"internalType": "uint256",
									"name": "postId",
									"type": "uint256"
								},
								{
									"internalType": "address",
									"name": "userAddress",
									"type": "address"
								},
								{
									"internalType": "string",
									"name": "ipfsHash",
									"type": "string"
								},
								{
									"internalType": "string",
									"name": "imageHash",
									"type": "string"
								},
								{
									"internalType": "string",
									"name": "content",
									"type": "string"
								},
								{
									"internalType": "uint256",
									"name": "timestamp",
									"type": "uint256"
								},
								{
									"internalType": "string",
									"name": "worldId",
									"type": "string"
								}
							],
							"internalType": "struct DecentralizedPost.Post",
							"name": "",
							"type": "tuple"
						}
					],
					"stateMutability": "view",
					"type": "function"
				},
				{
					"inputs": [],
					"name": "getPostsDescending",
					"outputs": [
						{
							"components": [
								{
									"internalType": "uint256",
									"name": "postId",
									"type": "uint256"
								},
								{
									"internalType": "address",
									"name": "userAddress",
									"type": "address"
								},
								{
									"internalType": "string",
									"name": "ipfsHash",
									"type": "string"
								},
								{
									"internalType": "string",
									"name": "imageHash",
									"type": "string"
								},
								{
									"internalType": "string",
									"name": "content",
									"type": "string"
								},
								{
									"internalType": "uint256",
									"name": "timestamp",
									"type": "uint256"
								},
								{
									"internalType": "string",
									"name": "worldId",
									"type": "string"
								}
							],
							"internalType": "struct DecentralizedPost.Post[]",
							"name": "",
							"type": "tuple[]"
						}
					],
					"stateMutability": "view",
					"type": "function"
				},
				{
					"inputs": [],
					"name": "nextPostId",
					"outputs": [
						{
							"internalType": "uint256",
							"name": "",
							"type": "uint256"
						}
					],
					"stateMutability": "view",
					"type": "function"
				},
				{
					"inputs": [
						{
							"internalType": "uint256",
							"name": "",
							"type": "uint256"
						}
					],
					"name": "postIds",
					"outputs": [
						{
							"internalType": "uint256",
							"name": "",
							"type": "uint256"
						}
					],
					"stateMutability": "view",
					"type": "function"
				},
				{
					"inputs": [
						{
							"internalType": "uint256",
							"name": "",
							"type": "uint256"
						}
					],
					"name": "posts",
					"outputs": [
						{
							"internalType": "uint256",
							"name": "postId",
							"type": "uint256"
						},
						{
							"internalType": "address",
							"name": "userAddress",
							"type": "address"
						},
						{
							"internalType": "string",
							"name": "ipfsHash",
							"type": "string"
						},
						{
							"internalType": "string",
							"name": "imageHash",
							"type": "string"
						},
						{
							"internalType": "string",
							"name": "content",
							"type": "string"
						},
						{
							"internalType": "uint256",
							"name": "timestamp",
							"type": "uint256"
						},
						{
							"internalType": "string",
							"name": "worldId",
							"type": "string"
						}
					],
					"stateMutability": "view",
					"type": "function"
				}
			],
			"devdoc": {
				"kind": "dev",
				"methods": {},
				"version": 1
			},
			"evm": {
				"assembly": "    /* \"ETHKL/twitterpost.sol\":61:2702  contract DecentralizedPost {... */\n  mstore(0x40, 0x80)\n    /* \"ETHKL/twitterpost.sol\":1169:1216  constructor() {... */\n  callvalue\n  dup1\n  iszero\n  tag_1\n  jumpi\n  revert(0x00, 0x00)\ntag_1:\n  pop\n    /* \"ETHKL/twitterpost.sol\":1207:1208  1 */\n  0x01\n    /* \"ETHKL/twitterpost.sol\":1194:1204  nextPostId */\n  0x02\n    /* \"ETHKL/twitterpost.sol\":1194:1208  nextPostId = 1 */\n  dup2\n  swap1\n  sstore\n  pop\n    /* \"ETHKL/twitterpost.sol\":61:2702  contract DecentralizedPost {... */\n  dataSize(sub_0)\n  dup1\n  dataOffset(sub_0)\n  0x00\n  codecopy\n  0x00\n  return\nstop\n\nsub_0: assembly {\n        /* \"ETHKL/twitterpost.sol\":61:2702  contract DecentralizedPost {... */\n      mstore(0x40, 0x80)\n      callvalue\n      dup1\n      iszero\n      tag_1\n      jumpi\n      revert(0x00, 0x00)\n    tag_1:\n      pop\n      jumpi(tag_2, lt(calldatasize, 0x04))\n      shr(0xe0, calldataload(0x00))\n      dup1\n      0x0b1e7f83\n      eq\n      tag_3\n      jumpi\n      dup1\n      0x0d57f91f\n      eq\n      tag_4\n      jumpi\n      dup1\n      0x10f50257\n      eq\n      tag_5\n      jumpi\n      dup1\n      0x40731c24\n      eq\n      tag_6\n      jumpi\n      dup1\n      0x50cde8ef\n      eq\n      tag_7\n      jumpi\n      dup1\n      0x5c09bd98\n      eq\n      tag_8\n      jumpi\n    tag_2:\n      revert(0x00, 0x00)\n        /* \"ETHKL/twitterpost.sol\":621:658  mapping(uint256 => Post) public posts */\n    tag_3:\n      tag_9\n      0x04\n      dup1\n      calldatasize\n      sub\n      dup2\n      add\n      swap1\n      tag_10\n      swap2\n      swap1\n      tag_11\n      jump\t// in\n    tag_10:\n      tag_12\n      jump\t// in\n    tag_9:\n      mload(0x40)\n      tag_13\n      swap8\n      swap7\n      swap6\n      swap5\n      swap4\n      swap3\n      swap2\n      swap1\n      tag_14\n      jump\t// in\n    tag_13:\n      mload(0x40)\n      dup1\n      swap2\n      sub\n      swap1\n      return\n        /* \"ETHKL/twitterpost.sol\":1262:2071  function createPost(... */\n    tag_4:\n      tag_15\n      0x04\n      dup1\n      calldatasize\n      sub\n      dup2\n      add\n      swap1\n      tag_16\n      swap2\n      swap1\n      tag_17\n      jump\t// in\n    tag_16:\n      tag_18\n      jump\t// in\n    tag_15:\n      stop\n        /* \"ETHKL/twitterpost.sol\":2305:2699  function getPostsDescending() public view returns (Post[] memory) {... */\n    tag_5:\n      tag_19\n      tag_20\n      jump\t// in\n    tag_19:\n      mload(0x40)\n      tag_21\n      swap2\n      swap1\n      tag_22\n      jump\t// in\n    tag_21:\n      mload(0x40)\n      dup1\n      swap2\n      sub\n      swap1\n      return\n        /* \"ETHKL/twitterpost.sol\":2122:2230  function getPost(uint256 _postId) public view returns (Post memory) {... */\n    tag_6:\n      tag_23\n      0x04\n      dup1\n      calldatasize\n      sub\n      dup2\n      add\n      swap1\n      tag_24\n      swap2\n      swap1\n      tag_11\n      jump\t// in\n    tag_24:\n      tag_25\n      jump\t// in\n    tag_23:\n      mload(0x40)\n      tag_26\n      swap2\n      swap1\n      tag_27\n      jump\t// in\n    tag_26:\n      mload(0x40)\n      dup1\n      swap2\n      sub\n      swap1\n      return\n        /* \"ETHKL/twitterpost.sol\":718:742  uint256[] public postIds */\n    tag_7:\n      tag_28\n      0x04\n      dup1\n      calldatasize\n      sub\n      dup2\n      add\n      swap1\n      tag_29\n      swap2\n      swap1\n      tag_11\n      jump\t// in\n    tag_29:\n      tag_30\n      jump\t// in\n    tag_28:\n      mload(0x40)\n      tag_31\n      swap2\n      swap1\n      tag_32\n      jump\t// in\n    tag_31:\n      mload(0x40)\n      dup1\n      swap2\n      sub\n      swap1\n      return\n        /* \"ETHKL/twitterpost.sol\":794:819  uint256 public nextPostId */\n    tag_8:\n      tag_33\n      tag_34\n      jump\t// in\n    tag_33:\n      mload(0x40)\n      tag_35\n      swap2\n      swap1\n      tag_32\n      jump\t// in\n    tag_35:\n      mload(0x40)\n      dup1\n      swap2\n      sub\n      swap1\n      return\n        /* \"ETHKL/twitterpost.sol\":621:658  mapping(uint256 => Post) public posts */\n    tag_12:\n      mstore(0x20, 0x00)\n      dup1\n      0x00\n      mstore\n      keccak256(0x00, 0x40)\n      0x00\n      swap2\n      pop\n      swap1\n      pop\n      dup1\n      0x00\n      add\n      sload\n      swap1\n      dup1\n      0x01\n      add\n      0x00\n      swap1\n      sload\n      swap1\n      0x0100\n      exp\n      swap1\n      div\n      0xffffffffffffffffffffffffffffffffffffffff\n      and\n      swap1\n      dup1\n      0x02\n      add\n      dup1\n      sload\n      tag_36\n      swap1\n      tag_37\n      jump\t// in\n    tag_36:\n      dup1\n      0x1f\n      add\n      0x20\n      dup1\n      swap2\n      div\n      mul\n      0x20\n      add\n      mload(0x40)\n      swap1\n      dup2\n      add\n      0x40\n      mstore\n      dup1\n      swap3\n      swap2\n      swap1\n      dup2\n      dup2\n      mstore\n      0x20\n      add\n      dup3\n      dup1\n      sload\n      tag_38\n      swap1\n      tag_37\n      jump\t// in\n    tag_38:\n      dup1\n      iszero\n      tag_39\n      jumpi\n      dup1\n      0x1f\n      lt\n      tag_40\n      jumpi\n      0x0100\n      dup1\n      dup4\n      sload\n      div\n      mul\n      dup4\n      mstore\n      swap2\n      0x20\n      add\n      swap2\n      jump(tag_39)\n    tag_40:\n      dup3\n      add\n      swap2\n      swap1\n      0x00\n      mstore\n      keccak256(0x00, 0x20)\n      swap1\n    tag_41:\n      dup2\n      sload\n      dup2\n      mstore\n      swap1\n      0x01\n      add\n      swap1\n      0x20\n      add\n      dup1\n      dup4\n      gt\n      tag_41\n      jumpi\n      dup3\n      swap1\n      sub\n      0x1f\n      and\n      dup3\n      add\n      swap2\n    tag_39:\n      pop\n      pop\n      pop\n      pop\n      pop\n      swap1\n      dup1\n      0x03\n      add\n      dup1\n      sload\n      tag_42\n      swap1\n      tag_37\n      jump\t// in\n    tag_42:\n      dup1\n      0x1f\n      add\n      0x20\n      dup1\n      swap2\n      div\n      mul\n      0x20\n      add\n      mload(0x40)\n      swap1\n      dup2\n      add\n      0x40\n      mstore\n      dup1\n      swap3\n      swap2\n      swap1\n      dup2\n      dup2\n      mstore\n      0x20\n      add\n      dup3\n      dup1\n      sload\n      tag_43\n      swap1\n      tag_37\n      jump\t// in\n    tag_43:\n      dup1\n      iszero\n      tag_44\n      jumpi\n      dup1\n      0x1f\n      lt\n      tag_45\n      jumpi\n      0x0100\n      dup1\n      dup4\n      sload\n      div\n      mul\n      dup4\n      mstore\n      swap2\n      0x20\n      add\n      swap2\n      jump(tag_44)\n    tag_45:\n      dup3\n      add\n      swap2\n      swap1\n      0x00\n      mstore\n      keccak256(0x00, 0x20)\n      swap1\n    tag_46:\n      dup2\n      sload\n      dup2\n      mstore\n      swap1\n      0x01\n      add\n      swap1\n      0x20\n      add\n      dup1\n      dup4\n      gt\n      tag_46\n      jumpi\n      dup3\n      swap1\n      sub\n      0x1f\n      and\n      dup3\n      add\n      swap2\n    tag_44:\n      pop\n      pop\n      pop\n      pop\n      pop\n      swap1\n      dup1\n      0x04\n      add\n      dup1\n      sload\n      tag_47\n      swap1\n      tag_37\n      jump\t// in\n    tag_47:\n      dup1\n      0x1f\n      add\n      0x20\n      dup1\n      swap2\n      div\n      mul\n      0x20\n      add\n      mload(0x40)\n      swap1\n      dup2\n      add\n      0x40\n      mstore\n      dup1\n      swap3\n      swap2\n      swap1\n      dup2\n      dup2\n      mstore\n      0x20\n      add\n      dup3\n      dup1\n      sload\n      tag_48\n      swap1\n      tag_37\n      jump\t// in\n    tag_48:\n      dup1\n      iszero\n      tag_49\n      jumpi\n      dup1\n      0x1f\n      lt\n      tag_50\n      jumpi\n      0x0100\n      dup1\n      dup4\n      sload\n      div\n      mul\n      dup4\n      mstore\n      swap2\n      0x20\n      add\n      swap2\n      jump(tag_49)\n    tag_50:\n      dup3\n      add\n      swap2\n      swap1\n      0x00\n      mstore\n      keccak256(0x00, 0x20)\n      swap1\n    tag_51:\n      dup2\n      sload\n      dup2\n      mstore\n      swap1\n      0x01\n      add\n      swap1\n      0x20\n      add\n      dup1\n      dup4\n      gt\n      tag_51\n      jumpi\n      dup3\n      swap1\n      sub\n      0x1f\n      and\n      dup3\n      add\n      swap2\n    tag_49:\n      pop\n      pop\n      pop\n      pop\n      pop\n      swap1\n      dup1\n      0x05\n      add\n      sload\n      swap1\n      dup1\n      0x06\n      add\n      dup1\n      sload\n      tag_52\n      swap1\n      tag_37\n      jump\t// in\n    tag_52:\n      dup1\n      0x1f\n      add\n      0x20\n      dup1\n      swap2\n      div\n      mul\n      0x20\n      add\n      mload(0x40)\n      swap1\n      dup2\n      add\n      0x40\n      mstore\n      dup1\n      swap3\n      swap2\n      swap1\n      dup2\n      dup2\n      mstore\n      0x20\n      add\n      dup3\n      dup1\n      sload\n      tag_53\n      swap1\n      tag_37\n      jump\t// in\n    tag_53:\n      dup1\n      iszero\n      tag_54\n      jumpi\n      dup1\n      0x1f\n      lt\n      tag_55\n      jumpi\n      0x0100\n      dup1\n      dup4\n      sload\n      div\n      mul\n      dup4\n      mstore\n      swap2\n      0x20\n      add\n      swap2\n      jump(tag_54)\n    tag_55:\n      dup3\n      add\n      swap2\n      swap1\n      0x00\n      mstore\n      keccak256(0x00, 0x20)\n      swap1\n    tag_56:\n      dup2\n      sload\n      dup2\n      mstore\n      swap1\n      0x01\n      add\n      swap1\n      0x20\n      add\n      dup1\n      dup4\n      gt\n      tag_56\n      jumpi\n      dup3\n      swap1\n      sub\n      0x1f\n      and\n      dup3\n      add\n      swap2\n    tag_54:\n      pop\n      pop\n      pop\n      pop\n      pop\n      swap1\n      pop\n      dup8\n      jump\t// out\n        /* \"ETHKL/twitterpost.sol\":1262:2071  function createPost(... */\n    tag_18:\n        /* \"ETHKL/twitterpost.sol\":1469:1493  uint256 currentTimestamp */\n      0x00\n        /* \"ETHKL/twitterpost.sol\":1496:1511  block.timestamp */\n      timestamp\n        /* \"ETHKL/twitterpost.sol\":1469:1511  uint256 currentTimestamp = block.timestamp */\n      swap1\n      pop\n        /* \"ETHKL/twitterpost.sol\":1627:1716  Post(nextPostId, msg.sender, _ipfsHash, _imageHash, _content, currentTimestamp, _worldId) */\n      mload(0x40)\n      dup1\n      0xe0\n      add\n      0x40\n      mstore\n      dup1\n        /* \"ETHKL/twitterpost.sol\":1632:1642  nextPostId */\n      sload(0x02)\n        /* \"ETHKL/twitterpost.sol\":1627:1716  Post(nextPostId, msg.sender, _ipfsHash, _imageHash, _content, currentTimestamp, _worldId) */\n      dup2\n      mstore\n      0x20\n      add\n        /* \"ETHKL/twitterpost.sol\":1644:1654  msg.sender */\n      caller\n        /* \"ETHKL/twitterpost.sol\":1627:1716  Post(nextPostId, msg.sender, _ipfsHash, _imageHash, _content, currentTimestamp, _worldId) */\n      0xffffffffffffffffffffffffffffffffffffffff\n      and\n      dup2\n      mstore\n      0x20\n      add\n        /* \"ETHKL/twitterpost.sol\":1656:1665  _ipfsHash */\n      dup7\n        /* \"ETHKL/twitterpost.sol\":1627:1716  Post(nextPostId, msg.sender, _ipfsHash, _imageHash, _content, currentTimestamp, _worldId) */\n      dup2\n      mstore\n      0x20\n      add\n        /* \"ETHKL/twitterpost.sol\":1667:1677  _imageHash */\n      dup6\n        /* \"ETHKL/twitterpost.sol\":1627:1716  Post(nextPostId, msg.sender, _ipfsHash, _imageHash, _content, currentTimestamp, _worldId) */\n      dup2\n      mstore\n      0x20\n      add\n        /* \"ETHKL/twitterpost.sol\":1679:1687  _content */\n      dup5\n        /* \"ETHKL/twitterpost.sol\":1627:1716  Post(nextPostId, msg.sender, _ipfsHash, _imageHash, _content, currentTimestamp, _worldId) */\n      dup2\n      mstore\n      0x20\n      add\n        /* \"ETHKL/twitterpost.sol\":1689:1705  currentTimestamp */\n      dup3\n        /* \"ETHKL/twitterpost.sol\":1627:1716  Post(nextPostId, msg.sender, _ipfsHash, _imageHash, _content, currentTimestamp, _worldId) */\n      dup2\n      mstore\n      0x20\n      add\n        /* \"ETHKL/twitterpost.sol\":1707:1715  _worldId */\n      dup4\n        /* \"ETHKL/twitterpost.sol\":1627:1716  Post(nextPostId, msg.sender, _ipfsHash, _imageHash, _content, currentTimestamp, _worldId) */\n      dup2\n      mstore\n      pop\n        /* \"ETHKL/twitterpost.sol\":1607:1612  posts */\n      0x00\n        /* \"ETHKL/twitterpost.sol\":1607:1624  posts[nextPostId] */\n      0x00\n        /* \"ETHKL/twitterpost.sol\":1613:1623  nextPostId */\n      sload(0x02)\n        /* \"ETHKL/twitterpost.sol\":1607:1624  posts[nextPostId] */\n      dup2\n      mstore\n      0x20\n      add\n      swap1\n      dup2\n      mstore\n      0x20\n      add\n      0x00\n      keccak256\n        /* \"ETHKL/twitterpost.sol\":1607:1716  posts[nextPostId] = Post(nextPostId, msg.sender, _ipfsHash, _imageHash, _content, currentTimestamp, _worldId) */\n      0x00\n      dup3\n      add\n      mload\n      dup2\n      0x00\n      add\n      sstore\n      0x20\n      dup3\n      add\n      mload\n      dup2\n      0x01\n      add\n      exp(0x0100, 0x00)\n      dup2\n      sload\n      dup2\n      0xffffffffffffffffffffffffffffffffffffffff\n      mul\n      not\n      and\n      swap1\n      dup4\n      0xffffffffffffffffffffffffffffffffffffffff\n      and\n      mul\n      or\n      swap1\n      sstore\n      pop\n      0x40\n      dup3\n      add\n      mload\n      dup2\n      0x02\n      add\n      swap1\n      dup2\n      tag_58\n      swap2\n      swap1\n      tag_59\n      jump\t// in\n    tag_58:\n      pop\n      0x60\n      dup3\n      add\n      mload\n      dup2\n      0x03\n      add\n      swap1\n      dup2\n      tag_60\n      swap2\n      swap1\n      tag_59\n      jump\t// in\n    tag_60:\n      pop\n      0x80\n      dup3\n      add\n      mload\n      dup2\n      0x04\n      add\n      swap1\n      dup2\n      tag_61\n      swap2\n      swap1\n      tag_59\n      jump\t// in\n    tag_61:\n      pop\n      0xa0\n      dup3\n      add\n      mload\n      dup2\n      0x05\n      add\n      sstore\n      0xc0\n      dup3\n      add\n      mload\n      dup2\n      0x06\n      add\n      swap1\n      dup2\n      tag_62\n      swap2\n      swap1\n      tag_59\n      jump\t// in\n    tag_62:\n      pop\n      swap1\n      pop\n      pop\n        /* \"ETHKL/twitterpost.sol\":1791:1798  postIds */\n      0x01\n        /* \"ETHKL/twitterpost.sol\":1804:1814  nextPostId */\n      sload(0x02)\n        /* \"ETHKL/twitterpost.sol\":1791:1815  postIds.push(nextPostId) */\n      swap1\n      dup1\n      0x01\n      dup2\n      sload\n      add\n      dup1\n      dup3\n      sstore\n      dup1\n      swap2\n      pop\n      pop\n      0x01\n      swap1\n      sub\n      swap1\n      0x00\n      mstore\n      keccak256(0x00, 0x20)\n      add\n      0x00\n      swap1\n      swap2\n      swap1\n      swap2\n      swap1\n      swap2\n      pop\n      sstore\n        /* \"ETHKL/twitterpost.sol\":1915:1925  msg.sender */\n      caller\n        /* \"ETHKL/twitterpost.sol\":1891:1987  PostCreated(nextPostId, msg.sender, _ipfsHash, _imageHash, _content, currentTimestamp, _worldId) */\n      0xffffffffffffffffffffffffffffffffffffffff\n      and\n      0xe762a8095faeab4bc8be9f7a47926bdf7b023dfd65e909cdd7441678ab9c6ea0\n        /* \"ETHKL/twitterpost.sol\":1903:1913  nextPostId */\n      sload(0x02)\n        /* \"ETHKL/twitterpost.sol\":1927:1936  _ipfsHash */\n      dup8\n        /* \"ETHKL/twitterpost.sol\":1938:1948  _imageHash */\n      dup8\n        /* \"ETHKL/twitterpost.sol\":1950:1958  _content */\n      dup8\n        /* \"ETHKL/twitterpost.sol\":1960:1976  currentTimestamp */\n      dup7\n        /* \"ETHKL/twitterpost.sol\":1978:1986  _worldId */\n      dup9\n        /* \"ETHKL/twitterpost.sol\":1891:1987  PostCreated(nextPostId, msg.sender, _ipfsHash, _imageHash, _content, currentTimestamp, _worldId) */\n      mload(0x40)\n      tag_64\n      swap7\n      swap6\n      swap5\n      swap4\n      swap3\n      swap2\n      swap1\n      tag_65\n      jump\t// in\n    tag_64:\n      mload(0x40)\n      dup1\n      swap2\n      sub\n      swap1\n      log2\n        /* \"ETHKL/twitterpost.sol\":2051:2061  nextPostId */\n      0x02\n      0x00\n        /* \"ETHKL/twitterpost.sol\":2051:2063  nextPostId++ */\n      dup2\n      sload\n      dup1\n      swap3\n      swap2\n      swap1\n      tag_66\n      swap1\n      tag_67\n      jump\t// in\n    tag_66:\n      swap2\n      swap1\n      pop\n      sstore\n      pop\n        /* \"ETHKL/twitterpost.sol\":1458:2071  {... */\n      pop\n        /* \"ETHKL/twitterpost.sol\":1262:2071  function createPost(... */\n      pop\n      pop\n      pop\n      pop\n      jump\t// out\n        /* \"ETHKL/twitterpost.sol\":2305:2699  function getPostsDescending() public view returns (Post[] memory) {... */\n    tag_20:\n        /* \"ETHKL/twitterpost.sol\":2356:2369  Post[] memory */\n      0x60\n        /* \"ETHKL/twitterpost.sol\":2382:2400  uint256 totalPosts */\n      0x00\n        /* \"ETHKL/twitterpost.sol\":2403:2410  postIds */\n      0x01\n        /* \"ETHKL/twitterpost.sol\":2403:2417  postIds.length */\n      dup1\n      sload\n      swap1\n      pop\n        /* \"ETHKL/twitterpost.sol\":2382:2417  uint256 totalPosts = postIds.length */\n      swap1\n      pop\n        /* \"ETHKL/twitterpost.sol\":2428:2448  Post[] memory result */\n      0x00\n        /* \"ETHKL/twitterpost.sol\":2462:2472  totalPosts */\n      dup2\n        /* \"ETHKL/twitterpost.sol\":2451:2473  new Post[](totalPosts) */\n      0xffffffffffffffff\n      dup2\n      gt\n      iszero\n      tag_69\n      jumpi\n      tag_70\n      tag_71\n      jump\t// in\n    tag_70:\n    tag_69:\n      mload(0x40)\n      swap1\n      dup1\n      dup3\n      mstore\n      dup1\n      0x20\n      mul\n      0x20\n      add\n      dup3\n      add\n      0x40\n      mstore\n      dup1\n      iszero\n      tag_72\n      jumpi\n      dup2\n      0x20\n      add\n    tag_73:\n      tag_74\n      tag_75\n      jump\t// in\n    tag_74:\n      dup2\n      mstore\n      0x20\n      add\n      swap1\n      0x01\n      swap1\n      sub\n      swap1\n      dup2\n      tag_73\n      jumpi\n      swap1\n      pop\n    tag_72:\n      pop\n        /* \"ETHKL/twitterpost.sol\":2428:2473  Post[] memory result = new Post[](totalPosts) */\n      swap1\n      pop\n        /* \"ETHKL/twitterpost.sol\":2491:2500  uint256 i */\n      0x00\n        /* \"ETHKL/twitterpost.sol\":2503:2504  0 */\n      0x00\n        /* \"ETHKL/twitterpost.sol\":2491:2504  uint256 i = 0 */\n      swap1\n      pop\n        /* \"ETHKL/twitterpost.sol\":2486:2666  for (uint256 i = 0; i < totalPosts; i++) {... */\n    tag_76:\n        /* \"ETHKL/twitterpost.sol\":2510:2520  totalPosts */\n      dup3\n        /* \"ETHKL/twitterpost.sol\":2506:2507  i */\n      dup2\n        /* \"ETHKL/twitterpost.sol\":2506:2520  i < totalPosts */\n      lt\n        /* \"ETHKL/twitterpost.sol\":2486:2666  for (uint256 i = 0; i < totalPosts; i++) {... */\n      iszero\n      tag_77\n      jumpi\n        /* \"ETHKL/twitterpost.sol\":2620:2625  posts */\n      0x00\n        /* \"ETHKL/twitterpost.sol\":2620:2654  posts[postIds[totalPosts - 1 - i]] */\n      0x00\n        /* \"ETHKL/twitterpost.sol\":2626:2633  postIds */\n      0x01\n        /* \"ETHKL/twitterpost.sol\":2651:2652  i */\n      dup4\n        /* \"ETHKL/twitterpost.sol\":2647:2648  1 */\n      0x01\n        /* \"ETHKL/twitterpost.sol\":2634:2644  totalPosts */\n      dup8\n        /* \"ETHKL/twitterpost.sol\":2634:2648  totalPosts - 1 */\n      tag_79\n      swap2\n      swap1\n      tag_80\n      jump\t// in\n    tag_79:\n        /* \"ETHKL/twitterpost.sol\":2634:2652  totalPosts - 1 - i */\n      tag_81\n      swap2\n      swap1\n      tag_80\n      jump\t// in\n    tag_81:\n        /* \"ETHKL/twitterpost.sol\":2626:2653  postIds[totalPosts - 1 - i] */\n      dup2\n      sload\n      dup2\n      lt\n      tag_82\n      jumpi\n      tag_83\n      tag_84\n      jump\t// in\n    tag_83:\n    tag_82:\n      swap1\n      0x00\n      mstore\n      keccak256(0x00, 0x20)\n      add\n      sload\n        /* \"ETHKL/twitterpost.sol\":2620:2654  posts[postIds[totalPosts - 1 - i]] */\n      dup2\n      mstore\n      0x20\n      add\n      swap1\n      dup2\n      mstore\n      0x20\n      add\n      0x00\n      keccak256\n        /* \"ETHKL/twitterpost.sol\":2608:2654  result[i] = posts[postIds[totalPosts - 1 - i]] */\n      mload(0x40)\n      dup1\n      0xe0\n      add\n      0x40\n      mstore\n      swap1\n      dup2\n      0x00\n      dup3\n      add\n      sload\n      dup2\n      mstore\n      0x20\n      add\n      0x01\n      dup3\n      add\n      0x00\n      swap1\n      sload\n      swap1\n      0x0100\n      exp\n      swap1\n      div\n      0xffffffffffffffffffffffffffffffffffffffff\n      and\n      0xffffffffffffffffffffffffffffffffffffffff\n      and\n      0xffffffffffffffffffffffffffffffffffffffff\n      and\n      dup2\n      mstore\n      0x20\n      add\n      0x02\n      dup3\n      add\n      dup1\n      sload\n      tag_86\n      swap1\n      tag_37\n      jump\t// in\n    tag_86:\n      dup1\n      0x1f\n      add\n      0x20\n      dup1\n      swap2\n      div\n      mul\n      0x20\n      add\n      mload(0x40)\n      swap1\n      dup2\n      add\n      0x40\n      mstore\n      dup1\n      swap3\n      swap2\n      swap1\n      dup2\n      dup2\n      mstore\n      0x20\n      add\n      dup3\n      dup1\n      sload\n      tag_87\n      swap1\n      tag_37\n      jump\t// in\n    tag_87:\n      dup1\n      iszero\n      tag_88\n      jumpi\n      dup1\n      0x1f\n      lt\n      tag_89\n      jumpi\n      0x0100\n      dup1\n      dup4\n      sload\n      div\n      mul\n      dup4\n      mstore\n      swap2\n      0x20\n      add\n      swap2\n      jump(tag_88)\n    tag_89:\n      dup3\n      add\n      swap2\n      swap1\n      0x00\n      mstore\n      keccak256(0x00, 0x20)\n      swap1\n    tag_90:\n      dup2\n      sload\n      dup2\n      mstore\n      swap1\n      0x01\n      add\n      swap1\n      0x20\n      add\n      dup1\n      dup4\n      gt\n      tag_90\n      jumpi\n      dup3\n      swap1\n      sub\n      0x1f\n      and\n      dup3\n      add\n      swap2\n    tag_88:\n      pop\n      pop\n      pop\n      pop\n      pop\n      dup2\n      mstore\n      0x20\n      add\n      0x03\n      dup3\n      add\n      dup1\n      sload\n      tag_91\n      swap1\n      tag_37\n      jump\t// in\n    tag_91:\n      dup1\n      0x1f\n      add\n      0x20\n      dup1\n      swap2\n      div\n      mul\n      0x20\n      add\n      mload(0x40)\n      swap1\n      dup2\n      add\n      0x40\n      mstore\n      dup1\n      swap3\n      swap2\n      swap1\n      dup2\n      dup2\n      mstore\n      0x20\n      add\n      dup3\n      dup1\n      sload\n      tag_92\n      swap1\n      tag_37\n      jump\t// in\n    tag_92:\n      dup1\n      iszero\n      tag_93\n      jumpi\n      dup1\n      0x1f\n      lt\n      tag_94\n      jumpi\n      0x0100\n      dup1\n      dup4\n      sload\n      div\n      mul\n      dup4\n      mstore\n      swap2\n      0x20\n      add\n      swap2\n      jump(tag_93)\n    tag_94:\n      dup3\n      add\n      swap2\n      swap1\n      0x00\n      mstore\n      keccak256(0x00, 0x20)\n      swap1\n    tag_95:\n      dup2\n      sload\n      dup2\n      mstore\n      swap1\n      0x01\n      add\n      swap1\n      0x20\n      add\n      dup1\n      dup4\n      gt\n      tag_95\n      jumpi\n      dup3\n      swap1\n      sub\n      0x1f\n      and\n      dup3\n      add\n      swap2\n    tag_93:\n      pop\n      pop\n      pop\n      pop\n      pop\n      dup2\n      mstore\n      0x20\n      add\n      0x04\n      dup3\n      add\n      dup1\n      sload\n      tag_96\n      swap1\n      tag_37\n      jump\t// in\n    tag_96:\n      dup1\n      0x1f\n      add\n      0x20\n      dup1\n      swap2\n      div\n      mul\n      0x20\n      add\n      mload(0x40)\n      swap1\n      dup2\n      add\n      0x40\n      mstore\n      dup1\n      swap3\n      swap2\n      swap1\n      dup2\n      dup2\n      mstore\n      0x20\n      add\n      dup3\n      dup1\n      sload\n      tag_97\n      swap1\n      tag_37\n      jump\t// in\n    tag_97:\n      dup1\n      iszero\n      tag_98\n      jumpi\n      dup1\n      0x1f\n      lt\n      tag_99\n      jumpi\n      0x0100\n      dup1\n      dup4\n      sload\n      div\n      mul\n      dup4\n      mstore\n      swap2\n      0x20\n      add\n      swap2\n      jump(tag_98)\n    tag_99:\n      dup3\n      add\n      swap2\n      swap1\n      0x00\n      mstore\n      keccak256(0x00, 0x20)\n      swap1\n    tag_100:\n      dup2\n      sload\n      dup2\n      mstore\n      swap1\n      0x01\n      add\n      swap1\n      0x20\n      add\n      dup1\n      dup4\n      gt\n      tag_100\n      jumpi\n      dup3\n      swap1\n      sub\n      0x1f\n      and\n      dup3\n      add\n      swap2\n    tag_98:\n      pop\n      pop\n      pop\n      pop\n      pop\n      dup2\n      mstore\n      0x20\n      add\n      0x05\n      dup3\n      add\n      sload\n      dup2\n      mstore\n      0x20\n      add\n      0x06\n      dup3\n      add\n      dup1\n      sload\n      tag_101\n      swap1\n      tag_37\n      jump\t// in\n    tag_101:\n      dup1\n      0x1f\n      add\n      0x20\n      dup1\n      swap2\n      div\n      mul\n      0x20\n      add\n      mload(0x40)\n      swap1\n      dup2\n      add\n      0x40\n      mstore\n      dup1\n      swap3\n      swap2\n      swap1\n      dup2\n      dup2\n      mstore\n      0x20\n      add\n      dup3\n      dup1\n      sload\n      tag_102\n      swap1\n      tag_37\n      jump\t// in\n    tag_102:\n      dup1\n      iszero\n      tag_103\n      jumpi\n      dup1\n      0x1f\n      lt\n      tag_104\n      jumpi\n      0x0100\n      dup1\n      dup4\n      sload\n      div\n      mul\n      dup4\n      mstore\n      swap2\n      0x20\n      add\n      swap2\n      jump(tag_103)\n    tag_104:\n      dup3\n      add\n      swap2\n      swap1\n      0x00\n      mstore\n      keccak256(0x00, 0x20)\n      swap1\n    tag_105:\n      dup2\n      sload\n      dup2\n      mstore\n      swap1\n      0x01\n      add\n      swap1\n      0x20\n      add\n      dup1\n      dup4\n      gt\n      tag_105\n      jumpi\n      dup3\n      swap1\n      sub\n      0x1f\n      and\n      dup3\n      add\n      swap2\n    tag_103:\n      pop\n      pop\n      pop\n      pop\n      pop\n      dup2\n      mstore\n      pop\n      pop\n        /* \"ETHKL/twitterpost.sol\":2608:2614  result */\n      dup3\n        /* \"ETHKL/twitterpost.sol\":2615:2616  i */\n      dup3\n        /* \"ETHKL/twitterpost.sol\":2608:2617  result[i] */\n      dup2\n      mload\n      dup2\n      lt\n      tag_106\n      jumpi\n      tag_107\n      tag_84\n      jump\t// in\n    tag_107:\n    tag_106:\n      0x20\n      mul\n      0x20\n      add\n      add\n        /* \"ETHKL/twitterpost.sol\":2608:2654  result[i] = posts[postIds[totalPosts - 1 - i]] */\n      dup2\n      swap1\n      mstore\n      pop\n        /* \"ETHKL/twitterpost.sol\":2522:2525  i++ */\n      dup1\n      dup1\n      0x01\n      add\n      swap2\n      pop\n      pop\n        /* \"ETHKL/twitterpost.sol\":2486:2666  for (uint256 i = 0; i < totalPosts; i++) {... */\n      jump(tag_76)\n    tag_77:\n      pop\n        /* \"ETHKL/twitterpost.sol\":2685:2691  result */\n      dup1\n        /* \"ETHKL/twitterpost.sol\":2678:2691  return result */\n      swap3\n      pop\n      pop\n      pop\n        /* \"ETHKL/twitterpost.sol\":2305:2699  function getPostsDescending() public view returns (Post[] memory) {... */\n      swap1\n      jump\t// out\n        /* \"ETHKL/twitterpost.sol\":2122:2230  function getPost(uint256 _postId) public view returns (Post memory) {... */\n    tag_25:\n        /* \"ETHKL/twitterpost.sol\":2177:2188  Post memory */\n      tag_108\n      tag_75\n      jump\t// in\n    tag_108:\n        /* \"ETHKL/twitterpost.sol\":2208:2213  posts */\n      0x00\n        /* \"ETHKL/twitterpost.sol\":2208:2222  posts[_postId] */\n      0x00\n        /* \"ETHKL/twitterpost.sol\":2214:2221  _postId */\n      dup4\n        /* \"ETHKL/twitterpost.sol\":2208:2222  posts[_postId] */\n      dup2\n      mstore\n      0x20\n      add\n      swap1\n      dup2\n      mstore\n      0x20\n      add\n      0x00\n      keccak256\n        /* \"ETHKL/twitterpost.sol\":2201:2222  return posts[_postId] */\n      mload(0x40)\n      dup1\n      0xe0\n      add\n      0x40\n      mstore\n      swap1\n      dup2\n      0x00\n      dup3\n      add\n      sload\n      dup2\n      mstore\n      0x20\n      add\n      0x01\n      dup3\n      add\n      0x00\n      swap1\n      sload\n      swap1\n      0x0100\n      exp\n      swap1\n      div\n      0xffffffffffffffffffffffffffffffffffffffff\n      and\n      0xffffffffffffffffffffffffffffffffffffffff\n      and\n      0xffffffffffffffffffffffffffffffffffffffff\n      and\n      dup2\n      mstore\n      0x20\n      add\n      0x02\n      dup3\n      add\n      dup1\n      sload\n      tag_110\n      swap1\n      tag_37\n      jump\t// in\n    tag_110:\n      dup1\n      0x1f\n      add\n      0x20\n      dup1\n      swap2\n      div\n      mul\n      0x20\n      add\n      mload(0x40)\n      swap1\n      dup2\n      add\n      0x40\n      mstore\n      dup1\n      swap3\n      swap2\n      swap1\n      dup2\n      dup2\n      mstore\n      0x20\n      add\n      dup3\n      dup1\n      sload\n      tag_111\n      swap1\n      tag_37\n      jump\t// in\n    tag_111:\n      dup1\n      iszero\n      tag_112\n      jumpi\n      dup1\n      0x1f\n      lt\n      tag_113\n      jumpi\n      0x0100\n      dup1\n      dup4\n      sload\n      div\n      mul\n      dup4\n      mstore\n      swap2\n      0x20\n      add\n      swap2\n      jump(tag_112)\n    tag_113:\n      dup3\n      add\n      swap2\n      swap1\n      0x00\n      mstore\n      keccak256(0x00, 0x20)\n      swap1\n    tag_114:\n      dup2\n      sload\n      dup2\n      mstore\n      swap1\n      0x01\n      add\n      swap1\n      0x20\n      add\n      dup1\n      dup4\n      gt\n      tag_114\n      jumpi\n      dup3\n      swap1\n      sub\n      0x1f\n      and\n      dup3\n      add\n      swap2\n    tag_112:\n      pop\n      pop\n      pop\n      pop\n      pop\n      dup2\n      mstore\n      0x20\n      add\n      0x03\n      dup3\n      add\n      dup1\n      sload\n      tag_115\n      swap1\n      tag_37\n      jump\t// in\n    tag_115:\n      dup1\n      0x1f\n      add\n      0x20\n      dup1\n      swap2\n      div\n      mul\n      0x20\n      add\n      mload(0x40)\n      swap1\n      dup2\n      add\n      0x40\n      mstore\n      dup1\n      swap3\n      swap2\n      swap1\n      dup2\n      dup2\n      mstore\n      0x20\n      add\n      dup3\n      dup1\n      sload\n      tag_116\n      swap1\n      tag_37\n      jump\t// in\n    tag_116:\n      dup1\n      iszero\n      tag_117\n      jumpi\n      dup1\n      0x1f\n      lt\n      tag_118\n      jumpi\n      0x0100\n      dup1\n      dup4\n      sload\n      div\n      mul\n      dup4\n      mstore\n      swap2\n      0x20\n      add\n      swap2\n      jump(tag_117)\n    tag_118:\n      dup3\n      add\n      swap2\n      swap1\n      0x00\n      mstore\n      keccak256(0x00, 0x20)\n      swap1\n    tag_119:\n      dup2\n      sload\n      dup2\n      mstore\n      swap1\n      0x01\n      add\n      swap1\n      0x20\n      add\n      dup1\n      dup4\n      gt\n      tag_119\n      jumpi\n      dup3\n      swap1\n      sub\n      0x1f\n      and\n      dup3\n      add\n      swap2\n    tag_117:\n      pop\n      pop\n      pop\n      pop\n      pop\n      dup2\n      mstore\n      0x20\n      add\n      0x04\n      dup3\n      add\n      dup1\n      sload\n      tag_120\n      swap1\n      tag_37\n      jump\t// in\n    tag_120:\n      dup1\n      0x1f\n      add\n      0x20\n      dup1\n      swap2\n      div\n      mul\n      0x20\n      add\n      mload(0x40)\n      swap1\n      dup2\n      add\n      0x40\n      mstore\n      dup1\n      swap3\n      swap2\n      swap1\n      dup2\n      dup2\n      mstore\n      0x20\n      add\n      dup3\n      dup1\n      sload\n      tag_121\n      swap1\n      tag_37\n      jump\t// in\n    tag_121:\n      dup1\n      iszero\n      tag_122\n      jumpi\n      dup1\n      0x1f\n      lt\n      tag_123\n      jumpi\n      0x0100\n      dup1\n      dup4\n      sload\n      div\n      mul\n      dup4\n      mstore\n      swap2\n      0x20\n      add\n      swap2\n      jump(tag_122)\n    tag_123:\n      dup3\n      add\n      swap2\n      swap1\n      0x00\n      mstore\n      keccak256(0x00, 0x20)\n      swap1\n    tag_124:\n      dup2\n      sload\n      dup2\n      mstore\n      swap1\n      0x01\n      add\n      swap1\n      0x20\n      add\n      dup1\n      dup4\n      gt\n      tag_124\n      jumpi\n      dup3\n      swap1\n      sub\n      0x1f\n      and\n      dup3\n      add\n      swap2\n    tag_122:\n      pop\n      pop\n      pop\n      pop\n      pop\n      dup2\n      mstore\n      0x20\n      add\n      0x05\n      dup3\n      add\n      sload\n      dup2\n      mstore\n      0x20\n      add\n      0x06\n      dup3\n      add\n      dup1\n      sload\n      tag_125\n      swap1\n      tag_37\n      jump\t// in\n    tag_125:\n      dup1\n      0x1f\n      add\n      0x20\n      dup1\n      swap2\n      div\n      mul\n      0x20\n      add\n      mload(0x40)\n      swap1\n      dup2\n      add\n      0x40\n      mstore\n      dup1\n      swap3\n      swap2\n      swap1\n      dup2\n      dup2\n      mstore\n      0x20\n      add\n      dup3\n      dup1\n      sload\n      tag_126\n      swap1\n      tag_37\n      jump\t// in\n    tag_126:\n      dup1\n      iszero\n      tag_127\n      jumpi\n      dup1\n      0x1f\n      lt\n      tag_128\n      jumpi\n      0x0100\n      dup1\n      dup4\n      sload\n      div\n      mul\n      dup4\n      mstore\n      swap2\n      0x20\n      add\n      swap2\n      jump(tag_127)\n    tag_128:\n      dup3\n      add\n      swap2\n      swap1\n      0x00\n      mstore\n      keccak256(0x00, 0x20)\n      swap1\n    tag_129:\n      dup2\n      sload\n      dup2\n      mstore\n      swap1\n      0x01\n      add\n      swap1\n      0x20\n      add\n      dup1\n      dup4\n      gt\n      tag_129\n      jumpi\n      dup3\n      swap1\n      sub\n      0x1f\n      and\n      dup3\n      add\n      swap2\n    tag_127:\n      pop\n      pop\n      pop\n      pop\n      pop\n      dup2\n      mstore\n      pop\n      pop\n      swap1\n      pop\n        /* \"ETHKL/twitterpost.sol\":2122:2230  function getPost(uint256 _postId) public view returns (Post memory) {... */\n      swap2\n      swap1\n      pop\n      jump\t// out\n        /* \"ETHKL/twitterpost.sol\":718:742  uint256[] public postIds */\n    tag_30:\n      0x01\n      dup2\n      dup2\n      sload\n      dup2\n      lt\n      tag_130\n      jumpi\n      0x00\n      dup1\n      revert\n    tag_130:\n      swap1\n      0x00\n      mstore\n      keccak256(0x00, 0x20)\n      add\n      0x00\n      swap2\n      pop\n      swap1\n      pop\n      sload\n      dup2\n      jump\t// out\n        /* \"ETHKL/twitterpost.sol\":794:819  uint256 public nextPostId */\n    tag_34:\n      sload(0x02)\n      dup2\n      jump\t// out\n    tag_75:\n      mload(0x40)\n      dup1\n      0xe0\n      add\n      0x40\n      mstore\n      dup1\n      0x00\n      dup2\n      mstore\n      0x20\n      add\n      and(0xffffffffffffffffffffffffffffffffffffffff, 0x00)\n      dup2\n      mstore\n      0x20\n      add\n      0x60\n      dup2\n      mstore\n      0x20\n      add\n      0x60\n      dup2\n      mstore\n      0x20\n      add\n      0x60\n      dup2\n      mstore\n      0x20\n      add\n      0x00\n      dup2\n      mstore\n      0x20\n      add\n      0x60\n      dup2\n      mstore\n      pop\n      swap1\n      jump\t// out\n        /* \"#utility.yul\":7:82   */\n    tag_132:\n        /* \"#utility.yul\":40:46   */\n      0x00\n        /* \"#utility.yul\":73:75   */\n      0x40\n        /* \"#utility.yul\":67:76   */\n      mload\n        /* \"#utility.yul\":57:76   */\n      swap1\n      pop\n        /* \"#utility.yul\":7:82   */\n      swap1\n      jump\t// out\n        /* \"#utility.yul\":88:205   */\n    tag_133:\n        /* \"#utility.yul\":197:198   */\n      0x00\n        /* \"#utility.yul\":194:195   */\n      0x00\n        /* \"#utility.yul\":187:199   */\n      revert\n        /* \"#utility.yul\":211:328   */\n    tag_134:\n        /* \"#utility.yul\":320:321   */\n      0x00\n        /* \"#utility.yul\":317:318   */\n      0x00\n        /* \"#utility.yul\":310:322   */\n      revert\n        /* \"#utility.yul\":334:411   */\n    tag_135:\n        /* \"#utility.yul\":371:378   */\n      0x00\n        /* \"#utility.yul\":400:405   */\n      dup2\n        /* \"#utility.yul\":389:405   */\n      swap1\n      pop\n        /* \"#utility.yul\":334:411   */\n      swap2\n      swap1\n      pop\n      jump\t// out\n        /* \"#utility.yul\":417:539   */\n    tag_136:\n        /* \"#utility.yul\":490:514   */\n      tag_190\n        /* \"#utility.yul\":508:513   */\n      dup2\n        /* \"#utility.yul\":490:514   */\n      tag_135\n      jump\t// in\n    tag_190:\n        /* \"#utility.yul\":483:488   */\n      dup2\n        /* \"#utility.yul\":480:515   */\n      eq\n        /* \"#utility.yul\":470:533   */\n      tag_191\n      jumpi\n        /* \"#utility.yul\":529:530   */\n      0x00\n        /* \"#utility.yul\":526:527   */\n      0x00\n        /* \"#utility.yul\":519:531   */\n      revert\n        /* \"#utility.yul\":470:533   */\n    tag_191:\n        /* \"#utility.yul\":417:539   */\n      pop\n      jump\t// out\n        /* \"#utility.yul\":545:684   */\n    tag_137:\n        /* \"#utility.yul\":591:596   */\n      0x00\n        /* \"#utility.yul\":629:635   */\n      dup2\n        /* \"#utility.yul\":616:636   */\n      calldataload\n        /* \"#utility.yul\":607:636   */\n      swap1\n      pop\n        /* \"#utility.yul\":645:678   */\n      tag_193\n        /* \"#utility.yul\":672:677   */\n      dup2\n        /* \"#utility.yul\":645:678   */\n      tag_136\n      jump\t// in\n    tag_193:\n        /* \"#utility.yul\":545:684   */\n      swap3\n      swap2\n      pop\n      pop\n      jump\t// out\n        /* \"#utility.yul\":690:1019   */\n    tag_11:\n        /* \"#utility.yul\":749:755   */\n      0x00\n        /* \"#utility.yul\":798:800   */\n      0x20\n        /* \"#utility.yul\":786:795   */\n      dup3\n        /* \"#utility.yul\":777:784   */\n      dup5\n        /* \"#utility.yul\":773:796   */\n      sub\n        /* \"#utility.yul\":769:801   */\n      slt\n        /* \"#utility.yul\":766:885   */\n      iszero\n      tag_195\n      jumpi\n        /* \"#utility.yul\":804:883   */\n      tag_196\n      tag_133\n      jump\t// in\n    tag_196:\n        /* \"#utility.yul\":766:885   */\n    tag_195:\n        /* \"#utility.yul\":924:925   */\n      0x00\n        /* \"#utility.yul\":949:1002   */\n      tag_197\n        /* \"#utility.yul\":994:1001   */\n      dup5\n        /* \"#utility.yul\":985:991   */\n      dup3\n        /* \"#utility.yul\":974:983   */\n      dup6\n        /* \"#utility.yul\":970:992   */\n      add\n        /* \"#utility.yul\":949:1002   */\n      tag_137\n      jump\t// in\n    tag_197:\n        /* \"#utility.yul\":939:1002   */\n      swap2\n      pop\n        /* \"#utility.yul\":895:1012   */\n      pop\n        /* \"#utility.yul\":690:1019   */\n      swap3\n      swap2\n      pop\n      pop\n      jump\t// out\n        /* \"#utility.yul\":1025:1143   */\n    tag_138:\n        /* \"#utility.yul\":1112:1136   */\n      tag_199\n        /* \"#utility.yul\":1130:1135   */\n      dup2\n        /* \"#utility.yul\":1112:1136   */\n      tag_135\n      jump\t// in\n    tag_199:\n        /* \"#utility.yul\":1107:1110   */\n      dup3\n        /* \"#utility.yul\":1100:1137   */\n      mstore\n        /* \"#utility.yul\":1025:1143   */\n      pop\n      pop\n      jump\t// out\n        /* \"#utility.yul\":1149:1275   */\n    tag_139:\n        /* \"#utility.yul\":1186:1193   */\n      0x00\n        /* \"#utility.yul\":1226:1268   */\n      0xffffffffffffffffffffffffffffffffffffffff\n        /* \"#utility.yul\":1219:1224   */\n      dup3\n        /* \"#utility.yul\":1215:1269   */\n      and\n        /* \"#utility.yul\":1204:1269   */\n      swap1\n      pop\n        /* \"#utility.yul\":1149:1275   */\n      swap2\n      swap1\n      pop\n      jump\t// out\n        /* \"#utility.yul\":1281:1377   */\n    tag_140:\n        /* \"#utility.yul\":1318:1325   */\n      0x00\n        /* \"#utility.yul\":1347:1371   */\n      tag_202\n        /* \"#utility.yul\":1365:1370   */\n      dup3\n        /* \"#utility.yul\":1347:1371   */\n      tag_139\n      jump\t// in\n    tag_202:\n        /* \"#utility.yul\":1336:1371   */\n      swap1\n      pop\n        /* \"#utility.yul\":1281:1377   */\n      swap2\n      swap1\n      pop\n      jump\t// out\n        /* \"#utility.yul\":1383:1501   */\n    tag_141:\n        /* \"#utility.yul\":1470:1494   */\n      tag_204\n        /* \"#utility.yul\":1488:1493   */\n      dup2\n        /* \"#utility.yul\":1470:1494   */\n      tag_140\n      jump\t// in\n    tag_204:\n        /* \"#utility.yul\":1465:1468   */\n      dup3\n        /* \"#utility.yul\":1458:1495   */\n      mstore\n        /* \"#utility.yul\":1383:1501   */\n      pop\n      pop\n      jump\t// out\n        /* \"#utility.yul\":1507:1606   */\n    tag_142:\n        /* \"#utility.yul\":1559:1565   */\n      0x00\n        /* \"#utility.yul\":1593:1598   */\n      dup2\n        /* \"#utility.yul\":1587:1599   */\n      mload\n        /* \"#utility.yul\":1577:1599   */\n      swap1\n      pop\n        /* \"#utility.yul\":1507:1606   */\n      swap2\n      swap1\n      pop\n      jump\t// out\n        /* \"#utility.yul\":1612:1781   */\n    tag_143:\n        /* \"#utility.yul\":1696:1707   */\n      0x00\n        /* \"#utility.yul\":1730:1736   */\n      dup3\n        /* \"#utility.yul\":1725:1728   */\n      dup3\n        /* \"#utility.yul\":1718:1737   */\n      mstore\n        /* \"#utility.yul\":1770:1774   */\n      0x20\n        /* \"#utility.yul\":1765:1768   */\n      dup3\n        /* \"#utility.yul\":1761:1775   */\n      add\n        /* \"#utility.yul\":1746:1775   */\n      swap1\n      pop\n        /* \"#utility.yul\":1612:1781   */\n      swap3\n      swap2\n      pop\n      pop\n      jump\t// out\n        /* \"#utility.yul\":1787:1926   */\n    tag_144:\n        /* \"#utility.yul\":1876:1882   */\n      dup3\n        /* \"#utility.yul\":1871:1874   */\n      dup2\n        /* \"#utility.yul\":1866:1869   */\n      dup4\n        /* \"#utility.yul\":1860:1883   */\n      mcopy\n        /* \"#utility.yul\":1917:1918   */\n      0x00\n        /* \"#utility.yul\":1908:1914   */\n      dup4\n        /* \"#utility.yul\":1903:1906   */\n      dup4\n        /* \"#utility.yul\":1899:1915   */\n      add\n        /* \"#utility.yul\":1892:1919   */\n      mstore\n        /* \"#utility.yul\":1787:1926   */\n      pop\n      pop\n      pop\n      jump\t// out\n        /* \"#utility.yul\":1932:2034   */\n    tag_145:\n        /* \"#utility.yul\":1973:1979   */\n      0x00\n        /* \"#utility.yul\":2024:2026   */\n      0x1f\n        /* \"#utility.yul\":2020:2027   */\n      not\n        /* \"#utility.yul\":2015:2017   */\n      0x1f\n        /* \"#utility.yul\":2008:2013   */\n      dup4\n        /* \"#utility.yul\":2004:2018   */\n      add\n        /* \"#utility.yul\":2000:2028   */\n      and\n        /* \"#utility.yul\":1990:2028   */\n      swap1\n      pop\n        /* \"#utility.yul\":1932:2034   */\n      swap2\n      swap1\n      pop\n      jump\t// out\n        /* \"#utility.yul\":2040:2417   */\n    tag_146:\n        /* \"#utility.yul\":2128:2131   */\n      0x00\n        /* \"#utility.yul\":2156:2195   */\n      tag_210\n        /* \"#utility.yul\":2189:2194   */\n      dup3\n        /* \"#utility.yul\":2156:2195   */\n      tag_142\n      jump\t// in\n    tag_210:\n        /* \"#utility.yul\":2211:2282   */\n      tag_211\n        /* \"#utility.yul\":2275:2281   */\n      dup2\n        /* \"#utility.yul\":2270:2273   */\n      dup6\n        /* \"#utility.yul\":2211:2282   */\n      tag_143\n      jump\t// in\n    tag_211:\n        /* \"#utility.yul\":2204:2282   */\n      swap4\n      pop\n        /* \"#utility.yul\":2291:2356   */\n      tag_212\n        /* \"#utility.yul\":2349:2355   */\n      dup2\n        /* \"#utility.yul\":2344:2347   */\n      dup6\n        /* \"#utility.yul\":2337:2341   */\n      0x20\n        /* \"#utility.yul\":2330:2335   */\n      dup7\n        /* \"#utility.yul\":2326:2342   */\n      add\n        /* \"#utility.yul\":2291:2356   */\n      tag_144\n      jump\t// in\n    tag_212:\n        /* \"#utility.yul\":2381:2410   */\n      tag_213\n        /* \"#utility.yul\":2403:2409   */\n      dup2\n        /* \"#utility.yul\":2381:2410   */\n      tag_145\n      jump\t// in\n    tag_213:\n        /* \"#utility.yul\":2376:2379   */\n      dup5\n        /* \"#utility.yul\":2372:2411   */\n      add\n        /* \"#utility.yul\":2365:2411   */\n      swap2\n      pop\n        /* \"#utility.yul\":2132:2417   */\n      pop\n        /* \"#utility.yul\":2040:2417   */\n      swap3\n      swap2\n      pop\n      pop\n      jump\t// out\n        /* \"#utility.yul\":2423:3673   */\n    tag_14:\n        /* \"#utility.yul\":2764:2768   */\n      0x00\n        /* \"#utility.yul\":2802:2805   */\n      0xe0\n        /* \"#utility.yul\":2791:2800   */\n      dup3\n        /* \"#utility.yul\":2787:2806   */\n      add\n        /* \"#utility.yul\":2779:2806   */\n      swap1\n      pop\n        /* \"#utility.yul\":2816:2887   */\n      tag_215\n        /* \"#utility.yul\":2884:2885   */\n      0x00\n        /* \"#utility.yul\":2873:2882   */\n      dup4\n        /* \"#utility.yul\":2869:2886   */\n      add\n        /* \"#utility.yul\":2860:2866   */\n      dup11\n        /* \"#utility.yul\":2816:2887   */\n      tag_138\n      jump\t// in\n    tag_215:\n        /* \"#utility.yul\":2897:2969   */\n      tag_216\n        /* \"#utility.yul\":2965:2967   */\n      0x20\n        /* \"#utility.yul\":2954:2963   */\n      dup4\n        /* \"#utility.yul\":2950:2968   */\n      add\n        /* \"#utility.yul\":2941:2947   */\n      dup10\n        /* \"#utility.yul\":2897:2969   */\n      tag_141\n      jump\t// in\n    tag_216:\n        /* \"#utility.yul\":3016:3025   */\n      dup2\n        /* \"#utility.yul\":3010:3014   */\n      dup2\n        /* \"#utility.yul\":3006:3026   */\n      sub\n        /* \"#utility.yul\":3001:3003   */\n      0x40\n        /* \"#utility.yul\":2990:2999   */\n      dup4\n        /* \"#utility.yul\":2986:3004   */\n      add\n        /* \"#utility.yul\":2979:3027   */\n      mstore\n        /* \"#utility.yul\":3044:3122   */\n      tag_217\n        /* \"#utility.yul\":3117:3121   */\n      dup2\n        /* \"#utility.yul\":3108:3114   */\n      dup9\n        /* \"#utility.yul\":3044:3122   */\n      tag_146\n      jump\t// in\n    tag_217:\n        /* \"#utility.yul\":3036:3122   */\n      swap1\n      pop\n        /* \"#utility.yul\":3169:3178   */\n      dup2\n        /* \"#utility.yul\":3163:3167   */\n      dup2\n        /* \"#utility.yul\":3159:3179   */\n      sub\n        /* \"#utility.yul\":3154:3156   */\n      0x60\n        /* \"#utility.yul\":3143:3152   */\n      dup4\n        /* \"#utility.yul\":3139:3157   */\n      add\n        /* \"#utility.yul\":3132:3180   */\n      mstore\n        /* \"#utility.yul\":3197:3275   */\n      tag_218\n        /* \"#utility.yul\":3270:3274   */\n      dup2\n        /* \"#utility.yul\":3261:3267   */\n      dup8\n        /* \"#utility.yul\":3197:3275   */\n      tag_146\n      jump\t// in\n    tag_218:\n        /* \"#utility.yul\":3189:3275   */\n      swap1\n      pop\n        /* \"#utility.yul\":3323:3332   */\n      dup2\n        /* \"#utility.yul\":3317:3321   */\n      dup2\n        /* \"#utility.yul\":3313:3333   */\n      sub\n        /* \"#utility.yul\":3307:3310   */\n      0x80\n        /* \"#utility.yul\":3296:3305   */\n      dup4\n        /* \"#utility.yul\":3292:3311   */\n      add\n        /* \"#utility.yul\":3285:3334   */\n      mstore\n        /* \"#utility.yul\":3351:3429   */\n      tag_219\n        /* \"#utility.yul\":3424:3428   */\n      dup2\n        /* \"#utility.yul\":3415:3421   */\n      dup7\n        /* \"#utility.yul\":3351:3429   */\n      tag_146\n      jump\t// in\n    tag_219:\n        /* \"#utility.yul\":3343:3429   */\n      swap1\n      pop\n        /* \"#utility.yul\":3439:3512   */\n      tag_220\n        /* \"#utility.yul\":3507:3510   */\n      0xa0\n        /* \"#utility.yul\":3496:3505   */\n      dup4\n        /* \"#utility.yul\":3492:3511   */\n      add\n        /* \"#utility.yul\":3483:3489   */\n      dup6\n        /* \"#utility.yul\":3439:3512   */\n      tag_138\n      jump\t// in\n    tag_220:\n        /* \"#utility.yul\":3560:3569   */\n      dup2\n        /* \"#utility.yul\":3554:3558   */\n      dup2\n        /* \"#utility.yul\":3550:3570   */\n      sub\n        /* \"#utility.yul\":3544:3547   */\n      0xc0\n        /* \"#utility.yul\":3533:3542   */\n      dup4\n        /* \"#utility.yul\":3529:3548   */\n      add\n        /* \"#utility.yul\":3522:3571   */\n      mstore\n        /* \"#utility.yul\":3588:3666   */\n      tag_221\n        /* \"#utility.yul\":3661:3665   */\n      dup2\n        /* \"#utility.yul\":3652:3658   */\n      dup5\n        /* \"#utility.yul\":3588:3666   */\n      tag_146\n      jump\t// in\n    tag_221:\n        /* \"#utility.yul\":3580:3666   */\n      swap1\n      pop\n        /* \"#utility.yul\":2423:3673   */\n      swap9\n      swap8\n      pop\n      pop\n      pop\n      pop\n      pop\n      pop\n      pop\n      pop\n      jump\t// out\n        /* \"#utility.yul\":3679:3796   */\n    tag_147:\n        /* \"#utility.yul\":3788:3789   */\n      0x00\n        /* \"#utility.yul\":3785:3786   */\n      0x00\n        /* \"#utility.yul\":3778:3790   */\n      revert\n        /* \"#utility.yul\":3802:3919   */\n    tag_148:\n        /* \"#utility.yul\":3911:3912   */\n      0x00\n        /* \"#utility.yul\":3908:3909   */\n      0x00\n        /* \"#utility.yul\":3901:3913   */\n      revert\n        /* \"#utility.yul\":3925:4105   */\n    tag_71:\n        /* \"#utility.yul\":3973:4050   */\n      0x4e487b7100000000000000000000000000000000000000000000000000000000\n        /* \"#utility.yul\":3970:3971   */\n      0x00\n        /* \"#utility.yul\":3963:4051   */\n      mstore\n        /* \"#utility.yul\":4070:4074   */\n      0x41\n        /* \"#utility.yul\":4067:4068   */\n      0x04\n        /* \"#utility.yul\":4060:4075   */\n      mstore\n        /* \"#utility.yul\":4094:4098   */\n      0x24\n        /* \"#utility.yul\":4091:4092   */\n      0x00\n        /* \"#utility.yul\":4084:4099   */\n      revert\n        /* \"#utility.yul\":4111:4392   */\n    tag_149:\n        /* \"#utility.yul\":4194:4221   */\n      tag_226\n        /* \"#utility.yul\":4216:4220   */\n      dup3\n        /* \"#utility.yul\":4194:4221   */\n      tag_145\n      jump\t// in\n    tag_226:\n        /* \"#utility.yul\":4186:4192   */\n      dup2\n        /* \"#utility.yul\":4182:4222   */\n      add\n        /* \"#utility.yul\":4324:4330   */\n      dup2\n        /* \"#utility.yul\":4312:4322   */\n      dup2\n        /* \"#utility.yul\":4309:4331   */\n      lt\n        /* \"#utility.yul\":4288:4306   */\n      0xffffffffffffffff\n        /* \"#utility.yul\":4276:4286   */\n      dup3\n        /* \"#utility.yul\":4273:4307   */\n      gt\n        /* \"#utility.yul\":4270:4332   */\n      or\n        /* \"#utility.yul\":4267:4355   */\n      iszero\n      tag_227\n      jumpi\n        /* \"#utility.yul\":4335:4353   */\n      tag_228\n      tag_71\n      jump\t// in\n    tag_228:\n        /* \"#utility.yul\":4267:4355   */\n    tag_227:\n        /* \"#utility.yul\":4375:4385   */\n      dup1\n        /* \"#utility.yul\":4371:4373   */\n      0x40\n        /* \"#utility.yul\":4364:4386   */\n      mstore\n        /* \"#utility.yul\":4154:4392   */\n      pop\n        /* \"#utility.yul\":4111:4392   */\n      pop\n      pop\n      jump\t// out\n        /* \"#utility.yul\":4398:4527   */\n    tag_150:\n        /* \"#utility.yul\":4432:4438   */\n      0x00\n        /* \"#utility.yul\":4459:4479   */\n      tag_230\n      tag_132\n      jump\t// in\n    tag_230:\n        /* \"#utility.yul\":4449:4479   */\n      swap1\n      pop\n        /* \"#utility.yul\":4488:4521   */\n      tag_231\n        /* \"#utility.yul\":4516:4520   */\n      dup3\n        /* \"#utility.yul\":4508:4514   */\n      dup3\n        /* \"#utility.yul\":4488:4521   */\n      tag_149\n      jump\t// in\n    tag_231:\n        /* \"#utility.yul\":4398:4527   */\n      swap2\n      swap1\n      pop\n      jump\t// out\n        /* \"#utility.yul\":4533:4841   */\n    tag_151:\n        /* \"#utility.yul\":4595:4599   */\n      0x00\n        /* \"#utility.yul\":4685:4703   */\n      0xffffffffffffffff\n        /* \"#utility.yul\":4677:4683   */\n      dup3\n        /* \"#utility.yul\":4674:4704   */\n      gt\n        /* \"#utility.yul\":4671:4727   */\n      iszero\n      tag_233\n      jumpi\n        /* \"#utility.yul\":4707:4725   */\n      tag_234\n      tag_71\n      jump\t// in\n    tag_234:\n        /* \"#utility.yul\":4671:4727   */\n    tag_233:\n        /* \"#utility.yul\":4745:4774   */\n      tag_235\n        /* \"#utility.yul\":4767:4773   */\n      dup3\n        /* \"#utility.yul\":4745:4774   */\n      tag_145\n      jump\t// in\n    tag_235:\n        /* \"#utility.yul\":4737:4774   */\n      swap1\n      pop\n        /* \"#utility.yul\":4829:4833   */\n      0x20\n        /* \"#utility.yul\":4823:4827   */\n      dup2\n        /* \"#utility.yul\":4819:4834   */\n      add\n        /* \"#utility.yul\":4811:4834   */\n      swap1\n      pop\n        /* \"#utility.yul\":4533:4841   */\n      swap2\n      swap1\n      pop\n      jump\t// out\n        /* \"#utility.yul\":4847:4995   */\n    tag_152:\n        /* \"#utility.yul\":4945:4951   */\n      dup3\n        /* \"#utility.yul\":4940:4943   */\n      dup2\n        /* \"#utility.yul\":4935:4938   */\n      dup4\n        /* \"#utility.yul\":4922:4952   */\n      calldatacopy\n        /* \"#utility.yul\":4986:4987   */\n      0x00\n        /* \"#utility.yul\":4977:4983   */\n      dup4\n        /* \"#utility.yul\":4972:4975   */\n      dup4\n        /* \"#utility.yul\":4968:4984   */\n      add\n        /* \"#utility.yul\":4961:4988   */\n      mstore\n        /* \"#utility.yul\":4847:4995   */\n      pop\n      pop\n      pop\n      jump\t// out\n        /* \"#utility.yul\":5001:5426   */\n    tag_153:\n        /* \"#utility.yul\":5079:5084   */\n      0x00\n        /* \"#utility.yul\":5104:5170   */\n      tag_238\n        /* \"#utility.yul\":5120:5169   */\n      tag_239\n        /* \"#utility.yul\":5162:5168   */\n      dup5\n        /* \"#utility.yul\":5120:5169   */\n      tag_151\n      jump\t// in\n    tag_239:\n        /* \"#utility.yul\":5104:5170   */\n      tag_150\n      jump\t// in\n    tag_238:\n        /* \"#utility.yul\":5095:5170   */\n      swap1\n      pop\n        /* \"#utility.yul\":5193:5199   */\n      dup3\n        /* \"#utility.yul\":5186:5191   */\n      dup2\n        /* \"#utility.yul\":5179:5200   */\n      mstore\n        /* \"#utility.yul\":5231:5235   */\n      0x20\n        /* \"#utility.yul\":5224:5229   */\n      dup2\n        /* \"#utility.yul\":5220:5236   */\n      add\n        /* \"#utility.yul\":5269:5272   */\n      dup5\n        /* \"#utility.yul\":5260:5266   */\n      dup5\n        /* \"#utility.yul\":5255:5258   */\n      dup5\n        /* \"#utility.yul\":5251:5267   */\n      add\n        /* \"#utility.yul\":5248:5273   */\n      gt\n        /* \"#utility.yul\":5245:5357   */\n      iszero\n      tag_240\n      jumpi\n        /* \"#utility.yul\":5276:5355   */\n      tag_241\n      tag_148\n      jump\t// in\n    tag_241:\n        /* \"#utility.yul\":5245:5357   */\n    tag_240:\n        /* \"#utility.yul\":5366:5420   */\n      tag_242\n        /* \"#utility.yul\":5413:5419   */\n      dup5\n        /* \"#utility.yul\":5408:5411   */\n      dup3\n        /* \"#utility.yul\":5403:5406   */\n      dup6\n        /* \"#utility.yul\":5366:5420   */\n      tag_152\n      jump\t// in\n    tag_242:\n        /* \"#utility.yul\":5085:5426   */\n      pop\n        /* \"#utility.yul\":5001:5426   */\n      swap4\n      swap3\n      pop\n      pop\n      pop\n      jump\t// out\n        /* \"#utility.yul\":5446:5786   */\n    tag_154:\n        /* \"#utility.yul\":5502:5507   */\n      0x00\n        /* \"#utility.yul\":5551:5554   */\n      dup3\n        /* \"#utility.yul\":5544:5548   */\n      0x1f\n        /* \"#utility.yul\":5536:5542   */\n      dup4\n        /* \"#utility.yul\":5532:5549   */\n      add\n        /* \"#utility.yul\":5528:5555   */\n      slt\n        /* \"#utility.yul\":5518:5640   */\n      tag_244\n      jumpi\n        /* \"#utility.yul\":5559:5638   */\n      tag_245\n      tag_147\n      jump\t// in\n    tag_245:\n        /* \"#utility.yul\":5518:5640   */\n    tag_244:\n        /* \"#utility.yul\":5676:5682   */\n      dup2\n        /* \"#utility.yul\":5663:5683   */\n      calldataload\n        /* \"#utility.yul\":5701:5780   */\n      tag_246\n        /* \"#utility.yul\":5776:5779   */\n      dup5\n        /* \"#utility.yul\":5768:5774   */\n      dup3\n        /* \"#utility.yul\":5761:5765   */\n      0x20\n        /* \"#utility.yul\":5753:5759   */\n      dup7\n        /* \"#utility.yul\":5749:5766   */\n      add\n        /* \"#utility.yul\":5701:5780   */\n      tag_153\n      jump\t// in\n    tag_246:\n        /* \"#utility.yul\":5692:5780   */\n      swap2\n      pop\n        /* \"#utility.yul\":5508:5786   */\n      pop\n        /* \"#utility.yul\":5446:5786   */\n      swap3\n      swap2\n      pop\n      pop\n      jump\t// out\n        /* \"#utility.yul\":5792:7277   */\n    tag_17:\n        /* \"#utility.yul\":5918:5924   */\n      0x00\n        /* \"#utility.yul\":5926:5932   */\n      0x00\n        /* \"#utility.yul\":5934:5940   */\n      0x00\n        /* \"#utility.yul\":5942:5948   */\n      0x00\n        /* \"#utility.yul\":5991:5994   */\n      0x80\n        /* \"#utility.yul\":5979:5988   */\n      dup6\n        /* \"#utility.yul\":5970:5977   */\n      dup8\n        /* \"#utility.yul\":5966:5989   */\n      sub\n        /* \"#utility.yul\":5962:5995   */\n      slt\n        /* \"#utility.yul\":5959:6079   */\n      iszero\n      tag_248\n      jumpi\n        /* \"#utility.yul\":5998:6077   */\n      tag_249\n      tag_133\n      jump\t// in\n    tag_249:\n        /* \"#utility.yul\":5959:6079   */\n    tag_248:\n        /* \"#utility.yul\":6146:6147   */\n      0x00\n        /* \"#utility.yul\":6135:6144   */\n      dup6\n        /* \"#utility.yul\":6131:6148   */\n      add\n        /* \"#utility.yul\":6118:6149   */\n      calldataload\n        /* \"#utility.yul\":6176:6194   */\n      0xffffffffffffffff\n        /* \"#utility.yul\":6168:6174   */\n      dup2\n        /* \"#utility.yul\":6165:6195   */\n      gt\n        /* \"#utility.yul\":6162:6279   */\n      iszero\n      tag_250\n      jumpi\n        /* \"#utility.yul\":6198:6277   */\n      tag_251\n      tag_134\n      jump\t// in\n    tag_251:\n        /* \"#utility.yul\":6162:6279   */\n    tag_250:\n        /* \"#utility.yul\":6303:6366   */\n      tag_252\n        /* \"#utility.yul\":6358:6365   */\n      dup8\n        /* \"#utility.yul\":6349:6355   */\n      dup3\n        /* \"#utility.yul\":6338:6347   */\n      dup9\n        /* \"#utility.yul\":6334:6356   */\n      add\n        /* \"#utility.yul\":6303:6366   */\n      tag_154\n      jump\t// in\n    tag_252:\n        /* \"#utility.yul\":6293:6366   */\n      swap5\n      pop\n        /* \"#utility.yul\":6089:6376   */\n      pop\n        /* \"#utility.yul\":6443:6445   */\n      0x20\n        /* \"#utility.yul\":6432:6441   */\n      dup6\n        /* \"#utility.yul\":6428:6446   */\n      add\n        /* \"#utility.yul\":6415:6447   */\n      calldataload\n        /* \"#utility.yul\":6474:6492   */\n      0xffffffffffffffff\n        /* \"#utility.yul\":6466:6472   */\n      dup2\n        /* \"#utility.yul\":6463:6493   */\n      gt\n        /* \"#utility.yul\":6460:6577   */\n      iszero\n      tag_253\n      jumpi\n        /* \"#utility.yul\":6496:6575   */\n      tag_254\n      tag_134\n      jump\t// in\n    tag_254:\n        /* \"#utility.yul\":6460:6577   */\n    tag_253:\n        /* \"#utility.yul\":6601:6664   */\n      tag_255\n        /* \"#utility.yul\":6656:6663   */\n      dup8\n        /* \"#utility.yul\":6647:6653   */\n      dup3\n        /* \"#utility.yul\":6636:6645   */\n      dup9\n        /* \"#utility.yul\":6632:6654   */\n      add\n        /* \"#utility.yul\":6601:6664   */\n      tag_154\n      jump\t// in\n    tag_255:\n        /* \"#utility.yul\":6591:6664   */\n      swap4\n      pop\n        /* \"#utility.yul\":6386:6674   */\n      pop\n        /* \"#utility.yul\":6741:6743   */\n      0x40\n        /* \"#utility.yul\":6730:6739   */\n      dup6\n        /* \"#utility.yul\":6726:6744   */\n      add\n        /* \"#utility.yul\":6713:6745   */\n      calldataload\n        /* \"#utility.yul\":6772:6790   */\n      0xffffffffffffffff\n        /* \"#utility.yul\":6764:6770   */\n      dup2\n        /* \"#utility.yul\":6761:6791   */\n      gt\n        /* \"#utility.yul\":6758:6875   */\n      iszero\n      tag_256\n      jumpi\n        /* \"#utility.yul\":6794:6873   */\n      tag_257\n      tag_134\n      jump\t// in\n    tag_257:\n        /* \"#utility.yul\":6758:6875   */\n    tag_256:\n        /* \"#utility.yul\":6899:6962   */\n      tag_258\n        /* \"#utility.yul\":6954:6961   */\n      dup8\n        /* \"#utility.yul\":6945:6951   */\n      dup3\n        /* \"#utility.yul\":6934:6943   */\n      dup9\n        /* \"#utility.yul\":6930:6952   */\n      add\n        /* \"#utility.yul\":6899:6962   */\n      tag_154\n      jump\t// in\n    tag_258:\n        /* \"#utility.yul\":6889:6962   */\n      swap3\n      pop\n        /* \"#utility.yul\":6684:6972   */\n      pop\n        /* \"#utility.yul\":7039:7041   */\n      0x60\n        /* \"#utility.yul\":7028:7037   */\n      dup6\n        /* \"#utility.yul\":7024:7042   */\n      add\n        /* \"#utility.yul\":7011:7043   */\n      calldataload\n        /* \"#utility.yul\":7070:7088   */\n      0xffffffffffffffff\n        /* \"#utility.yul\":7062:7068   */\n      dup2\n        /* \"#utility.yul\":7059:7089   */\n      gt\n        /* \"#utility.yul\":7056:7173   */\n      iszero\n      tag_259\n      jumpi\n        /* \"#utility.yul\":7092:7171   */\n      tag_260\n      tag_134\n      jump\t// in\n    tag_260:\n        /* \"#utility.yul\":7056:7173   */\n    tag_259:\n        /* \"#utility.yul\":7197:7260   */\n      tag_261\n        /* \"#utility.yul\":7252:7259   */\n      dup8\n        /* \"#utility.yul\":7243:7249   */\n      dup3\n        /* \"#utility.yul\":7232:7241   */\n      dup9\n        /* \"#utility.yul\":7228:7250   */\n      add\n        /* \"#utility.yul\":7197:7260   */\n      tag_154\n      jump\t// in\n    tag_261:\n        /* \"#utility.yul\":7187:7260   */\n      swap2\n      pop\n        /* \"#utility.yul\":6982:7270   */\n      pop\n        /* \"#utility.yul\":5792:7277   */\n      swap3\n      swap6\n      swap2\n      swap5\n      pop\n      swap3\n      pop\n      jump\t// out\n        /* \"#utility.yul\":7283:7417   */\n    tag_155:\n        /* \"#utility.yul\":7370:7376   */\n      0x00\n        /* \"#utility.yul\":7404:7409   */\n      dup2\n        /* \"#utility.yul\":7398:7410   */\n      mload\n        /* \"#utility.yul\":7388:7410   */\n      swap1\n      pop\n        /* \"#utility.yul\":7283:7417   */\n      swap2\n      swap1\n      pop\n      jump\t// out\n        /* \"#utility.yul\":7423:7627   */\n    tag_156:\n        /* \"#utility.yul\":7542:7553   */\n      0x00\n        /* \"#utility.yul\":7576:7582   */\n      dup3\n        /* \"#utility.yul\":7571:7574   */\n      dup3\n        /* \"#utility.yul\":7564:7583   */\n      mstore\n        /* \"#utility.yul\":7616:7620   */\n      0x20\n        /* \"#utility.yul\":7611:7614   */\n      dup3\n        /* \"#utility.yul\":7607:7621   */\n      add\n        /* \"#utility.yul\":7592:7621   */\n      swap1\n      pop\n        /* \"#utility.yul\":7423:7627   */\n      swap3\n      swap2\n      pop\n      pop\n      jump\t// out\n        /* \"#utility.yul\":7633:7785   */\n    tag_157:\n        /* \"#utility.yul\":7720:7724   */\n      0x00\n        /* \"#utility.yul\":7743:7746   */\n      dup2\n        /* \"#utility.yul\":7735:7746   */\n      swap1\n      pop\n        /* \"#utility.yul\":7773:7777   */\n      0x20\n        /* \"#utility.yul\":7768:7771   */\n      dup3\n        /* \"#utility.yul\":7764:7778   */\n      add\n        /* \"#utility.yul\":7756:7778   */\n      swap1\n      pop\n        /* \"#utility.yul\":7633:7785   */\n      swap2\n      swap1\n      pop\n      jump\t// out\n        /* \"#utility.yul\":7791:7899   */\n    tag_158:\n        /* \"#utility.yul\":7868:7892   */\n      tag_266\n        /* \"#utility.yul\":7886:7891   */\n      dup2\n        /* \"#utility.yul\":7868:7892   */\n      tag_135\n      jump\t// in\n    tag_266:\n        /* \"#utility.yul\":7863:7866   */\n      dup3\n        /* \"#utility.yul\":7856:7893   */\n      mstore\n        /* \"#utility.yul\":7791:7899   */\n      pop\n      pop\n      jump\t// out\n        /* \"#utility.yul\":7905:8013   */\n    tag_159:\n        /* \"#utility.yul\":7982:8006   */\n      tag_268\n        /* \"#utility.yul\":8000:8005   */\n      dup2\n        /* \"#utility.yul\":7982:8006   */\n      tag_140\n      jump\t// in\n    tag_268:\n        /* \"#utility.yul\":7977:7980   */\n      dup3\n        /* \"#utility.yul\":7970:8007   */\n      mstore\n        /* \"#utility.yul\":7905:8013   */\n      pop\n      pop\n      jump\t// out\n        /* \"#utility.yul\":8019:8178   */\n    tag_160:\n        /* \"#utility.yul\":8093:8104   */\n      0x00\n        /* \"#utility.yul\":8127:8133   */\n      dup3\n        /* \"#utility.yul\":8122:8125   */\n      dup3\n        /* \"#utility.yul\":8115:8134   */\n      mstore\n        /* \"#utility.yul\":8167:8171   */\n      0x20\n        /* \"#utility.yul\":8162:8165   */\n      dup3\n        /* \"#utility.yul\":8158:8172   */\n      add\n        /* \"#utility.yul\":8143:8172   */\n      swap1\n      pop\n        /* \"#utility.yul\":8019:8178   */\n      swap3\n      swap2\n      pop\n      pop\n      jump\t// out\n        /* \"#utility.yul\":8184:8541   */\n    tag_161:\n        /* \"#utility.yul\":8262:8265   */\n      0x00\n        /* \"#utility.yul\":8290:8329   */\n      tag_271\n        /* \"#utility.yul\":8323:8328   */\n      dup3\n        /* \"#utility.yul\":8290:8329   */\n      tag_142\n      jump\t// in\n    tag_271:\n        /* \"#utility.yul\":8345:8406   */\n      tag_272\n        /* \"#utility.yul\":8399:8405   */\n      dup2\n        /* \"#utility.yul\":8394:8397   */\n      dup6\n        /* \"#utility.yul\":8345:8406   */\n      tag_160\n      jump\t// in\n    tag_272:\n        /* \"#utility.yul\":8338:8406   */\n      swap4\n      pop\n        /* \"#utility.yul\":8415:8480   */\n      tag_273\n        /* \"#utility.yul\":8473:8479   */\n      dup2\n        /* \"#utility.yul\":8468:8471   */\n      dup6\n        /* \"#utility.yul\":8461:8465   */\n      0x20\n        /* \"#utility.yul\":8454:8459   */\n      dup7\n        /* \"#utility.yul\":8450:8466   */\n      add\n        /* \"#utility.yul\":8415:8480   */\n      tag_144\n      jump\t// in\n    tag_273:\n        /* \"#utility.yul\":8505:8534   */\n      tag_274\n        /* \"#utility.yul\":8527:8533   */\n      dup2\n        /* \"#utility.yul\":8505:8534   */\n      tag_145\n      jump\t// in\n    tag_274:\n        /* \"#utility.yul\":8500:8503   */\n      dup5\n        /* \"#utility.yul\":8496:8535   */\n      add\n        /* \"#utility.yul\":8489:8535   */\n      swap2\n      pop\n        /* \"#utility.yul\":8266:8541   */\n      pop\n        /* \"#utility.yul\":8184:8541   */\n      swap3\n      swap2\n      pop\n      pop\n      jump\t// out\n        /* \"#utility.yul\":8617:10315   */\n    tag_162:\n        /* \"#utility.yul\":8716:8719   */\n      0x00\n        /* \"#utility.yul\":8752:8756   */\n      0xe0\n        /* \"#utility.yul\":8747:8750   */\n      dup4\n        /* \"#utility.yul\":8743:8757   */\n      add\n        /* \"#utility.yul\":8841:8845   */\n      0x00\n        /* \"#utility.yul\":8834:8839   */\n      dup4\n        /* \"#utility.yul\":8830:8846   */\n      add\n        /* \"#utility.yul\":8824:8847   */\n      mload\n        /* \"#utility.yul\":8860:8923   */\n      tag_276\n        /* \"#utility.yul\":8917:8921   */\n      0x00\n        /* \"#utility.yul\":8912:8915   */\n      dup7\n        /* \"#utility.yul\":8908:8922   */\n      add\n        /* \"#utility.yul\":8894:8906   */\n      dup3\n        /* \"#utility.yul\":8860:8923   */\n      tag_158\n      jump\t// in\n    tag_276:\n        /* \"#utility.yul\":8767:8933   */\n      pop\n        /* \"#utility.yul\":9022:9026   */\n      0x20\n        /* \"#utility.yul\":9015:9020   */\n      dup4\n        /* \"#utility.yul\":9011:9027   */\n      add\n        /* \"#utility.yul\":9005:9028   */\n      mload\n        /* \"#utility.yul\":9041:9104   */\n      tag_277\n        /* \"#utility.yul\":9098:9102   */\n      0x20\n        /* \"#utility.yul\":9093:9096   */\n      dup7\n        /* \"#utility.yul\":9089:9103   */\n      add\n        /* \"#utility.yul\":9075:9087   */\n      dup3\n        /* \"#utility.yul\":9041:9104   */\n      tag_159\n      jump\t// in\n    tag_277:\n        /* \"#utility.yul\":8943:9114   */\n      pop\n        /* \"#utility.yul\":9200:9204   */\n      0x40\n        /* \"#utility.yul\":9193:9198   */\n      dup4\n        /* \"#utility.yul\":9189:9205   */\n      add\n        /* \"#utility.yul\":9183:9206   */\n      mload\n        /* \"#utility.yul\":9253:9256   */\n      dup5\n        /* \"#utility.yul\":9247:9251   */\n      dup3\n        /* \"#utility.yul\":9243:9257   */\n      sub\n        /* \"#utility.yul\":9236:9240   */\n      0x40\n        /* \"#utility.yul\":9231:9234   */\n      dup7\n        /* \"#utility.yul\":9227:9241   */\n      add\n        /* \"#utility.yul\":9220:9258   */\n      mstore\n        /* \"#utility.yul\":9279:9352   */\n      tag_278\n        /* \"#utility.yul\":9347:9351   */\n      dup3\n        /* \"#utility.yul\":9333:9345   */\n      dup3\n        /* \"#utility.yul\":9279:9352   */\n      tag_161\n      jump\t// in\n    tag_278:\n        /* \"#utility.yul\":9271:9352   */\n      swap2\n      pop\n        /* \"#utility.yul\":9124:9363   */\n      pop\n        /* \"#utility.yul\":9450:9454   */\n      0x60\n        /* \"#utility.yul\":9443:9448   */\n      dup4\n        /* \"#utility.yul\":9439:9455   */\n      add\n        /* \"#utility.yul\":9433:9456   */\n      mload\n        /* \"#utility.yul\":9503:9506   */\n      dup5\n        /* \"#utility.yul\":9497:9501   */\n      dup3\n        /* \"#utility.yul\":9493:9507   */\n      sub\n        /* \"#utility.yul\":9486:9490   */\n      0x60\n        /* \"#utility.yul\":9481:9484   */\n      dup7\n        /* \"#utility.yul\":9477:9491   */\n      add\n        /* \"#utility.yul\":9470:9508   */\n      mstore\n        /* \"#utility.yul\":9529:9602   */\n      tag_279\n        /* \"#utility.yul\":9597:9601   */\n      dup3\n        /* \"#utility.yul\":9583:9595   */\n      dup3\n        /* \"#utility.yul\":9529:9602   */\n      tag_161\n      jump\t// in\n    tag_279:\n        /* \"#utility.yul\":9521:9602   */\n      swap2\n      pop\n        /* \"#utility.yul\":9373:9613   */\n      pop\n        /* \"#utility.yul\":9698:9702   */\n      0x80\n        /* \"#utility.yul\":9691:9696   */\n      dup4\n        /* \"#utility.yul\":9687:9703   */\n      add\n        /* \"#utility.yul\":9681:9704   */\n      mload\n        /* \"#utility.yul\":9751:9754   */\n      dup5\n        /* \"#utility.yul\":9745:9749   */\n      dup3\n        /* \"#utility.yul\":9741:9755   */\n      sub\n        /* \"#utility.yul\":9734:9738   */\n      0x80\n        /* \"#utility.yul\":9729:9732   */\n      dup7\n        /* \"#utility.yul\":9725:9739   */\n      add\n        /* \"#utility.yul\":9718:9756   */\n      mstore\n        /* \"#utility.yul\":9777:9850   */\n      tag_280\n        /* \"#utility.yul\":9845:9849   */\n      dup3\n        /* \"#utility.yul\":9831:9843   */\n      dup3\n        /* \"#utility.yul\":9777:9850   */\n      tag_161\n      jump\t// in\n    tag_280:\n        /* \"#utility.yul\":9769:9850   */\n      swap2\n      pop\n        /* \"#utility.yul\":9623:9861   */\n      pop\n        /* \"#utility.yul\":9948:9952   */\n      0xa0\n        /* \"#utility.yul\":9941:9946   */\n      dup4\n        /* \"#utility.yul\":9937:9953   */\n      add\n        /* \"#utility.yul\":9931:9954   */\n      mload\n        /* \"#utility.yul\":9967:10030   */\n      tag_281\n        /* \"#utility.yul\":10024:10028   */\n      0xa0\n        /* \"#utility.yul\":10019:10022   */\n      dup7\n        /* \"#utility.yul\":10015:10029   */\n      add\n        /* \"#utility.yul\":10001:10013   */\n      dup3\n        /* \"#utility.yul\":9967:10030   */\n      tag_158\n      jump\t// in\n    tag_281:\n        /* \"#utility.yul\":9871:10040   */\n      pop\n        /* \"#utility.yul\":10125:10129   */\n      0xc0\n        /* \"#utility.yul\":10118:10123   */\n      dup4\n        /* \"#utility.yul\":10114:10130   */\n      add\n        /* \"#utility.yul\":10108:10131   */\n      mload\n        /* \"#utility.yul\":10178:10181   */\n      dup5\n        /* \"#utility.yul\":10172:10176   */\n      dup3\n        /* \"#utility.yul\":10168:10182   */\n      sub\n        /* \"#utility.yul\":10161:10165   */\n      0xc0\n        /* \"#utility.yul\":10156:10159   */\n      dup7\n        /* \"#utility.yul\":10152:10166   */\n      add\n        /* \"#utility.yul\":10145:10183   */\n      mstore\n        /* \"#utility.yul\":10204:10277   */\n      tag_282\n        /* \"#utility.yul\":10272:10276   */\n      dup3\n        /* \"#utility.yul\":10258:10270   */\n      dup3\n        /* \"#utility.yul\":10204:10277   */\n      tag_161\n      jump\t// in\n    tag_282:\n        /* \"#utility.yul\":10196:10277   */\n      swap2\n      pop\n        /* \"#utility.yul\":10050:10288   */\n      pop\n        /* \"#utility.yul\":10305:10309   */\n      dup1\n        /* \"#utility.yul\":10298:10309   */\n      swap2\n      pop\n        /* \"#utility.yul\":8721:10315   */\n      pop\n        /* \"#utility.yul\":8617:10315   */\n      swap3\n      swap2\n      pop\n      pop\n      jump\t// out\n        /* \"#utility.yul\":10321:10557   */\n    tag_163:\n        /* \"#utility.yul\":10430:10440   */\n      0x00\n        /* \"#utility.yul\":10465:10551   */\n      tag_284\n        /* \"#utility.yul\":10547:10550   */\n      dup4\n        /* \"#utility.yul\":10539:10545   */\n      dup4\n        /* \"#utility.yul\":10465:10551   */\n      tag_162\n      jump\t// in\n    tag_284:\n        /* \"#utility.yul\":10451:10551   */\n      swap1\n      pop\n        /* \"#utility.yul\":10321:10557   */\n      swap3\n      swap2\n      pop\n      pop\n      jump\t// out\n        /* \"#utility.yul\":10563:10696   */\n    tag_164:\n        /* \"#utility.yul\":10653:10657   */\n      0x00\n        /* \"#utility.yul\":10685:10689   */\n      0x20\n        /* \"#utility.yul\":10680:10683   */\n      dup3\n        /* \"#utility.yul\":10676:10690   */\n      add\n        /* \"#utility.yul\":10668:10690   */\n      swap1\n      pop\n        /* \"#utility.yul\":10563:10696   */\n      swap2\n      swap1\n      pop\n      jump\t// out\n        /* \"#utility.yul\":10776:11847   */\n    tag_165:\n        /* \"#utility.yul\":10935:10938   */\n      0x00\n        /* \"#utility.yul\":10964:11038   */\n      tag_287\n        /* \"#utility.yul\":11032:11037   */\n      dup3\n        /* \"#utility.yul\":10964:11038   */\n      tag_155\n      jump\t// in\n    tag_287:\n        /* \"#utility.yul\":11054:11160   */\n      tag_288\n        /* \"#utility.yul\":11153:11159   */\n      dup2\n        /* \"#utility.yul\":11148:11151   */\n      dup6\n        /* \"#utility.yul\":11054:11160   */\n      tag_156\n      jump\t// in\n    tag_288:\n        /* \"#utility.yul\":11047:11160   */\n      swap4\n      pop\n        /* \"#utility.yul\":11186:11189   */\n      dup4\n        /* \"#utility.yul\":11231:11235   */\n      0x20\n        /* \"#utility.yul\":11223:11229   */\n      dup3\n        /* \"#utility.yul\":11219:11236   */\n      mul\n        /* \"#utility.yul\":11214:11217   */\n      dup6\n        /* \"#utility.yul\":11210:11237   */\n      add\n        /* \"#utility.yul\":11261:11337   */\n      tag_289\n        /* \"#utility.yul\":11331:11336   */\n      dup6\n        /* \"#utility.yul\":11261:11337   */\n      tag_157\n      jump\t// in\n    tag_289:\n        /* \"#utility.yul\":11360:11367   */\n      dup1\n        /* \"#utility.yul\":11391:11392   */\n      0x00\n        /* \"#utility.yul\":11376:11802   */\n    tag_290:\n        /* \"#utility.yul\":11401:11407   */\n      dup6\n        /* \"#utility.yul\":11398:11399   */\n      dup2\n        /* \"#utility.yul\":11395:11408   */\n      lt\n        /* \"#utility.yul\":11376:11802   */\n      iszero\n      tag_292\n      jumpi\n        /* \"#utility.yul\":11472:11481   */\n      dup5\n        /* \"#utility.yul\":11466:11470   */\n      dup5\n        /* \"#utility.yul\":11462:11482   */\n      sub\n        /* \"#utility.yul\":11457:11460   */\n      dup10\n        /* \"#utility.yul\":11450:11483   */\n      mstore\n        /* \"#utility.yul\":11523:11529   */\n      dup2\n        /* \"#utility.yul\":11517:11530   */\n      mload\n        /* \"#utility.yul\":11551:11655   */\n      tag_293\n        /* \"#utility.yul\":11650:11654   */\n      dup6\n        /* \"#utility.yul\":11635:11648   */\n      dup3\n        /* \"#utility.yul\":11551:11655   */\n      tag_163\n      jump\t// in\n    tag_293:\n        /* \"#utility.yul\":11543:11655   */\n      swap5\n      pop\n        /* \"#utility.yul\":11678:11758   */\n      tag_294\n        /* \"#utility.yul\":11751:11757   */\n      dup4\n        /* \"#utility.yul\":11678:11758   */\n      tag_164\n      jump\t// in\n    tag_294:\n        /* \"#utility.yul\":11668:11758   */\n      swap3\n      pop\n        /* \"#utility.yul\":11787:11791   */\n      0x20\n        /* \"#utility.yul\":11782:11785   */\n      dup11\n        /* \"#utility.yul\":11778:11792   */\n      add\n        /* \"#utility.yul\":11771:11792   */\n      swap10\n      pop\n        /* \"#utility.yul\":11436:11802   */\n      pop\n        /* \"#utility.yul\":11423:11424   */\n      0x01\n        /* \"#utility.yul\":11420:11421   */\n      dup2\n        /* \"#utility.yul\":11416:11425   */\n      add\n        /* \"#utility.yul\":11411:11425   */\n      swap1\n      pop\n        /* \"#utility.yul\":11376:11802   */\n      jump(tag_290)\n    tag_292:\n        /* \"#utility.yul\":11380:11394   */\n      pop\n        /* \"#utility.yul\":11818:11822   */\n      dup3\n        /* \"#utility.yul\":11811:11822   */\n      swap8\n      pop\n        /* \"#utility.yul\":11838:11841   */\n      dup8\n        /* \"#utility.yul\":11831:11841   */\n      swap6\n      pop\n        /* \"#utility.yul\":10940:11847   */\n      pop\n      pop\n      pop\n      pop\n      pop\n        /* \"#utility.yul\":10776:11847   */\n      swap3\n      swap2\n      pop\n      pop\n      jump\t// out\n        /* \"#utility.yul\":11853:12306   */\n    tag_22:\n        /* \"#utility.yul\":12036:12040   */\n      0x00\n        /* \"#utility.yul\":12074:12076   */\n      0x20\n        /* \"#utility.yul\":12063:12072   */\n      dup3\n        /* \"#utility.yul\":12059:12077   */\n      add\n        /* \"#utility.yul\":12051:12077   */\n      swap1\n      pop\n        /* \"#utility.yul\":12123:12132   */\n      dup2\n        /* \"#utility.yul\":12117:12121   */\n      dup2\n        /* \"#utility.yul\":12113:12133   */\n      sub\n        /* \"#utility.yul\":12109:12110   */\n      0x00\n        /* \"#utility.yul\":12098:12107   */\n      dup4\n        /* \"#utility.yul\":12094:12111   */\n      add\n        /* \"#utility.yul\":12087:12134   */\n      mstore\n        /* \"#utility.yul\":12151:12299   */\n      tag_296\n        /* \"#utility.yul\":12294:12298   */\n      dup2\n        /* \"#utility.yul\":12285:12291   */\n      dup5\n        /* \"#utility.yul\":12151:12299   */\n      tag_165\n      jump\t// in\n    tag_296:\n        /* \"#utility.yul\":12143:12299   */\n      swap1\n      pop\n        /* \"#utility.yul\":11853:12306   */\n      swap3\n      swap2\n      pop\n      pop\n      jump\t// out\n        /* \"#utility.yul\":12382:14090   */\n    tag_166:\n        /* \"#utility.yul\":12491:12494   */\n      0x00\n        /* \"#utility.yul\":12527:12531   */\n      0xe0\n        /* \"#utility.yul\":12522:12525   */\n      dup4\n        /* \"#utility.yul\":12518:12532   */\n      add\n        /* \"#utility.yul\":12616:12620   */\n      0x00\n        /* \"#utility.yul\":12609:12614   */\n      dup4\n        /* \"#utility.yul\":12605:12621   */\n      add\n        /* \"#utility.yul\":12599:12622   */\n      mload\n        /* \"#utility.yul\":12635:12698   */\n      tag_298\n        /* \"#utility.yul\":12692:12696   */\n      0x00\n        /* \"#utility.yul\":12687:12690   */\n      dup7\n        /* \"#utility.yul\":12683:12697   */\n      add\n        /* \"#utility.yul\":12669:12681   */\n      dup3\n        /* \"#utility.yul\":12635:12698   */\n      tag_158\n      jump\t// in\n    tag_298:\n        /* \"#utility.yul\":12542:12708   */\n      pop\n        /* \"#utility.yul\":12797:12801   */\n      0x20\n        /* \"#utility.yul\":12790:12795   */\n      dup4\n        /* \"#utility.yul\":12786:12802   */\n      add\n        /* \"#utility.yul\":12780:12803   */\n      mload\n        /* \"#utility.yul\":12816:12879   */\n      tag_299\n        /* \"#utility.yul\":12873:12877   */\n      0x20\n        /* \"#utility.yul\":12868:12871   */\n      dup7\n        /* \"#utility.yul\":12864:12878   */\n      add\n        /* \"#utility.yul\":12850:12862   */\n      dup3\n        /* \"#utility.yul\":12816:12879   */\n      tag_159\n      jump\t// in\n    tag_299:\n        /* \"#utility.yul\":12718:12889   */\n      pop\n        /* \"#utility.yul\":12975:12979   */\n      0x40\n        /* \"#utility.yul\":12968:12973   */\n      dup4\n        /* \"#utility.yul\":12964:12980   */\n      add\n        /* \"#utility.yul\":12958:12981   */\n      mload\n        /* \"#utility.yul\":13028:13031   */\n      dup5\n        /* \"#utility.yul\":13022:13026   */\n      dup3\n        /* \"#utility.yul\":13018:13032   */\n      sub\n        /* \"#utility.yul\":13011:13015   */\n      0x40\n        /* \"#utility.yul\":13006:13009   */\n      dup7\n        /* \"#utility.yul\":13002:13016   */\n      add\n        /* \"#utility.yul\":12995:13033   */\n      mstore\n        /* \"#utility.yul\":13054:13127   */\n      tag_300\n        /* \"#utility.yul\":13122:13126   */\n      dup3\n        /* \"#utility.yul\":13108:13120   */\n      dup3\n        /* \"#utility.yul\":13054:13127   */\n      tag_161\n      jump\t// in\n    tag_300:\n        /* \"#utility.yul\":13046:13127   */\n      swap2\n      pop\n        /* \"#utility.yul\":12899:13138   */\n      pop\n        /* \"#utility.yul\":13225:13229   */\n      0x60\n        /* \"#utility.yul\":13218:13223   */\n      dup4\n        /* \"#utility.yul\":13214:13230   */\n      add\n        /* \"#utility.yul\":13208:13231   */\n      mload\n        /* \"#utility.yul\":13278:13281   */\n      dup5\n        /* \"#utility.yul\":13272:13276   */\n      dup3\n        /* \"#utility.yul\":13268:13282   */\n      sub\n        /* \"#utility.yul\":13261:13265   */\n      0x60\n        /* \"#utility.yul\":13256:13259   */\n      dup7\n        /* \"#utility.yul\":13252:13266   */\n      add\n        /* \"#utility.yul\":13245:13283   */\n      mstore\n        /* \"#utility.yul\":13304:13377   */\n      tag_301\n        /* \"#utility.yul\":13372:13376   */\n      dup3\n        /* \"#utility.yul\":13358:13370   */\n      dup3\n        /* \"#utility.yul\":13304:13377   */\n      tag_161\n      jump\t// in\n    tag_301:\n        /* \"#utility.yul\":13296:13377   */\n      swap2\n      pop\n        /* \"#utility.yul\":13148:13388   */\n      pop\n        /* \"#utility.yul\":13473:13477   */\n      0x80\n        /* \"#utility.yul\":13466:13471   */\n      dup4\n        /* \"#utility.yul\":13462:13478   */\n      add\n        /* \"#utility.yul\":13456:13479   */\n      mload\n        /* \"#utility.yul\":13526:13529   */\n      dup5\n        /* \"#utility.yul\":13520:13524   */\n      dup3\n        /* \"#utility.yul\":13516:13530   */\n      sub\n        /* \"#utility.yul\":13509:13513   */\n      0x80\n        /* \"#utility.yul\":13504:13507   */\n      dup7\n        /* \"#utility.yul\":13500:13514   */\n      add\n        /* \"#utility.yul\":13493:13531   */\n      mstore\n        /* \"#utility.yul\":13552:13625   */\n      tag_302\n        /* \"#utility.yul\":13620:13624   */\n      dup3\n        /* \"#utility.yul\":13606:13618   */\n      dup3\n        /* \"#utility.yul\":13552:13625   */\n      tag_161\n      jump\t// in\n    tag_302:\n        /* \"#utility.yul\":13544:13625   */\n      swap2\n      pop\n        /* \"#utility.yul\":13398:13636   */\n      pop\n        /* \"#utility.yul\":13723:13727   */\n      0xa0\n        /* \"#utility.yul\":13716:13721   */\n      dup4\n        /* \"#utility.yul\":13712:13728   */\n      add\n        /* \"#utility.yul\":13706:13729   */\n      mload\n        /* \"#utility.yul\":13742:13805   */\n      tag_303\n        /* \"#utility.yul\":13799:13803   */\n      0xa0\n        /* \"#utility.yul\":13794:13797   */\n      dup7\n        /* \"#utility.yul\":13790:13804   */\n      add\n        /* \"#utility.yul\":13776:13788   */\n      dup3\n        /* \"#utility.yul\":13742:13805   */\n      tag_158\n      jump\t// in\n    tag_303:\n        /* \"#utility.yul\":13646:13815   */\n      pop\n        /* \"#utility.yul\":13900:13904   */\n      0xc0\n        /* \"#utility.yul\":13893:13898   */\n      dup4\n        /* \"#utility.yul\":13889:13905   */\n      add\n        /* \"#utility.yul\":13883:13906   */\n      mload\n        /* \"#utility.yul\":13953:13956   */\n      dup5\n        /* \"#utility.yul\":13947:13951   */\n      dup3\n        /* \"#utility.yul\":13943:13957   */\n      sub\n        /* \"#utility.yul\":13936:13940   */\n      0xc0\n        /* \"#utility.yul\":13931:13934   */\n      dup7\n        /* \"#utility.yul\":13927:13941   */\n      add\n        /* \"#utility.yul\":13920:13958   */\n      mstore\n        /* \"#utility.yul\":13979:14052   */\n      tag_304\n        /* \"#utility.yul\":14047:14051   */\n      dup3\n        /* \"#utility.yul\":14033:14045   */\n      dup3\n        /* \"#utility.yul\":13979:14052   */\n      tag_161\n      jump\t// in\n    tag_304:\n        /* \"#utility.yul\":13971:14052   */\n      swap2\n      pop\n        /* \"#utility.yul\":13825:14063   */\n      pop\n        /* \"#utility.yul\":14080:14084   */\n      dup1\n        /* \"#utility.yul\":14073:14084   */\n      swap2\n      pop\n        /* \"#utility.yul\":12496:14090   */\n      pop\n        /* \"#utility.yul\":12382:14090   */\n      swap3\n      swap2\n      pop\n      pop\n      jump\t// out\n        /* \"#utility.yul\":14096:14449   */\n    tag_27:\n        /* \"#utility.yul\":14229:14233   */\n      0x00\n        /* \"#utility.yul\":14267:14269   */\n      0x20\n        /* \"#utility.yul\":14256:14265   */\n      dup3\n        /* \"#utility.yul\":14252:14270   */\n      add\n        /* \"#utility.yul\":14244:14270   */\n      swap1\n      pop\n        /* \"#utility.yul\":14316:14325   */\n      dup2\n        /* \"#utility.yul\":14310:14314   */\n      dup2\n        /* \"#utility.yul\":14306:14326   */\n      sub\n        /* \"#utility.yul\":14302:14303   */\n      0x00\n        /* \"#utility.yul\":14291:14300   */\n      dup4\n        /* \"#utility.yul\":14287:14304   */\n      add\n        /* \"#utility.yul\":14280:14327   */\n      mstore\n        /* \"#utility.yul\":14344:14442   */\n      tag_306\n        /* \"#utility.yul\":14437:14441   */\n      dup2\n        /* \"#utility.yul\":14428:14434   */\n      dup5\n        /* \"#utility.yul\":14344:14442   */\n      tag_166\n      jump\t// in\n    tag_306:\n        /* \"#utility.yul\":14336:14442   */\n      swap1\n      pop\n        /* \"#utility.yul\":14096:14449   */\n      swap3\n      swap2\n      pop\n      pop\n      jump\t// out\n        /* \"#utility.yul\":14455:14677   */\n    tag_32:\n        /* \"#utility.yul\":14548:14552   */\n      0x00\n        /* \"#utility.yul\":14586:14588   */\n      0x20\n        /* \"#utility.yul\":14575:14584   */\n      dup3\n        /* \"#utility.yul\":14571:14589   */\n      add\n        /* \"#utility.yul\":14563:14589   */\n      swap1\n      pop\n        /* \"#utility.yul\":14599:14670   */\n      tag_308\n        /* \"#utility.yul\":14667:14668   */\n      0x00\n        /* \"#utility.yul\":14656:14665   */\n      dup4\n        /* \"#utility.yul\":14652:14669   */\n      add\n        /* \"#utility.yul\":14643:14649   */\n      dup5\n        /* \"#utility.yul\":14599:14670   */\n      tag_138\n      jump\t// in\n    tag_308:\n        /* \"#utility.yul\":14455:14677   */\n      swap3\n      swap2\n      pop\n      pop\n      jump\t// out\n        /* \"#utility.yul\":14683:14863   */\n    tag_167:\n        /* \"#utility.yul\":14731:14808   */\n      0x4e487b7100000000000000000000000000000000000000000000000000000000\n        /* \"#utility.yul\":14728:14729   */\n      0x00\n        /* \"#utility.yul\":14721:14809   */\n      mstore\n        /* \"#utility.yul\":14828:14832   */\n      0x22\n        /* \"#utility.yul\":14825:14826   */\n      0x04\n        /* \"#utility.yul\":14818:14833   */\n      mstore\n        /* \"#utility.yul\":14852:14856   */\n      0x24\n        /* \"#utility.yul\":14849:14850   */\n      0x00\n        /* \"#utility.yul\":14842:14857   */\n      revert\n        /* \"#utility.yul\":14869:15189   */\n    tag_37:\n        /* \"#utility.yul\":14913:14919   */\n      0x00\n        /* \"#utility.yul\":14950:14951   */\n      0x02\n        /* \"#utility.yul\":14944:14948   */\n      dup3\n        /* \"#utility.yul\":14940:14952   */\n      div\n        /* \"#utility.yul\":14930:14952   */\n      swap1\n      pop\n        /* \"#utility.yul\":14997:14998   */\n      0x01\n        /* \"#utility.yul\":14991:14995   */\n      dup3\n        /* \"#utility.yul\":14987:14999   */\n      and\n        /* \"#utility.yul\":15018:15036   */\n      dup1\n        /* \"#utility.yul\":15008:15089   */\n      tag_311\n      jumpi\n        /* \"#utility.yul\":15074:15078   */\n      0x7f\n        /* \"#utility.yul\":15066:15072   */\n      dup3\n        /* \"#utility.yul\":15062:15079   */\n      and\n        /* \"#utility.yul\":15052:15079   */\n      swap2\n      pop\n        /* \"#utility.yul\":15008:15089   */\n    tag_311:\n        /* \"#utility.yul\":15136:15138   */\n      0x20\n        /* \"#utility.yul\":15128:15134   */\n      dup3\n        /* \"#utility.yul\":15125:15139   */\n      lt\n        /* \"#utility.yul\":15105:15123   */\n      dup2\n        /* \"#utility.yul\":15102:15140   */\n      sub\n        /* \"#utility.yul\":15099:15183   */\n      tag_312\n      jumpi\n        /* \"#utility.yul\":15155:15173   */\n      tag_313\n      tag_167\n      jump\t// in\n    tag_313:\n        /* \"#utility.yul\":15099:15183   */\n    tag_312:\n        /* \"#utility.yul\":14920:15189   */\n      pop\n        /* \"#utility.yul\":14869:15189   */\n      swap2\n      swap1\n      pop\n      jump\t// out\n        /* \"#utility.yul\":15195:15336   */\n    tag_168:\n        /* \"#utility.yul\":15244:15248   */\n      0x00\n        /* \"#utility.yul\":15267:15270   */\n      dup2\n        /* \"#utility.yul\":15259:15270   */\n      swap1\n      pop\n        /* \"#utility.yul\":15290:15293   */\n      dup2\n        /* \"#utility.yul\":15287:15288   */\n      0x00\n        /* \"#utility.yul\":15280:15294   */\n      mstore\n        /* \"#utility.yul\":15324:15328   */\n      0x20\n        /* \"#utility.yul\":15321:15322   */\n      0x00\n        /* \"#utility.yul\":15311:15329   */\n      keccak256\n        /* \"#utility.yul\":15303:15329   */\n      swap1\n      pop\n        /* \"#utility.yul\":15195:15336   */\n      swap2\n      swap1\n      pop\n      jump\t// out\n        /* \"#utility.yul\":15342:15435   */\n    tag_169:\n        /* \"#utility.yul\":15379:15385   */\n      0x00\n        /* \"#utility.yul\":15426:15428   */\n      0x20\n        /* \"#utility.yul\":15421:15423   */\n      0x1f\n        /* \"#utility.yul\":15414:15419   */\n      dup4\n        /* \"#utility.yul\":15410:15424   */\n      add\n        /* \"#utility.yul\":15406:15429   */\n      div\n        /* \"#utility.yul\":15396:15429   */\n      swap1\n      pop\n        /* \"#utility.yul\":15342:15435   */\n      swap2\n      swap1\n      pop\n      jump\t// out\n        /* \"#utility.yul\":15441:15548   */\n    tag_170:\n        /* \"#utility.yul\":15485:15493   */\n      0x00\n        /* \"#utility.yul\":15535:15540   */\n      dup3\n        /* \"#utility.yul\":15529:15533   */\n      dup3\n        /* \"#utility.yul\":15525:15541   */\n      shl\n        /* \"#utility.yul\":15504:15541   */\n      swap1\n      pop\n        /* \"#utility.yul\":15441:15548   */\n      swap3\n      swap2\n      pop\n      pop\n      jump\t// out\n        /* \"#utility.yul\":15554:15947   */\n    tag_171:\n        /* \"#utility.yul\":15623:15629   */\n      0x00\n        /* \"#utility.yul\":15673:15674   */\n      0x08\n        /* \"#utility.yul\":15661:15671   */\n      dup4\n        /* \"#utility.yul\":15657:15675   */\n      mul\n        /* \"#utility.yul\":15696:15793   */\n      tag_318\n        /* \"#utility.yul\":15726:15792   */\n      0xffffffffffffffffffffffffffffffffffffffffffffffffffffffffffffffff\n        /* \"#utility.yul\":15715:15724   */\n      dup3\n        /* \"#utility.yul\":15696:15793   */\n      tag_170\n      jump\t// in\n    tag_318:\n        /* \"#utility.yul\":15814:15853   */\n      tag_319\n        /* \"#utility.yul\":15844:15852   */\n      dup7\n        /* \"#utility.yul\":15833:15842   */\n      dup4\n        /* \"#utility.yul\":15814:15853   */\n      tag_170\n      jump\t// in\n    tag_319:\n        /* \"#utility.yul\":15802:15853   */\n      swap6\n      pop\n        /* \"#utility.yul\":15886:15890   */\n      dup1\n        /* \"#utility.yul\":15882:15891   */\n      not\n        /* \"#utility.yul\":15875:15880   */\n      dup5\n        /* \"#utility.yul\":15871:15892   */\n      and\n        /* \"#utility.yul\":15862:15892   */\n      swap4\n      pop\n        /* \"#utility.yul\":15935:15939   */\n      dup1\n        /* \"#utility.yul\":15925:15933   */\n      dup7\n        /* \"#utility.yul\":15921:15940   */\n      and\n        /* \"#utility.yul\":15914:15919   */\n      dup5\n        /* \"#utility.yul\":15911:15941   */\n      or\n        /* \"#utility.yul\":15901:15941   */\n      swap3\n      pop\n        /* \"#utility.yul\":15630:15947   */\n      pop\n      pop\n        /* \"#utility.yul\":15554:15947   */\n      swap4\n      swap3\n      pop\n      pop\n      pop\n      jump\t// out\n        /* \"#utility.yul\":15953:16013   */\n    tag_172:\n        /* \"#utility.yul\":15981:15984   */\n      0x00\n        /* \"#utility.yul\":16002:16007   */\n      dup2\n        /* \"#utility.yul\":15995:16007   */\n      swap1\n      pop\n        /* \"#utility.yul\":15953:16013   */\n      swap2\n      swap1\n      pop\n      jump\t// out\n        /* \"#utility.yul\":16019:16161   */\n    tag_173:\n        /* \"#utility.yul\":16069:16078   */\n      0x00\n        /* \"#utility.yul\":16102:16155   */\n      tag_322\n        /* \"#utility.yul\":16120:16154   */\n      tag_323\n        /* \"#utility.yul\":16129:16153   */\n      tag_324\n        /* \"#utility.yul\":16147:16152   */\n      dup5\n        /* \"#utility.yul\":16129:16153   */\n      tag_135\n      jump\t// in\n    tag_324:\n        /* \"#utility.yul\":16120:16154   */\n      tag_172\n      jump\t// in\n    tag_323:\n        /* \"#utility.yul\":16102:16155   */\n      tag_135\n      jump\t// in\n    tag_322:\n        /* \"#utility.yul\":16089:16155   */\n      swap1\n      pop\n        /* \"#utility.yul\":16019:16161   */\n      swap2\n      swap1\n      pop\n      jump\t// out\n        /* \"#utility.yul\":16167:16242   */\n    tag_174:\n        /* \"#utility.yul\":16210:16213   */\n      0x00\n        /* \"#utility.yul\":16231:16236   */\n      dup2\n        /* \"#utility.yul\":16224:16236   */\n      swap1\n      pop\n        /* \"#utility.yul\":16167:16242   */\n      swap2\n      swap1\n      pop\n      jump\t// out\n        /* \"#utility.yul\":16248:16517   */\n    tag_175:\n        /* \"#utility.yul\":16358:16397   */\n      tag_327\n        /* \"#utility.yul\":16389:16396   */\n      dup4\n        /* \"#utility.yul\":16358:16397   */\n      tag_173\n      jump\t// in\n    tag_327:\n        /* \"#utility.yul\":16419:16510   */\n      tag_328\n        /* \"#utility.yul\":16468:16509   */\n      tag_329\n        /* \"#utility.yul\":16492:16508   */\n      dup3\n        /* \"#utility.yul\":16468:16509   */\n      tag_174\n      jump\t// in\n    tag_329:\n        /* \"#utility.yul\":16460:16466   */\n      dup5\n        /* \"#utility.yul\":16453:16457   */\n      dup5\n        /* \"#utility.yul\":16447:16458   */\n      sload\n        /* \"#utility.yul\":16419:16510   */\n      tag_171\n      jump\t// in\n    tag_328:\n        /* \"#utility.yul\":16413:16417   */\n      dup3\n        /* \"#utility.yul\":16406:16511   */\n      sstore\n        /* \"#utility.yul\":16324:16517   */\n      pop\n        /* \"#utility.yul\":16248:16517   */\n      pop\n      pop\n      pop\n      jump\t// out\n        /* \"#utility.yul\":16523:16596   */\n    tag_176:\n        /* \"#utility.yul\":16568:16571   */\n      0x00\n        /* \"#utility.yul\":16589:16590   */\n      0x00\n        /* \"#utility.yul\":16582:16590   */\n      swap1\n      pop\n        /* \"#utility.yul\":16523:16596   */\n      swap1\n      jump\t// out\n        /* \"#utility.yul\":16602:16791   */\n    tag_177:\n        /* \"#utility.yul\":16679:16711   */\n      tag_332\n      tag_176\n      jump\t// in\n    tag_332:\n        /* \"#utility.yul\":16720:16785   */\n      tag_333\n        /* \"#utility.yul\":16778:16784   */\n      dup2\n        /* \"#utility.yul\":16770:16776   */\n      dup5\n        /* \"#utility.yul\":16764:16768   */\n      dup5\n        /* \"#utility.yul\":16720:16785   */\n      tag_175\n      jump\t// in\n    tag_333:\n        /* \"#utility.yul\":16655:16791   */\n      pop\n        /* \"#utility.yul\":16602:16791   */\n      pop\n      pop\n      jump\t// out\n        /* \"#utility.yul\":16797:16983   */\n    tag_178:\n        /* \"#utility.yul\":16857:16977   */\n    tag_335:\n        /* \"#utility.yul\":16874:16877   */\n      dup2\n        /* \"#utility.yul\":16867:16872   */\n      dup2\n        /* \"#utility.yul\":16864:16878   */\n      lt\n        /* \"#utility.yul\":16857:16977   */\n      iszero\n      tag_337\n      jumpi\n        /* \"#utility.yul\":16928:16967   */\n      tag_338\n        /* \"#utility.yul\":16965:16966   */\n      0x00\n        /* \"#utility.yul\":16958:16963   */\n      dup3\n        /* \"#utility.yul\":16928:16967   */\n      tag_177\n      jump\t// in\n    tag_338:\n        /* \"#utility.yul\":16901:16902   */\n      0x01\n        /* \"#utility.yul\":16894:16899   */\n      dup2\n        /* \"#utility.yul\":16890:16903   */\n      add\n        /* \"#utility.yul\":16881:16903   */\n      swap1\n      pop\n        /* \"#utility.yul\":16857:16977   */\n      jump(tag_335)\n    tag_337:\n        /* \"#utility.yul\":16797:16983   */\n      pop\n      pop\n      jump\t// out\n        /* \"#utility.yul\":16989:17532   */\n    tag_179:\n        /* \"#utility.yul\":17090:17092   */\n      0x1f\n        /* \"#utility.yul\":17085:17088   */\n      dup3\n        /* \"#utility.yul\":17082:17093   */\n      gt\n        /* \"#utility.yul\":17079:17525   */\n      iszero\n      tag_340\n      jumpi\n        /* \"#utility.yul\":17124:17162   */\n      tag_341\n        /* \"#utility.yul\":17156:17161   */\n      dup2\n        /* \"#utility.yul\":17124:17162   */\n      tag_168\n      jump\t// in\n    tag_341:\n        /* \"#utility.yul\":17208:17237   */\n      tag_342\n        /* \"#utility.yul\":17226:17236   */\n      dup5\n        /* \"#utility.yul\":17208:17237   */\n      tag_169\n      jump\t// in\n    tag_342:\n        /* \"#utility.yul\":17198:17206   */\n      dup2\n        /* \"#utility.yul\":17194:17238   */\n      add\n        /* \"#utility.yul\":17391:17393   */\n      0x20\n        /* \"#utility.yul\":17379:17389   */\n      dup6\n        /* \"#utility.yul\":17376:17394   */\n      lt\n        /* \"#utility.yul\":17373:17422   */\n      iszero\n      tag_343\n      jumpi\n        /* \"#utility.yul\":17412:17420   */\n      dup2\n        /* \"#utility.yul\":17397:17420   */\n      swap1\n      pop\n        /* \"#utility.yul\":17373:17422   */\n    tag_343:\n        /* \"#utility.yul\":17435:17515   */\n      tag_344\n        /* \"#utility.yul\":17491:17513   */\n      tag_345\n        /* \"#utility.yul\":17509:17512   */\n      dup6\n        /* \"#utility.yul\":17491:17513   */\n      tag_169\n      jump\t// in\n    tag_345:\n        /* \"#utility.yul\":17481:17489   */\n      dup4\n        /* \"#utility.yul\":17477:17514   */\n      add\n        /* \"#utility.yul\":17464:17475   */\n      dup3\n        /* \"#utility.yul\":17435:17515   */\n      tag_178\n      jump\t// in\n    tag_344:\n        /* \"#utility.yul\":17094:17525   */\n      pop\n      pop\n        /* \"#utility.yul\":17079:17525   */\n    tag_340:\n        /* \"#utility.yul\":16989:17532   */\n      pop\n      pop\n      pop\n      jump\t// out\n        /* \"#utility.yul\":17538:17655   */\n    tag_180:\n        /* \"#utility.yul\":17592:17600   */\n      0x00\n        /* \"#utility.yul\":17642:17647   */\n      dup3\n        /* \"#utility.yul\":17636:17640   */\n      dup3\n        /* \"#utility.yul\":17632:17648   */\n      shr\n        /* \"#utility.yul\":17611:17648   */\n      swap1\n      pop\n        /* \"#utility.yul\":17538:17655   */\n      swap3\n      swap2\n      pop\n      pop\n      jump\t// out\n        /* \"#utility.yul\":17661:17830   */\n    tag_181:\n        /* \"#utility.yul\":17705:17711   */\n      0x00\n        /* \"#utility.yul\":17738:17789   */\n      tag_348\n        /* \"#utility.yul\":17786:17787   */\n      0x00\n        /* \"#utility.yul\":17782:17788   */\n      not\n        /* \"#utility.yul\":17774:17779   */\n      dup5\n        /* \"#utility.yul\":17771:17772   */\n      0x08\n        /* \"#utility.yul\":17767:17780   */\n      mul\n        /* \"#utility.yul\":17738:17789   */\n      tag_180\n      jump\t// in\n    tag_348:\n        /* \"#utility.yul\":17734:17790   */\n      not\n        /* \"#utility.yul\":17819:17823   */\n      dup1\n        /* \"#utility.yul\":17813:17817   */\n      dup4\n        /* \"#utility.yul\":17809:17824   */\n      and\n        /* \"#utility.yul\":17799:17824   */\n      swap2\n      pop\n        /* \"#utility.yul\":17712:17830   */\n      pop\n        /* \"#utility.yul\":17661:17830   */\n      swap3\n      swap2\n      pop\n      pop\n      jump\t// out\n        /* \"#utility.yul\":17835:18130   */\n    tag_182:\n        /* \"#utility.yul\":17911:17915   */\n      0x00\n        /* \"#utility.yul\":18057:18086   */\n      tag_350\n        /* \"#utility.yul\":18082:18085   */\n      dup4\n        /* \"#utility.yul\":18076:18080   */\n      dup4\n        /* \"#utility.yul\":18057:18086   */\n      tag_181\n      jump\t// in\n    tag_350:\n        /* \"#utility.yul\":18049:18086   */\n      swap2\n      pop\n        /* \"#utility.yul\":18119:18122   */\n      dup3\n        /* \"#utility.yul\":18116:18117   */\n      0x02\n        /* \"#utility.yul\":18112:18123   */\n      mul\n        /* \"#utility.yul\":18106:18110   */\n      dup3\n        /* \"#utility.yul\":18103:18124   */\n      or\n        /* \"#utility.yul\":18095:18124   */\n      swap1\n      pop\n        /* \"#utility.yul\":17835:18130   */\n      swap3\n      swap2\n      pop\n      pop\n      jump\t// out\n        /* \"#utility.yul\":18135:19530   */\n    tag_59:\n        /* \"#utility.yul\":18252:18289   */\n      tag_352\n        /* \"#utility.yul\":18285:18288   */\n      dup3\n        /* \"#utility.yul\":18252:18289   */\n      tag_142\n      jump\t// in\n    tag_352:\n        /* \"#utility.yul\":18354:18372   */\n      0xffffffffffffffff\n        /* \"#utility.yul\":18346:18352   */\n      dup2\n        /* \"#utility.yul\":18343:18373   */\n      gt\n        /* \"#utility.yul\":18340:18396   */\n      iszero\n      tag_353\n      jumpi\n        /* \"#utility.yul\":18376:18394   */\n      tag_354\n      tag_71\n      jump\t// in\n    tag_354:\n        /* \"#utility.yul\":18340:18396   */\n    tag_353:\n        /* \"#utility.yul\":18420:18458   */\n      tag_355\n        /* \"#utility.yul\":18452:18456   */\n      dup3\n        /* \"#utility.yul\":18446:18457   */\n      sload\n        /* \"#utility.yul\":18420:18458   */\n      tag_37\n      jump\t// in\n    tag_355:\n        /* \"#utility.yul\":18505:18572   */\n      tag_356\n        /* \"#utility.yul\":18565:18571   */\n      dup3\n        /* \"#utility.yul\":18557:18563   */\n      dup3\n        /* \"#utility.yul\":18551:18555   */\n      dup6\n        /* \"#utility.yul\":18505:18572   */\n      tag_179\n      jump\t// in\n    tag_356:\n        /* \"#utility.yul\":18599:18600   */\n      0x00\n        /* \"#utility.yul\":18623:18627   */\n      0x20\n        /* \"#utility.yul\":18610:18627   */\n      swap1\n      pop\n        /* \"#utility.yul\":18655:18657   */\n      0x1f\n        /* \"#utility.yul\":18647:18653   */\n      dup4\n        /* \"#utility.yul\":18644:18658   */\n      gt\n        /* \"#utility.yul\":18672:18673   */\n      0x01\n        /* \"#utility.yul\":18667:19285   */\n      dup2\n      eq\n      tag_358\n      jumpi\n        /* \"#utility.yul\":19329:19330   */\n      0x00\n        /* \"#utility.yul\":19346:19352   */\n      dup5\n        /* \"#utility.yul\":19343:19420   */\n      iszero\n      tag_359\n      jumpi\n        /* \"#utility.yul\":19395:19404   */\n      dup3\n        /* \"#utility.yul\":19390:19393   */\n      dup8\n        /* \"#utility.yul\":19386:19405   */\n      add\n        /* \"#utility.yul\":19380:19406   */\n      mload\n        /* \"#utility.yul\":19371:19406   */\n      swap1\n      pop\n        /* \"#utility.yul\":19343:19420   */\n    tag_359:\n        /* \"#utility.yul\":19446:19513   */\n      tag_360\n        /* \"#utility.yul\":19506:19512   */\n      dup6\n        /* \"#utility.yul\":19499:19504   */\n      dup3\n        /* \"#utility.yul\":19446:19513   */\n      tag_182\n      jump\t// in\n    tag_360:\n        /* \"#utility.yul\":19440:19444   */\n      dup7\n        /* \"#utility.yul\":19433:19514   */\n      sstore\n        /* \"#utility.yul\":19302:19524   */\n      pop\n        /* \"#utility.yul\":18637:19524   */\n      jump(tag_357)\n        /* \"#utility.yul\":18667:19285   */\n    tag_358:\n        /* \"#utility.yul\":18719:18723   */\n      0x1f\n        /* \"#utility.yul\":18715:18724   */\n      not\n        /* \"#utility.yul\":18707:18713   */\n      dup5\n        /* \"#utility.yul\":18703:18725   */\n      and\n        /* \"#utility.yul\":18753:18790   */\n      tag_361\n        /* \"#utility.yul\":18785:18789   */\n      dup7\n        /* \"#utility.yul\":18753:18790   */\n      tag_168\n      jump\t// in\n    tag_361:\n        /* \"#utility.yul\":18812:18813   */\n      0x00\n        /* \"#utility.yul\":18826:19034   */\n    tag_362:\n        /* \"#utility.yul\":18840:18847   */\n      dup3\n        /* \"#utility.yul\":18837:18838   */\n      dup2\n        /* \"#utility.yul\":18834:18848   */\n      lt\n        /* \"#utility.yul\":18826:19034   */\n      iszero\n      tag_364\n      jumpi\n        /* \"#utility.yul\":18919:18928   */\n      dup5\n        /* \"#utility.yul\":18914:18917   */\n      dup10\n        /* \"#utility.yul\":18910:18929   */\n      add\n        /* \"#utility.yul\":18904:18930   */\n      mload\n        /* \"#utility.yul\":18896:18902   */\n      dup3\n        /* \"#utility.yul\":18889:18931   */\n      sstore\n        /* \"#utility.yul\":18970:18971   */\n      0x01\n        /* \"#utility.yul\":18962:18968   */\n      dup3\n        /* \"#utility.yul\":18958:18972   */\n      add\n        /* \"#utility.yul\":18948:18972   */\n      swap2\n      pop\n        /* \"#utility.yul\":19017:19019   */\n      0x20\n        /* \"#utility.yul\":19006:19015   */\n      dup6\n        /* \"#utility.yul\":19002:19020   */\n      add\n        /* \"#utility.yul\":18989:19020   */\n      swap5\n      pop\n        /* \"#utility.yul\":18863:18867   */\n      0x20\n        /* \"#utility.yul\":18860:18861   */\n      dup2\n        /* \"#utility.yul\":18856:18868   */\n      add\n        /* \"#utility.yul\":18851:18868   */\n      swap1\n      pop\n        /* \"#utility.yul\":18826:19034   */\n      jump(tag_362)\n    tag_364:\n        /* \"#utility.yul\":19062:19068   */\n      dup7\n        /* \"#utility.yul\":19053:19060   */\n      dup4\n        /* \"#utility.yul\":19050:19069   */\n      lt\n        /* \"#utility.yul\":19047:19226   */\n      iszero\n      tag_365\n      jumpi\n        /* \"#utility.yul\":19120:19129   */\n      dup5\n        /* \"#utility.yul\":19115:19118   */\n      dup10\n        /* \"#utility.yul\":19111:19130   */\n      add\n        /* \"#utility.yul\":19105:19131   */\n      mload\n        /* \"#utility.yul\":19163:19211   */\n      tag_366\n        /* \"#utility.yul\":19205:19209   */\n      0x1f\n        /* \"#utility.yul\":19197:19203   */\n      dup10\n        /* \"#utility.yul\":19193:19210   */\n      and\n        /* \"#utility.yul\":19182:19191   */\n      dup3\n        /* \"#utility.yul\":19163:19211   */\n      tag_181\n      jump\t// in\n    tag_366:\n        /* \"#utility.yul\":19155:19161   */\n      dup4\n        /* \"#utility.yul\":19148:19212   */\n      sstore\n        /* \"#utility.yul\":19070:19226   */\n      pop\n        /* \"#utility.yul\":19047:19226   */\n    tag_365:\n        /* \"#utility.yul\":19272:19273   */\n      0x01\n        /* \"#utility.yul\":19268:19269   */\n      0x02\n        /* \"#utility.yul\":19260:19266   */\n      dup9\n        /* \"#utility.yul\":19256:19270   */\n      mul\n        /* \"#utility.yul\":19252:19274   */\n      add\n        /* \"#utility.yul\":19246:19250   */\n      dup9\n        /* \"#utility.yul\":19239:19275   */\n      sstore\n        /* \"#utility.yul\":18674:19285   */\n      pop\n      pop\n      pop\n        /* \"#utility.yul\":18637:19524   */\n    tag_357:\n      pop\n        /* \"#utility.yul\":18227:19530   */\n      pop\n      pop\n      pop\n        /* \"#utility.yul\":18135:19530   */\n      pop\n      pop\n      jump\t// out\n        /* \"#utility.yul\":19536:20675   */\n    tag_65:\n        /* \"#utility.yul\":19849:19853   */\n      0x00\n        /* \"#utility.yul\":19887:19890   */\n      0xc0\n        /* \"#utility.yul\":19876:19885   */\n      dup3\n        /* \"#utility.yul\":19872:19891   */\n      add\n        /* \"#utility.yul\":19864:19891   */\n      swap1\n      pop\n        /* \"#utility.yul\":19901:19972   */\n      tag_368\n        /* \"#utility.yul\":19969:19970   */\n      0x00\n        /* \"#utility.yul\":19958:19967   */\n      dup4\n        /* \"#utility.yul\":19954:19971   */\n      add\n        /* \"#utility.yul\":19945:19951   */\n      dup10\n        /* \"#utility.yul\":19901:19972   */\n      tag_138\n      jump\t// in\n    tag_368:\n        /* \"#utility.yul\":20019:20028   */\n      dup2\n        /* \"#utility.yul\":20013:20017   */\n      dup2\n        /* \"#utility.yul\":20009:20029   */\n      sub\n        /* \"#utility.yul\":20004:20006   */\n      0x20\n        /* \"#utility.yul\":19993:20002   */\n      dup4\n        /* \"#utility.yul\":19989:20007   */\n      add\n        /* \"#utility.yul\":19982:20030   */\n      mstore\n        /* \"#utility.yul\":20047:20125   */\n      tag_369\n        /* \"#utility.yul\":20120:20124   */\n      dup2\n        /* \"#utility.yul\":20111:20117   */\n      dup9\n        /* \"#utility.yul\":20047:20125   */\n      tag_146\n      jump\t// in\n    tag_369:\n        /* \"#utility.yul\":20039:20125   */\n      swap1\n      pop\n        /* \"#utility.yul\":20172:20181   */\n      dup2\n        /* \"#utility.yul\":20166:20170   */\n      dup2\n        /* \"#utility.yul\":20162:20182   */\n      sub\n        /* \"#utility.yul\":20157:20159   */\n      0x40\n        /* \"#utility.yul\":20146:20155   */\n      dup4\n        /* \"#utility.yul\":20142:20160   */\n      add\n        /* \"#utility.yul\":20135:20183   */\n      mstore\n        /* \"#utility.yul\":20200:20278   */\n      tag_370\n        /* \"#utility.yul\":20273:20277   */\n      dup2\n        /* \"#utility.yul\":20264:20270   */\n      dup8\n        /* \"#utility.yul\":20200:20278   */\n      tag_146\n      jump\t// in\n    tag_370:\n        /* \"#utility.yul\":20192:20278   */\n      swap1\n      pop\n        /* \"#utility.yul\":20325:20334   */\n      dup2\n        /* \"#utility.yul\":20319:20323   */\n      dup2\n        /* \"#utility.yul\":20315:20335   */\n      sub\n        /* \"#utility.yul\":20310:20312   */\n      0x60\n        /* \"#utility.yul\":20299:20308   */\n      dup4\n        /* \"#utility.yul\":20295:20313   */\n      add\n        /* \"#utility.yul\":20288:20336   */\n      mstore\n        /* \"#utility.yul\":20353:20431   */\n      tag_371\n        /* \"#utility.yul\":20426:20430   */\n      dup2\n        /* \"#utility.yul\":20417:20423   */\n      dup7\n        /* \"#utility.yul\":20353:20431   */\n      tag_146\n      jump\t// in\n    tag_371:\n        /* \"#utility.yul\":20345:20431   */\n      swap1\n      pop\n        /* \"#utility.yul\":20441:20514   */\n      tag_372\n        /* \"#utility.yul\":20509:20512   */\n      0x80\n        /* \"#utility.yul\":20498:20507   */\n      dup4\n        /* \"#utility.yul\":20494:20513   */\n      add\n        /* \"#utility.yul\":20485:20491   */\n      dup6\n        /* \"#utility.yul\":20441:20514   */\n      tag_138\n      jump\t// in\n    tag_372:\n        /* \"#utility.yul\":20562:20571   */\n      dup2\n        /* \"#utility.yul\":20556:20560   */\n      dup2\n        /* \"#utility.yul\":20552:20572   */\n      sub\n        /* \"#utility.yul\":20546:20549   */\n      0xa0\n        /* \"#utility.yul\":20535:20544   */\n      dup4\n        /* \"#utility.yul\":20531:20550   */\n      add\n        /* \"#utility.yul\":20524:20573   */\n      mstore\n        /* \"#utility.yul\":20590:20668   */\n      tag_373\n        /* \"#utility.yul\":20663:20667   */\n      dup2\n        /* \"#utility.yul\":20654:20660   */\n      dup5\n        /* \"#utility.yul\":20590:20668   */\n      tag_146\n      jump\t// in\n    tag_373:\n        /* \"#utility.yul\":20582:20668   */\n      swap1\n      pop\n        /* \"#utility.yul\":19536:20675   */\n      swap8\n      swap7\n      pop\n      pop\n      pop\n      pop\n      pop\n      pop\n      pop\n      jump\t// out\n        /* \"#utility.yul\":20681:20861   */\n    tag_183:\n        /* \"#utility.yul\":20729:20806   */\n      0x4e487b7100000000000000000000000000000000000000000000000000000000\n        /* \"#utility.yul\":20726:20727   */\n      0x00\n        /* \"#utility.yul\":20719:20807   */\n      mstore\n        /* \"#utility.yul\":20826:20830   */\n      0x11\n        /* \"#utility.yul\":20823:20824   */\n      0x04\n        /* \"#utility.yul\":20816:20831   */\n      mstore\n        /* \"#utility.yul\":20850:20854   */\n      0x24\n        /* \"#utility.yul\":20847:20848   */\n      0x00\n        /* \"#utility.yul\":20840:20855   */\n      revert\n        /* \"#utility.yul\":20867:21100   */\n    tag_67:\n        /* \"#utility.yul\":20906:20909   */\n      0x00\n        /* \"#utility.yul\":20929:20953   */\n      tag_376\n        /* \"#utility.yul\":20947:20952   */\n      dup3\n        /* \"#utility.yul\":20929:20953   */\n      tag_135\n      jump\t// in\n    tag_376:\n        /* \"#utility.yul\":20920:20953   */\n      swap2\n      pop\n        /* \"#utility.yul\":20975:21041   */\n      0xffffffffffffffffffffffffffffffffffffffffffffffffffffffffffffffff\n        /* \"#utility.yul\":20968:20973   */\n      dup3\n        /* \"#utility.yul\":20965:21042   */\n      sub\n        /* \"#utility.yul\":20962:21065   */\n      tag_377\n      jumpi\n        /* \"#utility.yul\":21045:21063   */\n      tag_378\n      tag_183\n      jump\t// in\n    tag_378:\n        /* \"#utility.yul\":20962:21065   */\n    tag_377:\n        /* \"#utility.yul\":21092:21093   */\n      0x01\n        /* \"#utility.yul\":21085:21090   */\n      dup3\n        /* \"#utility.yul\":21081:21094   */\n      add\n        /* \"#utility.yul\":21074:21094   */\n      swap1\n      pop\n        /* \"#utility.yul\":20867:21100   */\n      swap2\n      swap1\n      pop\n      jump\t// out\n        /* \"#utility.yul\":21106:21300   */\n    tag_80:\n        /* \"#utility.yul\":21146:21150   */\n      0x00\n        /* \"#utility.yul\":21166:21186   */\n      tag_380\n        /* \"#utility.yul\":21184:21185   */\n      dup3\n        /* \"#utility.yul\":21166:21186   */\n      tag_135\n      jump\t// in\n    tag_380:\n        /* \"#utility.yul\":21161:21186   */\n      swap2\n      pop\n        /* \"#utility.yul\":21200:21220   */\n      tag_381\n        /* \"#utility.yul\":21218:21219   */\n      dup4\n        /* \"#utility.yul\":21200:21220   */\n      tag_135\n      jump\t// in\n    tag_381:\n        /* \"#utility.yul\":21195:21220   */\n      swap3\n      pop\n        /* \"#utility.yul\":21244:21245   */\n      dup3\n        /* \"#utility.yul\":21241:21242   */\n      dup3\n        /* \"#utility.yul\":21237:21246   */\n      sub\n        /* \"#utility.yul\":21229:21246   */\n      swap1\n      pop\n        /* \"#utility.yul\":21268:21269   */\n      dup2\n        /* \"#utility.yul\":21262:21266   */\n      dup2\n        /* \"#utility.yul\":21259:21270   */\n      gt\n        /* \"#utility.yul\":21256:21293   */\n      iszero\n      tag_382\n      jumpi\n        /* \"#utility.yul\":21273:21291   */\n      tag_383\n      tag_183\n      jump\t// in\n    tag_383:\n        /* \"#utility.yul\":21256:21293   */\n    tag_382:\n        /* \"#utility.yul\":21106:21300   */\n      swap3\n      swap2\n      pop\n      pop\n      jump\t// out\n        /* \"#utility.yul\":21306:21486   */\n    tag_84:\n        /* \"#utility.yul\":21354:21431   */\n      0x4e487b7100000000000000000000000000000000000000000000000000000000\n        /* \"#utility.yul\":21351:21352   */\n      0x00\n        /* \"#utility.yul\":21344:21432   */\n      mstore\n        /* \"#utility.yul\":21451:21455   */\n      0x32\n        /* \"#utility.yul\":21448:21449   */\n      0x04\n        /* \"#utility.yul\":21441:21456   */\n      mstore\n        /* \"#utility.yul\":21475:21479   */\n      0x24\n        /* \"#utility.yul\":21472:21473   */\n      0x00\n        /* \"#utility.yul\":21465:21480   */\n      revert\n\n    auxdata: 0xa26469706673582212209b9ca6e2a0303e43a152326f219a73fd8936112204f5a25986d35bf77e05f53764736f6c634300081b0033\n}\n",
				"bytecode": {
					"linkReferences": {},
					"object": "6080604052348015600e575f5ffd5b506001600281905550611738806100245f395ff3fe608060405234801561000f575f5ffd5b5060043610610060575f3560e01c80630b1e7f83146100645780630d57f91f1461009a57806310f50257146100b657806340731c24146100d457806350cde8ef146101045780635c09bd9814610134575b5f5ffd5b61007e60048036038101906100799190610c9f565b610152565b6040516100919796959493929190610d88565b60405180910390f35b6100b460048036038101906100af9190610f3d565b6103c6565b005b6100be61057a565b6040516100cb91906111e0565b60405180910390f35b6100ee60048036038101906100e99190610c9f565b610913565b6040516100fb91906112ae565b60405180910390f35b61011e60048036038101906101199190610c9f565b610be5565b60405161012b91906112ce565b60405180910390f35b61013c610c05565b60405161014991906112ce565b60405180910390f35b5f602052805f5260405f205f91509050805f015490806001015f9054906101000a900473ffffffffffffffffffffffffffffffffffffffff169080600201805461019b90611314565b80601f01602080910402602001604051908101604052809291908181526020018280546101c790611314565b80156102125780601f106101e957610100808354040283529160200191610212565b820191905f5260205f20905b8154815290600101906020018083116101f557829003601f168201915b50505050509080600301805461022790611314565b80601f016020809104026020016040519081016040528092919081815260200182805461025390611314565b801561029e5780601f106102755761010080835404028352916020019161029e565b820191905f5260205f20905b81548152906001019060200180831161028157829003601f168201915b5050505050908060040180546102b390611314565b80601f01602080910402602001604051908101604052809291908181526020018280546102df90611314565b801561032a5780601f106103015761010080835404028352916020019161032a565b820191905f5260205f20905b81548152906001019060200180831161030d57829003601f168201915b50505050509080600501549080600601805461034590611314565b80601f016020809104026020016040519081016040528092919081815260200182805461037190611314565b80156103bc5780601f10610393576101008083540402835291602001916103bc565b820191905f5260205f20905b81548152906001019060200180831161039f57829003601f168201915b5050505050905087565b5f4290506040518060e0016040528060025481526020013373ffffffffffffffffffffffffffffffffffffffff168152602001868152602001858152602001848152602001828152602001838152505f5f60025481526020019081526020015f205f820151815f01556020820151816001015f6101000a81548173ffffffffffffffffffffffffffffffffffffffff021916908373ffffffffffffffffffffffffffffffffffffffff160217905550604082015181600201908161048a91906114e4565b5060608201518160030190816104a091906114e4565b5060808201518160040190816104b691906114e4565b5060a0820151816005015560c08201518160060190816104d691906114e4565b509050506001600254908060018154018082558091505060019003905f5260205f20015f90919091909150553373ffffffffffffffffffffffffffffffffffffffff167fe762a8095faeab4bc8be9f7a47926bdf7b023dfd65e909cdd7441678ab9c6ea06002548787878688604051610554969594939291906115b3565b60405180910390a260025f81548092919061056e9061165b565b91905055505050505050565b60605f60018054905090505f8167ffffffffffffffff8111156105a05761059f610e19565b5b6040519080825280602002602001820160405280156105d957816020015b6105c6610c0b565b8152602001906001900390816105be5790505b5090505f5f90505b8281101561090a575f5f6001836001876105fb91906116a2565b61060591906116a2565b81548110610616576106156116d5565b5b905f5260205f20015481526020019081526020015f206040518060e00160405290815f8201548152602001600182015f9054906101000a900473ffffffffffffffffffffffffffffffffffffffff1673ffffffffffffffffffffffffffffffffffffffff1673ffffffffffffffffffffffffffffffffffffffff1681526020016002820180546106a590611314565b80601f01602080910402602001604051908101604052809291908181526020018280546106d190611314565b801561071c5780601f106106f35761010080835404028352916020019161071c565b820191905f5260205f20905b8154815290600101906020018083116106ff57829003601f168201915b5050505050815260200160038201805461073590611314565b80601f016020809104026020016040519081016040528092919081815260200182805461076190611314565b80156107ac5780601f10610783576101008083540402835291602001916107ac565b820191905f5260205f20905b81548152906001019060200180831161078f57829003601f168201915b505050505081526020016004820180546107c590611314565b80601f01602080910402602001604051908101604052809291908181526020018280546107f190611314565b801561083c5780601f106108135761010080835404028352916020019161083c565b820191905f5260205f20905b81548152906001019060200180831161081f57829003601f168201915b505050505081526020016005820154815260200160068201805461085f90611314565b80601f016020809104026020016040519081016040528092919081815260200182805461088b90611314565b80156108d65780601f106108ad576101008083540402835291602001916108d6565b820191905f5260205f20905b8154815290600101906020018083116108b957829003601f168201915b5050505050815250508282815181106108f2576108f16116d5565b5b602002602001018190525080806001019150506105e1565b50809250505090565b61091b610c0b565b5f5f8381526020019081526020015f206040518060e00160405290815f8201548152602001600182015f9054906101000a900473ffffffffffffffffffffffffffffffffffffffff1673ffffffffffffffffffffffffffffffffffffffff1673ffffffffffffffffffffffffffffffffffffffff1681526020016002820180546109a490611314565b80601f01602080910402602001604051908101604052809291908181526020018280546109d090611314565b8015610a1b5780601f106109f257610100808354040283529160200191610a1b565b820191905f5260205f20905b8154815290600101906020018083116109fe57829003601f168201915b50505050508152602001600382018054610a3490611314565b80601f0160208091040260200160405190810160405280929190818152602001828054610a6090611314565b8015610aab5780601f10610a8257610100808354040283529160200191610aab565b820191905f5260205f20905b815481529060010190602001808311610a8e57829003601f168201915b50505050508152602001600482018054610ac490611314565b80601f0160208091040260200160405190810160405280929190818152602001828054610af090611314565b8015610b3b5780601f10610b1257610100808354040283529160200191610b3b565b820191905f5260205f20905b815481529060010190602001808311610b1e57829003601f168201915b5050505050815260200160058201548152602001600682018054610b5e90611314565b80601f0160208091040260200160405190810160405280929190818152602001828054610b8a90611314565b8015610bd55780601f10610bac57610100808354040283529160200191610bd5565b820191905f5260205f20905b815481529060010190602001808311610bb857829003601f168201915b5050505050815250509050919050565b60018181548110610bf4575f80fd5b905f5260205f20015f915090505481565b60025481565b6040518060e001604052805f81526020015f73ffffffffffffffffffffffffffffffffffffffff1681526020016060815260200160608152602001606081526020015f8152602001606081525090565b5f604051905090565b5f5ffd5b5f5ffd5b5f819050919050565b610c7e81610c6c565b8114610c88575f5ffd5b50565b5f81359050610c9981610c75565b92915050565b5f60208284031215610cb457610cb3610c64565b5b5f610cc184828501610c8b565b91505092915050565b610cd381610c6c565b82525050565b5f73ffffffffffffffffffffffffffffffffffffffff82169050919050565b5f610d0282610cd9565b9050919050565b610d1281610cf8565b82525050565b5f81519050919050565b5f82825260208201905092915050565b8281835e5f83830152505050565b5f601f19601f8301169050919050565b5f610d5a82610d18565b610d648185610d22565b9350610d74818560208601610d32565b610d7d81610d40565b840191505092915050565b5f60e082019050610d9b5f83018a610cca565b610da86020830189610d09565b8181036040830152610dba8188610d50565b90508181036060830152610dce8187610d50565b90508181036080830152610de28186610d50565b9050610df160a0830185610cca565b81810360c0830152610e038184610d50565b905098975050505050505050565b5f5ffd5b5f5ffd5b7f4e487b71000000000000000000000000000000000000000000000000000000005f52604160045260245ffd5b610e4f82610d40565b810181811067ffffffffffffffff82111715610e6e57610e6d610e19565b5b80604052505050565b5f610e80610c5b565b9050610e8c8282610e46565b919050565b5f67ffffffffffffffff821115610eab57610eaa610e19565b5b610eb482610d40565b9050602081019050919050565b828183375f83830152505050565b5f610ee1610edc84610e91565b610e77565b905082815260208101848484011115610efd57610efc610e15565b5b610f08848285610ec1565b509392505050565b5f82601f830112610f2457610f23610e11565b5b8135610f34848260208601610ecf565b91505092915050565b5f5f5f5f60808587031215610f5557610f54610c64565b5b5f85013567ffffffffffffffff811115610f7257610f71610c68565b5b610f7e87828801610f10565b945050602085013567ffffffffffffffff811115610f9f57610f9e610c68565b5b610fab87828801610f10565b935050604085013567ffffffffffffffff811115610fcc57610fcb610c68565b5b610fd887828801610f10565b925050606085013567ffffffffffffffff811115610ff957610ff8610c68565b5b61100587828801610f10565b91505092959194509250565b5f81519050919050565b5f82825260208201905092915050565b5f819050602082019050919050565b61104381610c6c565b82525050565b61105281610cf8565b82525050565b5f82825260208201905092915050565b5f61107282610d18565b61107c8185611058565b935061108c818560208601610d32565b61109581610d40565b840191505092915050565b5f60e083015f8301516110b55f86018261103a565b5060208301516110c86020860182611049565b50604083015184820360408601526110e08282611068565b915050606083015184820360608601526110fa8282611068565b915050608083015184820360808601526111148282611068565b91505060a083015161112960a086018261103a565b5060c083015184820360c08601526111418282611068565b9150508091505092915050565b5f61115983836110a0565b905092915050565b5f602082019050919050565b5f61117782611011565b611181818561101b565b9350836020820285016111938561102b565b805f5b858110156111ce57848403895281516111af858261114e565b94506111ba83611161565b925060208a01995050600181019050611196565b50829750879550505050505092915050565b5f6020820190508181035f8301526111f8818461116d565b905092915050565b5f60e083015f8301516112155f86018261103a565b5060208301516112286020860182611049565b50604083015184820360408601526112408282611068565b9150506060830151848203606086015261125a8282611068565b915050608083015184820360808601526112748282611068565b91505060a083015161128960a086018261103a565b5060c083015184820360c08601526112a18282611068565b9150508091505092915050565b5f6020820190508181035f8301526112c68184611200565b905092915050565b5f6020820190506112e15f830184610cca565b92915050565b7f4e487b71000000000000000000000000000000000000000000000000000000005f52602260045260245ffd5b5f600282049050600182168061132b57607f821691505b60208210810361133e5761133d6112e7565b5b50919050565b5f819050815f5260205f209050919050565b5f6020601f8301049050919050565b5f82821b905092915050565b5f600883026113a07fffffffffffffffffffffffffffffffffffffffffffffffffffffffffffffffff82611365565b6113aa8683611365565b95508019841693508086168417925050509392505050565b5f819050919050565b5f6113e56113e06113db84610c6c565b6113c2565b610c6c565b9050919050565b5f819050919050565b6113fe836113cb565b61141261140a826113ec565b848454611371565b825550505050565b5f5f905090565b61142961141a565b6114348184846113f5565b505050565b5b818110156114575761144c5f82611421565b60018101905061143a565b5050565b601f82111561149c5761146d81611344565b61147684611356565b81016020851015611485578190505b61149961149185611356565b830182611439565b50505b505050565b5f82821c905092915050565b5f6114bc5f19846008026114a1565b1980831691505092915050565b5f6114d483836114ad565b9150826002028217905092915050565b6114ed82610d18565b67ffffffffffffffff81111561150657611505610e19565b5b6115108254611314565b61151b82828561145b565b5f60209050601f83116001811461154c575f841561153a578287015190505b61154485826114c9565b8655506115ab565b601f19841661155a86611344565b5f5b828110156115815784890151825560018201915060208501945060208101905061155c565b8683101561159e578489015161159a601f8916826114ad565b8355505b6001600288020188555050505b505050505050565b5f60c0820190506115c65f830189610cca565b81810360208301526115d88188610d50565b905081810360408301526115ec8187610d50565b905081810360608301526116008186610d50565b905061160f6080830185610cca565b81810360a08301526116218184610d50565b9050979650505050505050565b7f4e487b71000000000000000000000000000000000000000000000000000000005f52601160045260245ffd5b5f61166582610c6c565b91507fffffffffffffffffffffffffffffffffffffffffffffffffffffffffffffffff82036116975761169661162e565b5b600182019050919050565b5f6116ac82610c6c565b91506116b783610c6c565b92508282039050818111156116cf576116ce61162e565b5b92915050565b7f4e487b71000000000000000000000000000000000000000000000000000000005f52603260045260245ffdfea26469706673582212209b9ca6e2a0303e43a152326f219a73fd8936112204f5a25986d35bf77e05f53764736f6c634300081b0033",
					"opcodes": "PUSH1 0x80 PUSH1 0x40 MSTORE CALLVALUE DUP1 ISZERO PUSH1 0xE JUMPI PUSH0 PUSH0 REVERT JUMPDEST POP PUSH1 0x1 PUSH1 0x2 DUP2 SWAP1 SSTORE POP PUSH2 0x1738 DUP1 PUSH2 0x24 PUSH0 CODECOPY PUSH0 RETURN INVALID PUSH1 0x80 PUSH1 0x40 MSTORE CALLVALUE DUP1 ISZERO PUSH2 0xF JUMPI PUSH0 PUSH0 REVERT JUMPDEST POP PUSH1 0x4 CALLDATASIZE LT PUSH2 0x60 JUMPI PUSH0 CALLDATALOAD PUSH1 0xE0 SHR DUP1 PUSH4 0xB1E7F83 EQ PUSH2 0x64 JUMPI DUP1 PUSH4 0xD57F91F EQ PUSH2 0x9A JUMPI DUP1 PUSH4 0x10F50257 EQ PUSH2 0xB6 JUMPI DUP1 PUSH4 0x40731C24 EQ PUSH2 0xD4 JUMPI DUP1 PUSH4 0x50CDE8EF EQ PUSH2 0x104 JUMPI DUP1 PUSH4 0x5C09BD98 EQ PUSH2 0x134 JUMPI JUMPDEST PUSH0 PUSH0 REVERT JUMPDEST PUSH2 0x7E PUSH1 0x4 DUP1 CALLDATASIZE SUB DUP2 ADD SWAP1 PUSH2 0x79 SWAP2 SWAP1 PUSH2 0xC9F JUMP JUMPDEST PUSH2 0x152 JUMP JUMPDEST PUSH1 0x40 MLOAD PUSH2 0x91 SWAP8 SWAP7 SWAP6 SWAP5 SWAP4 SWAP3 SWAP2 SWAP1 PUSH2 0xD88 JUMP JUMPDEST PUSH1 0x40 MLOAD DUP1 SWAP2 SUB SWAP1 RETURN JUMPDEST PUSH2 0xB4 PUSH1 0x4 DUP1 CALLDATASIZE SUB DUP2 ADD SWAP1 PUSH2 0xAF SWAP2 SWAP1 PUSH2 0xF3D JUMP JUMPDEST PUSH2 0x3C6 JUMP JUMPDEST STOP JUMPDEST PUSH2 0xBE PUSH2 0x57A JUMP JUMPDEST PUSH1 0x40 MLOAD PUSH2 0xCB SWAP2 SWAP1 PUSH2 0x11E0 JUMP JUMPDEST PUSH1 0x40 MLOAD DUP1 SWAP2 SUB SWAP1 RETURN JUMPDEST PUSH2 0xEE PUSH1 0x4 DUP1 CALLDATASIZE SUB DUP2 ADD SWAP1 PUSH2 0xE9 SWAP2 SWAP1 PUSH2 0xC9F JUMP JUMPDEST PUSH2 0x913 JUMP JUMPDEST PUSH1 0x40 MLOAD PUSH2 0xFB SWAP2 SWAP1 PUSH2 0x12AE JUMP JUMPDEST PUSH1 0x40 MLOAD DUP1 SWAP2 SUB SWAP1 RETURN JUMPDEST PUSH2 0x11E PUSH1 0x4 DUP1 CALLDATASIZE SUB DUP2 ADD SWAP1 PUSH2 0x119 SWAP2 SWAP1 PUSH2 0xC9F JUMP JUMPDEST PUSH2 0xBE5 JUMP JUMPDEST PUSH1 0x40 MLOAD PUSH2 0x12B SWAP2 SWAP1 PUSH2 0x12CE JUMP JUMPDEST PUSH1 0x40 MLOAD DUP1 SWAP2 SUB SWAP1 RETURN JUMPDEST PUSH2 0x13C PUSH2 0xC05 JUMP JUMPDEST PUSH1 0x40 MLOAD PUSH2 0x149 SWAP2 SWAP1 PUSH2 0x12CE JUMP JUMPDEST PUSH1 0x40 MLOAD DUP1 SWAP2 SUB SWAP1 RETURN JUMPDEST PUSH0 PUSH1 0x20 MSTORE DUP1 PUSH0 MSTORE PUSH1 0x40 PUSH0 KECCAK256 PUSH0 SWAP2 POP SWAP1 POP DUP1 PUSH0 ADD SLOAD SWAP1 DUP1 PUSH1 0x1 ADD PUSH0 SWAP1 SLOAD SWAP1 PUSH2 0x100 EXP SWAP1 DIV PUSH20 0xFFFFFFFFFFFFFFFFFFFFFFFFFFFFFFFFFFFFFFFF AND SWAP1 DUP1 PUSH1 0x2 ADD DUP1 SLOAD PUSH2 0x19B SWAP1 PUSH2 0x1314 JUMP JUMPDEST DUP1 PUSH1 0x1F ADD PUSH1 0x20 DUP1 SWAP2 DIV MUL PUSH1 0x20 ADD PUSH1 0x40 MLOAD SWAP1 DUP2 ADD PUSH1 0x40 MSTORE DUP1 SWAP3 SWAP2 SWAP1 DUP2 DUP2 MSTORE PUSH1 0x20 ADD DUP3 DUP1 SLOAD PUSH2 0x1C7 SWAP1 PUSH2 0x1314 JUMP JUMPDEST DUP1 ISZERO PUSH2 0x212 JUMPI DUP1 PUSH1 0x1F LT PUSH2 0x1E9 JUMPI PUSH2 0x100 DUP1 DUP4 SLOAD DIV MUL DUP4 MSTORE SWAP2 PUSH1 0x20 ADD SWAP2 PUSH2 0x212 JUMP JUMPDEST DUP3 ADD SWAP2 SWAP1 PUSH0 MSTORE PUSH1 0x20 PUSH0 KECCAK256 SWAP1 JUMPDEST DUP2 SLOAD DUP2 MSTORE SWAP1 PUSH1 0x1 ADD SWAP1 PUSH1 0x20 ADD DUP1 DUP4 GT PUSH2 0x1F5 JUMPI DUP3 SWAP1 SUB PUSH1 0x1F AND DUP3 ADD SWAP2 JUMPDEST POP POP POP POP POP SWAP1 DUP1 PUSH1 0x3 ADD DUP1 SLOAD PUSH2 0x227 SWAP1 PUSH2 0x1314 JUMP JUMPDEST DUP1 PUSH1 0x1F ADD PUSH1 0x20 DUP1 SWAP2 DIV MUL PUSH1 0x20 ADD PUSH1 0x40 MLOAD SWAP1 DUP2 ADD PUSH1 0x40 MSTORE DUP1 SWAP3 SWAP2 SWAP1 DUP2 DUP2 MSTORE PUSH1 0x20 ADD DUP3 DUP1 SLOAD PUSH2 0x253 SWAP1 PUSH2 0x1314 JUMP JUMPDEST DUP1 ISZERO PUSH2 0x29E JUMPI DUP1 PUSH1 0x1F LT PUSH2 0x275 JUMPI PUSH2 0x100 DUP1 DUP4 SLOAD DIV MUL DUP4 MSTORE SWAP2 PUSH1 0x20 ADD SWAP2 PUSH2 0x29E JUMP JUMPDEST DUP3 ADD SWAP2 SWAP1 PUSH0 MSTORE PUSH1 0x20 PUSH0 KECCAK256 SWAP1 JUMPDEST DUP2 SLOAD DUP2 MSTORE SWAP1 PUSH1 0x1 ADD SWAP1 PUSH1 0x20 ADD DUP1 DUP4 GT PUSH2 0x281 JUMPI DUP3 SWAP1 SUB PUSH1 0x1F AND DUP3 ADD SWAP2 JUMPDEST POP POP POP POP POP SWAP1 DUP1 PUSH1 0x4 ADD DUP1 SLOAD PUSH2 0x2B3 SWAP1 PUSH2 0x1314 JUMP JUMPDEST DUP1 PUSH1 0x1F ADD PUSH1 0x20 DUP1 SWAP2 DIV MUL PUSH1 0x20 ADD PUSH1 0x40 MLOAD SWAP1 DUP2 ADD PUSH1 0x40 MSTORE DUP1 SWAP3 SWAP2 SWAP1 DUP2 DUP2 MSTORE PUSH1 0x20 ADD DUP3 DUP1 SLOAD PUSH2 0x2DF SWAP1 PUSH2 0x1314 JUMP JUMPDEST DUP1 ISZERO PUSH2 0x32A JUMPI DUP1 PUSH1 0x1F LT PUSH2 0x301 JUMPI PUSH2 0x100 DUP1 DUP4 SLOAD DIV MUL DUP4 MSTORE SWAP2 PUSH1 0x20 ADD SWAP2 PUSH2 0x32A JUMP JUMPDEST DUP3 ADD SWAP2 SWAP1 PUSH0 MSTORE PUSH1 0x20 PUSH0 KECCAK256 SWAP1 JUMPDEST DUP2 SLOAD DUP2 MSTORE SWAP1 PUSH1 0x1 ADD SWAP1 PUSH1 0x20 ADD DUP1 DUP4 GT PUSH2 0x30D JUMPI DUP3 SWAP1 SUB PUSH1 0x1F AND DUP3 ADD SWAP2 JUMPDEST POP POP POP POP POP SWAP1 DUP1 PUSH1 0x5 ADD SLOAD SWAP1 DUP1 PUSH1 0x6 ADD DUP1 SLOAD PUSH2 0x345 SWAP1 PUSH2 0x1314 JUMP JUMPDEST DUP1 PUSH1 0x1F ADD PUSH1 0x20 DUP1 SWAP2 DIV MUL PUSH1 0x20 ADD PUSH1 0x40 MLOAD SWAP1 DUP2 ADD PUSH1 0x40 MSTORE DUP1 SWAP3 SWAP2 SWAP1 DUP2 DUP2 MSTORE PUSH1 0x20 ADD DUP3 DUP1 SLOAD PUSH2 0x371 SWAP1 PUSH2 0x1314 JUMP JUMPDEST DUP1 ISZERO PUSH2 0x3BC JUMPI DUP1 PUSH1 0x1F LT PUSH2 0x393 JUMPI PUSH2 0x100 DUP1 DUP4 SLOAD DIV MUL DUP4 MSTORE SWAP2 PUSH1 0x20 ADD SWAP2 PUSH2 0x3BC JUMP JUMPDEST DUP3 ADD SWAP2 SWAP1 PUSH0 MSTORE PUSH1 0x20 PUSH0 KECCAK256 SWAP1 JUMPDEST DUP2 SLOAD DUP2 MSTORE SWAP1 PUSH1 0x1 ADD SWAP1 PUSH1 0x20 ADD DUP1 DUP4 GT PUSH2 0x39F JUMPI DUP3 SWAP1 SUB PUSH1 0x1F AND DUP3 ADD SWAP2 JUMPDEST POP POP POP POP POP SWAP1 POP DUP8 JUMP JUMPDEST PUSH0 TIMESTAMP SWAP1 POP PUSH1 0x40 MLOAD DUP1 PUSH1 0xE0 ADD PUSH1 0x40 MSTORE DUP1 PUSH1 0x2 SLOAD DUP2 MSTORE PUSH1 0x20 ADD CALLER PUSH20 0xFFFFFFFFFFFFFFFFFFFFFFFFFFFFFFFFFFFFFFFF AND DUP2 MSTORE PUSH1 0x20 ADD DUP7 DUP2 MSTORE PUSH1 0x20 ADD DUP6 DUP2 MSTORE PUSH1 0x20 ADD DUP5 DUP2 MSTORE PUSH1 0x20 ADD DUP3 DUP2 MSTORE PUSH1 0x20 ADD DUP4 DUP2 MSTORE POP PUSH0 PUSH0 PUSH1 0x2 SLOAD DUP2 MSTORE PUSH1 0x20 ADD SWAP1 DUP2 MSTORE PUSH1 0x20 ADD PUSH0 KECCAK256 PUSH0 DUP3 ADD MLOAD DUP2 PUSH0 ADD SSTORE PUSH1 0x20 DUP3 ADD MLOAD DUP2 PUSH1 0x1 ADD PUSH0 PUSH2 0x100 EXP DUP2 SLOAD DUP2 PUSH20 0xFFFFFFFFFFFFFFFFFFFFFFFFFFFFFFFFFFFFFFFF MUL NOT AND SWAP1 DUP4 PUSH20 0xFFFFFFFFFFFFFFFFFFFFFFFFFFFFFFFFFFFFFFFF AND MUL OR SWAP1 SSTORE POP PUSH1 0x40 DUP3 ADD MLOAD DUP2 PUSH1 0x2 ADD SWAP1 DUP2 PUSH2 0x48A SWAP2 SWAP1 PUSH2 0x14E4 JUMP JUMPDEST POP PUSH1 0x60 DUP3 ADD MLOAD DUP2 PUSH1 0x3 ADD SWAP1 DUP2 PUSH2 0x4A0 SWAP2 SWAP1 PUSH2 0x14E4 JUMP JUMPDEST POP PUSH1 0x80 DUP3 ADD MLOAD DUP2 PUSH1 0x4 ADD SWAP1 DUP2 PUSH2 0x4B6 SWAP2 SWAP1 PUSH2 0x14E4 JUMP JUMPDEST POP PUSH1 0xA0 DUP3 ADD MLOAD DUP2 PUSH1 0x5 ADD SSTORE PUSH1 0xC0 DUP3 ADD MLOAD DUP2 PUSH1 0x6 ADD SWAP1 DUP2 PUSH2 0x4D6 SWAP2 SWAP1 PUSH2 0x14E4 JUMP JUMPDEST POP SWAP1 POP POP PUSH1 0x1 PUSH1 0x2 SLOAD SWAP1 DUP1 PUSH1 0x1 DUP2 SLOAD ADD DUP1 DUP3 SSTORE DUP1 SWAP2 POP POP PUSH1 0x1 SWAP1 SUB SWAP1 PUSH0 MSTORE PUSH1 0x20 PUSH0 KECCAK256 ADD PUSH0 SWAP1 SWAP2 SWAP1 SWAP2 SWAP1 SWAP2 POP SSTORE CALLER PUSH20 0xFFFFFFFFFFFFFFFFFFFFFFFFFFFFFFFFFFFFFFFF AND PUSH32 0xE762A8095FAEAB4BC8BE9F7A47926BDF7B023DFD65E909CDD7441678AB9C6EA0 PUSH1 0x2 SLOAD DUP8 DUP8 DUP8 DUP7 DUP9 PUSH1 0x40 MLOAD PUSH2 0x554 SWAP7 SWAP6 SWAP5 SWAP4 SWAP3 SWAP2 SWAP1 PUSH2 0x15B3 JUMP JUMPDEST PUSH1 0x40 MLOAD DUP1 SWAP2 SUB SWAP1 LOG2 PUSH1 0x2 PUSH0 DUP2 SLOAD DUP1 SWAP3 SWAP2 SWAP1 PUSH2 0x56E SWAP1 PUSH2 0x165B JUMP JUMPDEST SWAP2 SWAP1 POP SSTORE POP POP POP POP POP POP JUMP JUMPDEST PUSH1 0x60 PUSH0 PUSH1 0x1 DUP1 SLOAD SWAP1 POP SWAP1 POP PUSH0 DUP2 PUSH8 0xFFFFFFFFFFFFFFFF DUP2 GT ISZERO PUSH2 0x5A0 JUMPI PUSH2 0x59F PUSH2 0xE19 JUMP JUMPDEST JUMPDEST PUSH1 0x40 MLOAD SWAP1 DUP1 DUP3 MSTORE DUP1 PUSH1 0x20 MUL PUSH1 0x20 ADD DUP3 ADD PUSH1 0x40 MSTORE DUP1 ISZERO PUSH2 0x5D9 JUMPI DUP2 PUSH1 0x20 ADD JUMPDEST PUSH2 0x5C6 PUSH2 0xC0B JUMP JUMPDEST DUP2 MSTORE PUSH1 0x20 ADD SWAP1 PUSH1 0x1 SWAP1 SUB SWAP1 DUP2 PUSH2 0x5BE JUMPI SWAP1 POP JUMPDEST POP SWAP1 POP PUSH0 PUSH0 SWAP1 POP JUMPDEST DUP3 DUP2 LT ISZERO PUSH2 0x90A JUMPI PUSH0 PUSH0 PUSH1 0x1 DUP4 PUSH1 0x1 DUP8 PUSH2 0x5FB SWAP2 SWAP1 PUSH2 0x16A2 JUMP JUMPDEST PUSH2 0x605 SWAP2 SWAP1 PUSH2 0x16A2 JUMP JUMPDEST DUP2 SLOAD DUP2 LT PUSH2 0x616 JUMPI PUSH2 0x615 PUSH2 0x16D5 JUMP JUMPDEST JUMPDEST SWAP1 PUSH0 MSTORE PUSH1 0x20 PUSH0 KECCAK256 ADD SLOAD DUP2 MSTORE PUSH1 0x20 ADD SWAP1 DUP2 MSTORE PUSH1 0x20 ADD PUSH0 KECCAK256 PUSH1 0x40 MLOAD DUP1 PUSH1 0xE0 ADD PUSH1 0x40 MSTORE SWAP1 DUP2 PUSH0 DUP3 ADD SLOAD DUP2 MSTORE PUSH1 0x20 ADD PUSH1 0x1 DUP3 ADD PUSH0 SWAP1 SLOAD SWAP1 PUSH2 0x100 EXP SWAP1 DIV PUSH20 0xFFFFFFFFFFFFFFFFFFFFFFFFFFFFFFFFFFFFFFFF AND PUSH20 0xFFFFFFFFFFFFFFFFFFFFFFFFFFFFFFFFFFFFFFFF AND PUSH20 0xFFFFFFFFFFFFFFFFFFFFFFFFFFFFFFFFFFFFFFFF AND DUP2 MSTORE PUSH1 0x20 ADD PUSH1 0x2 DUP3 ADD DUP1 SLOAD PUSH2 0x6A5 SWAP1 PUSH2 0x1314 JUMP JUMPDEST DUP1 PUSH1 0x1F ADD PUSH1 0x20 DUP1 SWAP2 DIV MUL PUSH1 0x20 ADD PUSH1 0x40 MLOAD SWAP1 DUP2 ADD PUSH1 0x40 MSTORE DUP1 SWAP3 SWAP2 SWAP1 DUP2 DUP2 MSTORE PUSH1 0x20 ADD DUP3 DUP1 SLOAD PUSH2 0x6D1 SWAP1 PUSH2 0x1314 JUMP JUMPDEST DUP1 ISZERO PUSH2 0x71C JUMPI DUP1 PUSH1 0x1F LT PUSH2 0x6F3 JUMPI PUSH2 0x100 DUP1 DUP4 SLOAD DIV MUL DUP4 MSTORE SWAP2 PUSH1 0x20 ADD SWAP2 PUSH2 0x71C JUMP JUMPDEST DUP3 ADD SWAP2 SWAP1 PUSH0 MSTORE PUSH1 0x20 PUSH0 KECCAK256 SWAP1 JUMPDEST DUP2 SLOAD DUP2 MSTORE SWAP1 PUSH1 0x1 ADD SWAP1 PUSH1 0x20 ADD DUP1 DUP4 GT PUSH2 0x6FF JUMPI DUP3 SWAP1 SUB PUSH1 0x1F AND DUP3 ADD SWAP2 JUMPDEST POP POP POP POP POP DUP2 MSTORE PUSH1 0x20 ADD PUSH1 0x3 DUP3 ADD DUP1 SLOAD PUSH2 0x735 SWAP1 PUSH2 0x1314 JUMP JUMPDEST DUP1 PUSH1 0x1F ADD PUSH1 0x20 DUP1 SWAP2 DIV MUL PUSH1 0x20 ADD PUSH1 0x40 MLOAD SWAP1 DUP2 ADD PUSH1 0x40 MSTORE DUP1 SWAP3 SWAP2 SWAP1 DUP2 DUP2 MSTORE PUSH1 0x20 ADD DUP3 DUP1 SLOAD PUSH2 0x761 SWAP1 PUSH2 0x1314 JUMP JUMPDEST DUP1 ISZERO PUSH2 0x7AC JUMPI DUP1 PUSH1 0x1F LT PUSH2 0x783 JUMPI PUSH2 0x100 DUP1 DUP4 SLOAD DIV MUL DUP4 MSTORE SWAP2 PUSH1 0x20 ADD SWAP2 PUSH2 0x7AC JUMP JUMPDEST DUP3 ADD SWAP2 SWAP1 PUSH0 MSTORE PUSH1 0x20 PUSH0 KECCAK256 SWAP1 JUMPDEST DUP2 SLOAD DUP2 MSTORE SWAP1 PUSH1 0x1 ADD SWAP1 PUSH1 0x20 ADD DUP1 DUP4 GT PUSH2 0x78F JUMPI DUP3 SWAP1 SUB PUSH1 0x1F AND DUP3 ADD SWAP2 JUMPDEST POP POP POP POP POP DUP2 MSTORE PUSH1 0x20 ADD PUSH1 0x4 DUP3 ADD DUP1 SLOAD PUSH2 0x7C5 SWAP1 PUSH2 0x1314 JUMP JUMPDEST DUP1 PUSH1 0x1F ADD PUSH1 0x20 DUP1 SWAP2 DIV MUL PUSH1 0x20 ADD PUSH1 0x40 MLOAD SWAP1 DUP2 ADD PUSH1 0x40 MSTORE DUP1 SWAP3 SWAP2 SWAP1 DUP2 DUP2 MSTORE PUSH1 0x20 ADD DUP3 DUP1 SLOAD PUSH2 0x7F1 SWAP1 PUSH2 0x1314 JUMP JUMPDEST DUP1 ISZERO PUSH2 0x83C JUMPI DUP1 PUSH1 0x1F LT PUSH2 0x813 JUMPI PUSH2 0x100 DUP1 DUP4 SLOAD DIV MUL DUP4 MSTORE SWAP2 PUSH1 0x20 ADD SWAP2 PUSH2 0x83C JUMP JUMPDEST DUP3 ADD SWAP2 SWAP1 PUSH0 MSTORE PUSH1 0x20 PUSH0 KECCAK256 SWAP1 JUMPDEST DUP2 SLOAD DUP2 MSTORE SWAP1 PUSH1 0x1 ADD SWAP1 PUSH1 0x20 ADD DUP1 DUP4 GT PUSH2 0x81F JUMPI DUP3 SWAP1 SUB PUSH1 0x1F AND DUP3 ADD SWAP2 JUMPDEST POP POP POP POP POP DUP2 MSTORE PUSH1 0x20 ADD PUSH1 0x5 DUP3 ADD SLOAD DUP2 MSTORE PUSH1 0x20 ADD PUSH1 0x6 DUP3 ADD DUP1 SLOAD PUSH2 0x85F SWAP1 PUSH2 0x1314 JUMP JUMPDEST DUP1 PUSH1 0x1F ADD PUSH1 0x20 DUP1 SWAP2 DIV MUL PUSH1 0x20 ADD PUSH1 0x40 MLOAD SWAP1 DUP2 ADD PUSH1 0x40 MSTORE DUP1 SWAP3 SWAP2 SWAP1 DUP2 DUP2 MSTORE PUSH1 0x20 ADD DUP3 DUP1 SLOAD PUSH2 0x88B SWAP1 PUSH2 0x1314 JUMP JUMPDEST DUP1 ISZERO PUSH2 0x8D6 JUMPI DUP1 PUSH1 0x1F LT PUSH2 0x8AD JUMPI PUSH2 0x100 DUP1 DUP4 SLOAD DIV MUL DUP4 MSTORE SWAP2 PUSH1 0x20 ADD SWAP2 PUSH2 0x8D6 JUMP JUMPDEST DUP3 ADD SWAP2 SWAP1 PUSH0 MSTORE PUSH1 0x20 PUSH0 KECCAK256 SWAP1 JUMPDEST DUP2 SLOAD DUP2 MSTORE SWAP1 PUSH1 0x1 ADD SWAP1 PUSH1 0x20 ADD DUP1 DUP4 GT PUSH2 0x8B9 JUMPI DUP3 SWAP1 SUB PUSH1 0x1F AND DUP3 ADD SWAP2 JUMPDEST POP POP POP POP POP DUP2 MSTORE POP POP DUP3 DUP3 DUP2 MLOAD DUP2 LT PUSH2 0x8F2 JUMPI PUSH2 0x8F1 PUSH2 0x16D5 JUMP JUMPDEST JUMPDEST PUSH1 0x20 MUL PUSH1 0x20 ADD ADD DUP2 SWAP1 MSTORE POP DUP1 DUP1 PUSH1 0x1 ADD SWAP2 POP POP PUSH2 0x5E1 JUMP JUMPDEST POP DUP1 SWAP3 POP POP POP SWAP1 JUMP JUMPDEST PUSH2 0x91B PUSH2 0xC0B JUMP JUMPDEST PUSH0 PUSH0 DUP4 DUP2 MSTORE PUSH1 0x20 ADD SWAP1 DUP2 MSTORE PUSH1 0x20 ADD PUSH0 KECCAK256 PUSH1 0x40 MLOAD DUP1 PUSH1 0xE0 ADD PUSH1 0x40 MSTORE SWAP1 DUP2 PUSH0 DUP3 ADD SLOAD DUP2 MSTORE PUSH1 0x20 ADD PUSH1 0x1 DUP3 ADD PUSH0 SWAP1 SLOAD SWAP1 PUSH2 0x100 EXP SWAP1 DIV PUSH20 0xFFFFFFFFFFFFFFFFFFFFFFFFFFFFFFFFFFFFFFFF AND PUSH20 0xFFFFFFFFFFFFFFFFFFFFFFFFFFFFFFFFFFFFFFFF AND PUSH20 0xFFFFFFFFFFFFFFFFFFFFFFFFFFFFFFFFFFFFFFFF AND DUP2 MSTORE PUSH1 0x20 ADD PUSH1 0x2 DUP3 ADD DUP1 SLOAD PUSH2 0x9A4 SWAP1 PUSH2 0x1314 JUMP JUMPDEST DUP1 PUSH1 0x1F ADD PUSH1 0x20 DUP1 SWAP2 DIV MUL PUSH1 0x20 ADD PUSH1 0x40 MLOAD SWAP1 DUP2 ADD PUSH1 0x40 MSTORE DUP1 SWAP3 SWAP2 SWAP1 DUP2 DUP2 MSTORE PUSH1 0x20 ADD DUP3 DUP1 SLOAD PUSH2 0x9D0 SWAP1 PUSH2 0x1314 JUMP JUMPDEST DUP1 ISZERO PUSH2 0xA1B JUMPI DUP1 PUSH1 0x1F LT PUSH2 0x9F2 JUMPI PUSH2 0x100 DUP1 DUP4 SLOAD DIV MUL DUP4 MSTORE SWAP2 PUSH1 0x20 ADD SWAP2 PUSH2 0xA1B JUMP JUMPDEST DUP3 ADD SWAP2 SWAP1 PUSH0 MSTORE PUSH1 0x20 PUSH0 KECCAK256 SWAP1 JUMPDEST DUP2 SLOAD DUP2 MSTORE SWAP1 PUSH1 0x1 ADD SWAP1 PUSH1 0x20 ADD DUP1 DUP4 GT PUSH2 0x9FE JUMPI DUP3 SWAP1 SUB PUSH1 0x1F AND DUP3 ADD SWAP2 JUMPDEST POP POP POP POP POP DUP2 MSTORE PUSH1 0x20 ADD PUSH1 0x3 DUP3 ADD DUP1 SLOAD PUSH2 0xA34 SWAP1 PUSH2 0x1314 JUMP JUMPDEST DUP1 PUSH1 0x1F ADD PUSH1 0x20 DUP1 SWAP2 DIV MUL PUSH1 0x20 ADD PUSH1 0x40 MLOAD SWAP1 DUP2 ADD PUSH1 0x40 MSTORE DUP1 SWAP3 SWAP2 SWAP1 DUP2 DUP2 MSTORE PUSH1 0x20 ADD DUP3 DUP1 SLOAD PUSH2 0xA60 SWAP1 PUSH2 0x1314 JUMP JUMPDEST DUP1 ISZERO PUSH2 0xAAB JUMPI DUP1 PUSH1 0x1F LT PUSH2 0xA82 JUMPI PUSH2 0x100 DUP1 DUP4 SLOAD DIV MUL DUP4 MSTORE SWAP2 PUSH1 0x20 ADD SWAP2 PUSH2 0xAAB JUMP JUMPDEST DUP3 ADD SWAP2 SWAP1 PUSH0 MSTORE PUSH1 0x20 PUSH0 KECCAK256 SWAP1 JUMPDEST DUP2 SLOAD DUP2 MSTORE SWAP1 PUSH1 0x1 ADD SWAP1 PUSH1 0x20 ADD DUP1 DUP4 GT PUSH2 0xA8E JUMPI DUP3 SWAP1 SUB PUSH1 0x1F AND DUP3 ADD SWAP2 JUMPDEST POP POP POP POP POP DUP2 MSTORE PUSH1 0x20 ADD PUSH1 0x4 DUP3 ADD DUP1 SLOAD PUSH2 0xAC4 SWAP1 PUSH2 0x1314 JUMP JUMPDEST DUP1 PUSH1 0x1F ADD PUSH1 0x20 DUP1 SWAP2 DIV MUL PUSH1 0x20 ADD PUSH1 0x40 MLOAD SWAP1 DUP2 ADD PUSH1 0x40 MSTORE DUP1 SWAP3 SWAP2 SWAP1 DUP2 DUP2 MSTORE PUSH1 0x20 ADD DUP3 DUP1 SLOAD PUSH2 0xAF0 SWAP1 PUSH2 0x1314 JUMP JUMPDEST DUP1 ISZERO PUSH2 0xB3B JUMPI DUP1 PUSH1 0x1F LT PUSH2 0xB12 JUMPI PUSH2 0x100 DUP1 DUP4 SLOAD DIV MUL DUP4 MSTORE SWAP2 PUSH1 0x20 ADD SWAP2 PUSH2 0xB3B JUMP JUMPDEST DUP3 ADD SWAP2 SWAP1 PUSH0 MSTORE PUSH1 0x20 PUSH0 KECCAK256 SWAP1 JUMPDEST DUP2 SLOAD DUP2 MSTORE SWAP1 PUSH1 0x1 ADD SWAP1 PUSH1 0x20 ADD DUP1 DUP4 GT PUSH2 0xB1E JUMPI DUP3 SWAP1 SUB PUSH1 0x1F AND DUP3 ADD SWAP2 JUMPDEST POP POP POP POP POP DUP2 MSTORE PUSH1 0x20 ADD PUSH1 0x5 DUP3 ADD SLOAD DUP2 MSTORE PUSH1 0x20 ADD PUSH1 0x6 DUP3 ADD DUP1 SLOAD PUSH2 0xB5E SWAP1 PUSH2 0x1314 JUMP JUMPDEST DUP1 PUSH1 0x1F ADD PUSH1 0x20 DUP1 SWAP2 DIV MUL PUSH1 0x20 ADD PUSH1 0x40 MLOAD SWAP1 DUP2 ADD PUSH1 0x40 MSTORE DUP1 SWAP3 SWAP2 SWAP1 DUP2 DUP2 MSTORE PUSH1 0x20 ADD DUP3 DUP1 SLOAD PUSH2 0xB8A SWAP1 PUSH2 0x1314 JUMP JUMPDEST DUP1 ISZERO PUSH2 0xBD5 JUMPI DUP1 PUSH1 0x1F LT PUSH2 0xBAC JUMPI PUSH2 0x100 DUP1 DUP4 SLOAD DIV MUL DUP4 MSTORE SWAP2 PUSH1 0x20 ADD SWAP2 PUSH2 0xBD5 JUMP JUMPDEST DUP3 ADD SWAP2 SWAP1 PUSH0 MSTORE PUSH1 0x20 PUSH0 KECCAK256 SWAP1 JUMPDEST DUP2 SLOAD DUP2 MSTORE SWAP1 PUSH1 0x1 ADD SWAP1 PUSH1 0x20 ADD DUP1 DUP4 GT PUSH2 0xBB8 JUMPI DUP3 SWAP1 SUB PUSH1 0x1F AND DUP3 ADD SWAP2 JUMPDEST POP POP POP POP POP DUP2 MSTORE POP POP SWAP1 POP SWAP2 SWAP1 POP JUMP JUMPDEST PUSH1 0x1 DUP2 DUP2 SLOAD DUP2 LT PUSH2 0xBF4 JUMPI PUSH0 DUP1 REVERT JUMPDEST SWAP1 PUSH0 MSTORE PUSH1 0x20 PUSH0 KECCAK256 ADD PUSH0 SWAP2 POP SWAP1 POP SLOAD DUP2 JUMP JUMPDEST PUSH1 0x2 SLOAD DUP2 JUMP JUMPDEST PUSH1 0x40 MLOAD DUP1 PUSH1 0xE0 ADD PUSH1 0x40 MSTORE DUP1 PUSH0 DUP2 MSTORE PUSH1 0x20 ADD PUSH0 PUSH20 0xFFFFFFFFFFFFFFFFFFFFFFFFFFFFFFFFFFFFFFFF AND DUP2 MSTORE PUSH1 0x20 ADD PUSH1 0x60 DUP2 MSTORE PUSH1 0x20 ADD PUSH1 0x60 DUP2 MSTORE PUSH1 0x20 ADD PUSH1 0x60 DUP2 MSTORE PUSH1 0x20 ADD PUSH0 DUP2 MSTORE PUSH1 0x20 ADD PUSH1 0x60 DUP2 MSTORE POP SWAP1 JUMP JUMPDEST PUSH0 PUSH1 0x40 MLOAD SWAP1 POP SWAP1 JUMP JUMPDEST PUSH0 PUSH0 REVERT JUMPDEST PUSH0 PUSH0 REVERT JUMPDEST PUSH0 DUP2 SWAP1 POP SWAP2 SWAP1 POP JUMP JUMPDEST PUSH2 0xC7E DUP2 PUSH2 0xC6C JUMP JUMPDEST DUP2 EQ PUSH2 0xC88 JUMPI PUSH0 PUSH0 REVERT JUMPDEST POP JUMP JUMPDEST PUSH0 DUP2 CALLDATALOAD SWAP1 POP PUSH2 0xC99 DUP2 PUSH2 0xC75 JUMP JUMPDEST SWAP3 SWAP2 POP POP JUMP JUMPDEST PUSH0 PUSH1 0x20 DUP3 DUP5 SUB SLT ISZERO PUSH2 0xCB4 JUMPI PUSH2 0xCB3 PUSH2 0xC64 JUMP JUMPDEST JUMPDEST PUSH0 PUSH2 0xCC1 DUP5 DUP3 DUP6 ADD PUSH2 0xC8B JUMP JUMPDEST SWAP2 POP POP SWAP3 SWAP2 POP POP JUMP JUMPDEST PUSH2 0xCD3 DUP2 PUSH2 0xC6C JUMP JUMPDEST DUP3 MSTORE POP POP JUMP JUMPDEST PUSH0 PUSH20 0xFFFFFFFFFFFFFFFFFFFFFFFFFFFFFFFFFFFFFFFF DUP3 AND SWAP1 POP SWAP2 SWAP1 POP JUMP JUMPDEST PUSH0 PUSH2 0xD02 DUP3 PUSH2 0xCD9 JUMP JUMPDEST SWAP1 POP SWAP2 SWAP1 POP JUMP JUMPDEST PUSH2 0xD12 DUP2 PUSH2 0xCF8 JUMP JUMPDEST DUP3 MSTORE POP POP JUMP JUMPDEST PUSH0 DUP2 MLOAD SWAP1 POP SWAP2 SWAP1 POP JUMP JUMPDEST PUSH0 DUP3 DUP3 MSTORE PUSH1 0x20 DUP3 ADD SWAP1 POP SWAP3 SWAP2 POP POP JUMP JUMPDEST DUP3 DUP2 DUP4 MCOPY PUSH0 DUP4 DUP4 ADD MSTORE POP POP POP JUMP JUMPDEST PUSH0 PUSH1 0x1F NOT PUSH1 0x1F DUP4 ADD AND SWAP1 POP SWAP2 SWAP1 POP JUMP JUMPDEST PUSH0 PUSH2 0xD5A DUP3 PUSH2 0xD18 JUMP JUMPDEST PUSH2 0xD64 DUP2 DUP6 PUSH2 0xD22 JUMP JUMPDEST SWAP4 POP PUSH2 0xD74 DUP2 DUP6 PUSH1 0x20 DUP7 ADD PUSH2 0xD32 JUMP JUMPDEST PUSH2 0xD7D DUP2 PUSH2 0xD40 JUMP JUMPDEST DUP5 ADD SWAP2 POP POP SWAP3 SWAP2 POP POP JUMP JUMPDEST PUSH0 PUSH1 0xE0 DUP3 ADD SWAP1 POP PUSH2 0xD9B PUSH0 DUP4 ADD DUP11 PUSH2 0xCCA JUMP JUMPDEST PUSH2 0xDA8 PUSH1 0x20 DUP4 ADD DUP10 PUSH2 0xD09 JUMP JUMPDEST DUP2 DUP2 SUB PUSH1 0x40 DUP4 ADD MSTORE PUSH2 0xDBA DUP2 DUP9 PUSH2 0xD50 JUMP JUMPDEST SWAP1 POP DUP2 DUP2 SUB PUSH1 0x60 DUP4 ADD MSTORE PUSH2 0xDCE DUP2 DUP8 PUSH2 0xD50 JUMP JUMPDEST SWAP1 POP DUP2 DUP2 SUB PUSH1 0x80 DUP4 ADD MSTORE PUSH2 0xDE2 DUP2 DUP7 PUSH2 0xD50 JUMP JUMPDEST SWAP1 POP PUSH2 0xDF1 PUSH1 0xA0 DUP4 ADD DUP6 PUSH2 0xCCA JUMP JUMPDEST DUP2 DUP2 SUB PUSH1 0xC0 DUP4 ADD MSTORE PUSH2 0xE03 DUP2 DUP5 PUSH2 0xD50 JUMP JUMPDEST SWAP1 POP SWAP9 SWAP8 POP POP POP POP POP POP POP POP JUMP JUMPDEST PUSH0 PUSH0 REVERT JUMPDEST PUSH0 PUSH0 REVERT JUMPDEST PUSH32 0x4E487B7100000000000000000000000000000000000000000000000000000000 PUSH0 MSTORE PUSH1 0x41 PUSH1 0x4 MSTORE PUSH1 0x24 PUSH0 REVERT JUMPDEST PUSH2 0xE4F DUP3 PUSH2 0xD40 JUMP JUMPDEST DUP2 ADD DUP2 DUP2 LT PUSH8 0xFFFFFFFFFFFFFFFF DUP3 GT OR ISZERO PUSH2 0xE6E JUMPI PUSH2 0xE6D PUSH2 0xE19 JUMP JUMPDEST JUMPDEST DUP1 PUSH1 0x40 MSTORE POP POP POP JUMP JUMPDEST PUSH0 PUSH2 0xE80 PUSH2 0xC5B JUMP JUMPDEST SWAP1 POP PUSH2 0xE8C DUP3 DUP3 PUSH2 0xE46 JUMP JUMPDEST SWAP2 SWAP1 POP JUMP JUMPDEST PUSH0 PUSH8 0xFFFFFFFFFFFFFFFF DUP3 GT ISZERO PUSH2 0xEAB JUMPI PUSH2 0xEAA PUSH2 0xE19 JUMP JUMPDEST JUMPDEST PUSH2 0xEB4 DUP3 PUSH2 0xD40 JUMP JUMPDEST SWAP1 POP PUSH1 0x20 DUP2 ADD SWAP1 POP SWAP2 SWAP1 POP JUMP JUMPDEST DUP3 DUP2 DUP4 CALLDATACOPY PUSH0 DUP4 DUP4 ADD MSTORE POP POP POP JUMP JUMPDEST PUSH0 PUSH2 0xEE1 PUSH2 0xEDC DUP5 PUSH2 0xE91 JUMP JUMPDEST PUSH2 0xE77 JUMP JUMPDEST SWAP1 POP DUP3 DUP2 MSTORE PUSH1 0x20 DUP2 ADD DUP5 DUP5 DUP5 ADD GT ISZERO PUSH2 0xEFD JUMPI PUSH2 0xEFC PUSH2 0xE15 JUMP JUMPDEST JUMPDEST PUSH2 0xF08 DUP5 DUP3 DUP6 PUSH2 0xEC1 JUMP JUMPDEST POP SWAP4 SWAP3 POP POP POP JUMP JUMPDEST PUSH0 DUP3 PUSH1 0x1F DUP4 ADD SLT PUSH2 0xF24 JUMPI PUSH2 0xF23 PUSH2 0xE11 JUMP JUMPDEST JUMPDEST DUP2 CALLDATALOAD PUSH2 0xF34 DUP5 DUP3 PUSH1 0x20 DUP7 ADD PUSH2 0xECF JUMP JUMPDEST SWAP2 POP POP SWAP3 SWAP2 POP POP JUMP JUMPDEST PUSH0 PUSH0 PUSH0 PUSH0 PUSH1 0x80 DUP6 DUP8 SUB SLT ISZERO PUSH2 0xF55 JUMPI PUSH2 0xF54 PUSH2 0xC64 JUMP JUMPDEST JUMPDEST PUSH0 DUP6 ADD CALLDATALOAD PUSH8 0xFFFFFFFFFFFFFFFF DUP2 GT ISZERO PUSH2 0xF72 JUMPI PUSH2 0xF71 PUSH2 0xC68 JUMP JUMPDEST JUMPDEST PUSH2 0xF7E DUP8 DUP3 DUP9 ADD PUSH2 0xF10 JUMP JUMPDEST SWAP5 POP POP PUSH1 0x20 DUP6 ADD CALLDATALOAD PUSH8 0xFFFFFFFFFFFFFFFF DUP2 GT ISZERO PUSH2 0xF9F JUMPI PUSH2 0xF9E PUSH2 0xC68 JUMP JUMPDEST JUMPDEST PUSH2 0xFAB DUP8 DUP3 DUP9 ADD PUSH2 0xF10 JUMP JUMPDEST SWAP4 POP POP PUSH1 0x40 DUP6 ADD CALLDATALOAD PUSH8 0xFFFFFFFFFFFFFFFF DUP2 GT ISZERO PUSH2 0xFCC JUMPI PUSH2 0xFCB PUSH2 0xC68 JUMP JUMPDEST JUMPDEST PUSH2 0xFD8 DUP8 DUP3 DUP9 ADD PUSH2 0xF10 JUMP JUMPDEST SWAP3 POP POP PUSH1 0x60 DUP6 ADD CALLDATALOAD PUSH8 0xFFFFFFFFFFFFFFFF DUP2 GT ISZERO PUSH2 0xFF9 JUMPI PUSH2 0xFF8 PUSH2 0xC68 JUMP JUMPDEST JUMPDEST PUSH2 0x1005 DUP8 DUP3 DUP9 ADD PUSH2 0xF10 JUMP JUMPDEST SWAP2 POP POP SWAP3 SWAP6 SWAP2 SWAP5 POP SWAP3 POP JUMP JUMPDEST PUSH0 DUP2 MLOAD SWAP1 POP SWAP2 SWAP1 POP JUMP JUMPDEST PUSH0 DUP3 DUP3 MSTORE PUSH1 0x20 DUP3 ADD SWAP1 POP SWAP3 SWAP2 POP POP JUMP JUMPDEST PUSH0 DUP2 SWAP1 POP PUSH1 0x20 DUP3 ADD SWAP1 POP SWAP2 SWAP1 POP JUMP JUMPDEST PUSH2 0x1043 DUP2 PUSH2 0xC6C JUMP JUMPDEST DUP3 MSTORE POP POP JUMP JUMPDEST PUSH2 0x1052 DUP2 PUSH2 0xCF8 JUMP JUMPDEST DUP3 MSTORE POP POP JUMP JUMPDEST PUSH0 DUP3 DUP3 MSTORE PUSH1 0x20 DUP3 ADD SWAP1 POP SWAP3 SWAP2 POP POP JUMP JUMPDEST PUSH0 PUSH2 0x1072 DUP3 PUSH2 0xD18 JUMP JUMPDEST PUSH2 0x107C DUP2 DUP6 PUSH2 0x1058 JUMP JUMPDEST SWAP4 POP PUSH2 0x108C DUP2 DUP6 PUSH1 0x20 DUP7 ADD PUSH2 0xD32 JUMP JUMPDEST PUSH2 0x1095 DUP2 PUSH2 0xD40 JUMP JUMPDEST DUP5 ADD SWAP2 POP POP SWAP3 SWAP2 POP POP JUMP JUMPDEST PUSH0 PUSH1 0xE0 DUP4 ADD PUSH0 DUP4 ADD MLOAD PUSH2 0x10B5 PUSH0 DUP7 ADD DUP3 PUSH2 0x103A JUMP JUMPDEST POP PUSH1 0x20 DUP4 ADD MLOAD PUSH2 0x10C8 PUSH1 0x20 DUP7 ADD DUP3 PUSH2 0x1049 JUMP JUMPDEST POP PUSH1 0x40 DUP4 ADD MLOAD DUP5 DUP3 SUB PUSH1 0x40 DUP7 ADD MSTORE PUSH2 0x10E0 DUP3 DUP3 PUSH2 0x1068 JUMP JUMPDEST SWAP2 POP POP PUSH1 0x60 DUP4 ADD MLOAD DUP5 DUP3 SUB PUSH1 0x60 DUP7 ADD MSTORE PUSH2 0x10FA DUP3 DUP3 PUSH2 0x1068 JUMP JUMPDEST SWAP2 POP POP PUSH1 0x80 DUP4 ADD MLOAD DUP5 DUP3 SUB PUSH1 0x80 DUP7 ADD MSTORE PUSH2 0x1114 DUP3 DUP3 PUSH2 0x1068 JUMP JUMPDEST SWAP2 POP POP PUSH1 0xA0 DUP4 ADD MLOAD PUSH2 0x1129 PUSH1 0xA0 DUP7 ADD DUP3 PUSH2 0x103A JUMP JUMPDEST POP PUSH1 0xC0 DUP4 ADD MLOAD DUP5 DUP3 SUB PUSH1 0xC0 DUP7 ADD MSTORE PUSH2 0x1141 DUP3 DUP3 PUSH2 0x1068 JUMP JUMPDEST SWAP2 POP POP DUP1 SWAP2 POP POP SWAP3 SWAP2 POP POP JUMP JUMPDEST PUSH0 PUSH2 0x1159 DUP4 DUP4 PUSH2 0x10A0 JUMP JUMPDEST SWAP1 POP SWAP3 SWAP2 POP POP JUMP JUMPDEST PUSH0 PUSH1 0x20 DUP3 ADD SWAP1 POP SWAP2 SWAP1 POP JUMP JUMPDEST PUSH0 PUSH2 0x1177 DUP3 PUSH2 0x1011 JUMP JUMPDEST PUSH2 0x1181 DUP2 DUP6 PUSH2 0x101B JUMP JUMPDEST SWAP4 POP DUP4 PUSH1 0x20 DUP3 MUL DUP6 ADD PUSH2 0x1193 DUP6 PUSH2 0x102B JUMP JUMPDEST DUP1 PUSH0 JUMPDEST DUP6 DUP2 LT ISZERO PUSH2 0x11CE JUMPI DUP5 DUP5 SUB DUP10 MSTORE DUP2 MLOAD PUSH2 0x11AF DUP6 DUP3 PUSH2 0x114E JUMP JUMPDEST SWAP5 POP PUSH2 0x11BA DUP4 PUSH2 0x1161 JUMP JUMPDEST SWAP3 POP PUSH1 0x20 DUP11 ADD SWAP10 POP POP PUSH1 0x1 DUP2 ADD SWAP1 POP PUSH2 0x1196 JUMP JUMPDEST POP DUP3 SWAP8 POP DUP8 SWAP6 POP POP POP POP POP POP SWAP3 SWAP2 POP POP JUMP JUMPDEST PUSH0 PUSH1 0x20 DUP3 ADD SWAP1 POP DUP2 DUP2 SUB PUSH0 DUP4 ADD MSTORE PUSH2 0x11F8 DUP2 DUP5 PUSH2 0x116D JUMP JUMPDEST SWAP1 POP SWAP3 SWAP2 POP POP JUMP JUMPDEST PUSH0 PUSH1 0xE0 DUP4 ADD PUSH0 DUP4 ADD MLOAD PUSH2 0x1215 PUSH0 DUP7 ADD DUP3 PUSH2 0x103A JUMP JUMPDEST POP PUSH1 0x20 DUP4 ADD MLOAD PUSH2 0x1228 PUSH1 0x20 DUP7 ADD DUP3 PUSH2 0x1049 JUMP JUMPDEST POP PUSH1 0x40 DUP4 ADD MLOAD DUP5 DUP3 SUB PUSH1 0x40 DUP7 ADD MSTORE PUSH2 0x1240 DUP3 DUP3 PUSH2 0x1068 JUMP JUMPDEST SWAP2 POP POP PUSH1 0x60 DUP4 ADD MLOAD DUP5 DUP3 SUB PUSH1 0x60 DUP7 ADD MSTORE PUSH2 0x125A DUP3 DUP3 PUSH2 0x1068 JUMP JUMPDEST SWAP2 POP POP PUSH1 0x80 DUP4 ADD MLOAD DUP5 DUP3 SUB PUSH1 0x80 DUP7 ADD MSTORE PUSH2 0x1274 DUP3 DUP3 PUSH2 0x1068 JUMP JUMPDEST SWAP2 POP POP PUSH1 0xA0 DUP4 ADD MLOAD PUSH2 0x1289 PUSH1 0xA0 DUP7 ADD DUP3 PUSH2 0x103A JUMP JUMPDEST POP PUSH1 0xC0 DUP4 ADD MLOAD DUP5 DUP3 SUB PUSH1 0xC0 DUP7 ADD MSTORE PUSH2 0x12A1 DUP3 DUP3 PUSH2 0x1068 JUMP JUMPDEST SWAP2 POP POP DUP1 SWAP2 POP POP SWAP3 SWAP2 POP POP JUMP JUMPDEST PUSH0 PUSH1 0x20 DUP3 ADD SWAP1 POP DUP2 DUP2 SUB PUSH0 DUP4 ADD MSTORE PUSH2 0x12C6 DUP2 DUP5 PUSH2 0x1200 JUMP JUMPDEST SWAP1 POP SWAP3 SWAP2 POP POP JUMP JUMPDEST PUSH0 PUSH1 0x20 DUP3 ADD SWAP1 POP PUSH2 0x12E1 PUSH0 DUP4 ADD DUP5 PUSH2 0xCCA JUMP JUMPDEST SWAP3 SWAP2 POP POP JUMP JUMPDEST PUSH32 0x4E487B7100000000000000000000000000000000000000000000000000000000 PUSH0 MSTORE PUSH1 0x22 PUSH1 0x4 MSTORE PUSH1 0x24 PUSH0 REVERT JUMPDEST PUSH0 PUSH1 0x2 DUP3 DIV SWAP1 POP PUSH1 0x1 DUP3 AND DUP1 PUSH2 0x132B JUMPI PUSH1 0x7F DUP3 AND SWAP2 POP JUMPDEST PUSH1 0x20 DUP3 LT DUP2 SUB PUSH2 0x133E JUMPI PUSH2 0x133D PUSH2 0x12E7 JUMP JUMPDEST JUMPDEST POP SWAP2 SWAP1 POP JUMP JUMPDEST PUSH0 DUP2 SWAP1 POP DUP2 PUSH0 MSTORE PUSH1 0x20 PUSH0 KECCAK256 SWAP1 POP SWAP2 SWAP1 POP JUMP JUMPDEST PUSH0 PUSH1 0x20 PUSH1 0x1F DUP4 ADD DIV SWAP1 POP SWAP2 SWAP1 POP JUMP JUMPDEST PUSH0 DUP3 DUP3 SHL SWAP1 POP SWAP3 SWAP2 POP POP JUMP JUMPDEST PUSH0 PUSH1 0x8 DUP4 MUL PUSH2 0x13A0 PUSH32 0xFFFFFFFFFFFFFFFFFFFFFFFFFFFFFFFFFFFFFFFFFFFFFFFFFFFFFFFFFFFFFFFF DUP3 PUSH2 0x1365 JUMP JUMPDEST PUSH2 0x13AA DUP7 DUP4 PUSH2 0x1365 JUMP JUMPDEST SWAP6 POP DUP1 NOT DUP5 AND SWAP4 POP DUP1 DUP7 AND DUP5 OR SWAP3 POP POP POP SWAP4 SWAP3 POP POP POP JUMP JUMPDEST PUSH0 DUP2 SWAP1 POP SWAP2 SWAP1 POP JUMP JUMPDEST PUSH0 PUSH2 0x13E5 PUSH2 0x13E0 PUSH2 0x13DB DUP5 PUSH2 0xC6C JUMP JUMPDEST PUSH2 0x13C2 JUMP JUMPDEST PUSH2 0xC6C JUMP JUMPDEST SWAP1 POP SWAP2 SWAP1 POP JUMP JUMPDEST PUSH0 DUP2 SWAP1 POP SWAP2 SWAP1 POP JUMP JUMPDEST PUSH2 0x13FE DUP4 PUSH2 0x13CB JUMP JUMPDEST PUSH2 0x1412 PUSH2 0x140A DUP3 PUSH2 0x13EC JUMP JUMPDEST DUP5 DUP5 SLOAD PUSH2 0x1371 JUMP JUMPDEST DUP3 SSTORE POP POP POP POP JUMP JUMPDEST PUSH0 PUSH0 SWAP1 POP SWAP1 JUMP JUMPDEST PUSH2 0x1429 PUSH2 0x141A JUMP JUMPDEST PUSH2 0x1434 DUP2 DUP5 DUP5 PUSH2 0x13F5 JUMP JUMPDEST POP POP POP JUMP JUMPDEST JUMPDEST DUP2 DUP2 LT ISZERO PUSH2 0x1457 JUMPI PUSH2 0x144C PUSH0 DUP3 PUSH2 0x1421 JUMP JUMPDEST PUSH1 0x1 DUP2 ADD SWAP1 POP PUSH2 0x143A JUMP JUMPDEST POP POP JUMP JUMPDEST PUSH1 0x1F DUP3 GT ISZERO PUSH2 0x149C JUMPI PUSH2 0x146D DUP2 PUSH2 0x1344 JUMP JUMPDEST PUSH2 0x1476 DUP5 PUSH2 0x1356 JUMP JUMPDEST DUP2 ADD PUSH1 0x20 DUP6 LT ISZERO PUSH2 0x1485 JUMPI DUP2 SWAP1 POP JUMPDEST PUSH2 0x1499 PUSH2 0x1491 DUP6 PUSH2 0x1356 JUMP JUMPDEST DUP4 ADD DUP3 PUSH2 0x1439 JUMP JUMPDEST POP POP JUMPDEST POP POP POP JUMP JUMPDEST PUSH0 DUP3 DUP3 SHR SWAP1 POP SWAP3 SWAP2 POP POP JUMP JUMPDEST PUSH0 PUSH2 0x14BC PUSH0 NOT DUP5 PUSH1 0x8 MUL PUSH2 0x14A1 JUMP JUMPDEST NOT DUP1 DUP4 AND SWAP2 POP POP SWAP3 SWAP2 POP POP JUMP JUMPDEST PUSH0 PUSH2 0x14D4 DUP4 DUP4 PUSH2 0x14AD JUMP JUMPDEST SWAP2 POP DUP3 PUSH1 0x2 MUL DUP3 OR SWAP1 POP SWAP3 SWAP2 POP POP JUMP JUMPDEST PUSH2 0x14ED DUP3 PUSH2 0xD18 JUMP JUMPDEST PUSH8 0xFFFFFFFFFFFFFFFF DUP2 GT ISZERO PUSH2 0x1506 JUMPI PUSH2 0x1505 PUSH2 0xE19 JUMP JUMPDEST JUMPDEST PUSH2 0x1510 DUP3 SLOAD PUSH2 0x1314 JUMP JUMPDEST PUSH2 0x151B DUP3 DUP3 DUP6 PUSH2 0x145B JUMP JUMPDEST PUSH0 PUSH1 0x20 SWAP1 POP PUSH1 0x1F DUP4 GT PUSH1 0x1 DUP2 EQ PUSH2 0x154C JUMPI PUSH0 DUP5 ISZERO PUSH2 0x153A JUMPI DUP3 DUP8 ADD MLOAD SWAP1 POP JUMPDEST PUSH2 0x1544 DUP6 DUP3 PUSH2 0x14C9 JUMP JUMPDEST DUP7 SSTORE POP PUSH2 0x15AB JUMP JUMPDEST PUSH1 0x1F NOT DUP5 AND PUSH2 0x155A DUP7 PUSH2 0x1344 JUMP JUMPDEST PUSH0 JUMPDEST DUP3 DUP2 LT ISZERO PUSH2 0x1581 JUMPI DUP5 DUP10 ADD MLOAD DUP3 SSTORE PUSH1 0x1 DUP3 ADD SWAP2 POP PUSH1 0x20 DUP6 ADD SWAP5 POP PUSH1 0x20 DUP2 ADD SWAP1 POP PUSH2 0x155C JUMP JUMPDEST DUP7 DUP4 LT ISZERO PUSH2 0x159E JUMPI DUP5 DUP10 ADD MLOAD PUSH2 0x159A PUSH1 0x1F DUP10 AND DUP3 PUSH2 0x14AD JUMP JUMPDEST DUP4 SSTORE POP JUMPDEST PUSH1 0x1 PUSH1 0x2 DUP9 MUL ADD DUP9 SSTORE POP POP POP JUMPDEST POP POP POP POP POP POP JUMP JUMPDEST PUSH0 PUSH1 0xC0 DUP3 ADD SWAP1 POP PUSH2 0x15C6 PUSH0 DUP4 ADD DUP10 PUSH2 0xCCA JUMP JUMPDEST DUP2 DUP2 SUB PUSH1 0x20 DUP4 ADD MSTORE PUSH2 0x15D8 DUP2 DUP9 PUSH2 0xD50 JUMP JUMPDEST SWAP1 POP DUP2 DUP2 SUB PUSH1 0x40 DUP4 ADD MSTORE PUSH2 0x15EC DUP2 DUP8 PUSH2 0xD50 JUMP JUMPDEST SWAP1 POP DUP2 DUP2 SUB PUSH1 0x60 DUP4 ADD MSTORE PUSH2 0x1600 DUP2 DUP7 PUSH2 0xD50 JUMP JUMPDEST SWAP1 POP PUSH2 0x160F PUSH1 0x80 DUP4 ADD DUP6 PUSH2 0xCCA JUMP JUMPDEST DUP2 DUP2 SUB PUSH1 0xA0 DUP4 ADD MSTORE PUSH2 0x1621 DUP2 DUP5 PUSH2 0xD50 JUMP JUMPDEST SWAP1 POP SWAP8 SWAP7 POP POP POP POP POP POP POP JUMP JUMPDEST PUSH32 0x4E487B7100000000000000000000000000000000000000000000000000000000 PUSH0 MSTORE PUSH1 0x11 PUSH1 0x4 MSTORE PUSH1 0x24 PUSH0 REVERT JUMPDEST PUSH0 PUSH2 0x1665 DUP3 PUSH2 0xC6C JUMP JUMPDEST SWAP2 POP PUSH32 0xFFFFFFFFFFFFFFFFFFFFFFFFFFFFFFFFFFFFFFFFFFFFFFFFFFFFFFFFFFFFFFFF DUP3 SUB PUSH2 0x1697 JUMPI PUSH2 0x1696 PUSH2 0x162E JUMP JUMPDEST JUMPDEST PUSH1 0x1 DUP3 ADD SWAP1 POP SWAP2 SWAP1 POP JUMP JUMPDEST PUSH0 PUSH2 0x16AC DUP3 PUSH2 0xC6C JUMP JUMPDEST SWAP2 POP PUSH2 0x16B7 DUP4 PUSH2 0xC6C JUMP JUMPDEST SWAP3 POP DUP3 DUP3 SUB SWAP1 POP DUP2 DUP2 GT ISZERO PUSH2 0x16CF JUMPI PUSH2 0x16CE PUSH2 0x162E JUMP JUMPDEST JUMPDEST SWAP3 SWAP2 POP POP JUMP JUMPDEST PUSH32 0x4E487B7100000000000000000000000000000000000000000000000000000000 PUSH0 MSTORE PUSH1 0x32 PUSH1 0x4 MSTORE PUSH1 0x24 PUSH0 REVERT INVALID LOG2 PUSH5 0x6970667358 0x22 SLT KECCAK256 SWAP12 SWAP13 0xA6 0xE2 LOG0 ADDRESS RETURNDATACOPY NUMBER LOG1 MSTORE ORIGIN PUSH16 0x219A73FD8936112204F5A25986D35BF7 PUSH31 0x5F53764736F6C634300081B00330000000000000000000000000000000000 "
				},
				"gasEstimates": {
					"creation": {
						"codeDepositCost": "1188800",
						"executionCost": "23346",
						"totalCost": "1212146"
					},
					"external": {
						"createPost(string,string,string,string)": "infinite",
						"getPost(uint256)": "infinite",
						"getPostsDescending()": "infinite",
						"nextPostId()": "2513",
						"postIds(uint256)": "infinite",
						"posts(uint256)": "infinite"
					}
				},
				"methodIdentifiers": {
					"createPost(string,string,string,string)": "0d57f91f",
					"getPost(uint256)": "40731c24",
					"getPostsDescending()": "10f50257",
					"nextPostId()": "5c09bd98",
					"postIds(uint256)": "50cde8ef",
					"posts(uint256)": "0b1e7f83"
				}
			},
			"storageLayout": {
				"storage": [
					{
						"astId": 21,
						"contract": "ETHKL/twitterpost.sol:DecentralizedPost",
						"label": "posts",
						"offset": 0,
						"slot": "0",
						"type": "t_mapping(t_uint256,t_struct(Post)16_storage)"
					},
					{
						"astId": 24,
						"contract": "ETHKL/twitterpost.sol:DecentralizedPost",
						"label": "postIds",
						"offset": 0,
						"slot": "1",
						"type": "t_array(t_uint256)dyn_storage"
					},
					{
						"astId": 26,
						"contract": "ETHKL/twitterpost.sol:DecentralizedPost",
						"label": "nextPostId",
						"offset": 0,
						"slot": "2",
						"type": "t_uint256"
					}
				],
				"types": {
					"t_address": {
						"encoding": "inplace",
						"label": "address",
						"numberOfBytes": "20"
					},
					"t_array(t_uint256)dyn_storage": {
						"base": "t_uint256",
						"encoding": "dynamic_array",
						"label": "uint256[]",
						"numberOfBytes": "32"
					},
					"t_mapping(t_uint256,t_struct(Post)16_storage)": {
						"encoding": "mapping",
						"key": "t_uint256",
						"label": "mapping(uint256 => struct DecentralizedPost.Post)",
						"numberOfBytes": "32",
						"value": "t_struct(Post)16_storage"
					},
					"t_string_storage": {
						"encoding": "bytes",
						"label": "string",
						"numberOfBytes": "32"
					},
					"t_struct(Post)16_storage": {
						"encoding": "inplace",
						"label": "struct DecentralizedPost.Post",
						"members": [
							{
								"astId": 3,
								"contract": "ETHKL/twitterpost.sol:DecentralizedPost",
								"label": "postId",
								"offset": 0,
								"slot": "0",
								"type": "t_uint256"
							},
							{
								"astId": 5,
								"contract": "ETHKL/twitterpost.sol:DecentralizedPost",
								"label": "userAddress",
								"offset": 0,
								"slot": "1",
								"type": "t_address"
							},
							{
								"astId": 7,
								"contract": "ETHKL/twitterpost.sol:DecentralizedPost",
								"label": "ipfsHash",
								"offset": 0,
								"slot": "2",
								"type": "t_string_storage"
							},
							{
								"astId": 9,
								"contract": "ETHKL/twitterpost.sol:DecentralizedPost",
								"label": "imageHash",
								"offset": 0,
								"slot": "3",
								"type": "t_string_storage"
							},
							{
								"astId": 11,
								"contract": "ETHKL/twitterpost.sol:DecentralizedPost",
								"label": "content",
								"offset": 0,
								"slot": "4",
								"type": "t_string_storage"
							},
							{
								"astId": 13,
								"contract": "ETHKL/twitterpost.sol:DecentralizedPost",
								"label": "timestamp",
								"offset": 0,
								"slot": "5",
								"type": "t_uint256"
							},
							{
								"astId": 15,
								"contract": "ETHKL/twitterpost.sol:DecentralizedPost",
								"label": "worldId",
								"offset": 0,
								"slot": "6",
								"type": "t_string_storage"
							}
						],
						"numberOfBytes": "224"
					},
					"t_uint256": {
						"encoding": "inplace",
						"label": "uint256",
						"numberOfBytes": "32"
					}
				}
			},
			"userdoc": {
				"kind": "user",
				"methods": {},
				"version": 1
			}
		}
	}
}