{
	"data": {
		"bytecode": {
			"linkReferences": {},
			"object": "6080604052348015600e575f5ffd5b5061090d8061001c5f395ff3fe608060405234801561000f575f5ffd5b506004361061003f575f3560e01c806312022985146100435780639f4295291461005f578063f9b331bf1461008f575b5f5ffd5b61005d600480360381019061005891906103bd565b6100bf565b005b61007960048036038101906100749190610417565b6101dc565b604051610086919061046d565b60405180910390f35b6100a960048036038101906100a49190610417565b610211565b6040516100b6919061049e565b60405180910390f35b60018160ff1614806100d4575060028160ff16145b806100e2575060038160ff16145b610121576040517f08c379a000000000000000000000000000000000000000000000000000000000815260040161011890610511565b60405180910390fd5b60405180606001604052808381526020018260ff168152602001428152505f8360405161014e9190610581565b90815260200160405180910390205f820151815f01908161016f9190610794565b506020820151816001015f6101000a81548160ff021916908360ff160217905550604082015181600201559050507f3d1c1fb38c34e4fae14337ee99ce389eaa0ddc6e5bd3f345bccd4b1397b792028282426040516101d09392919061089b565b60405180910390a15050565b5f5f826040516101ec9190610581565b90815260200160405180910390206001015f9054906101000a900460ff169050919050565b5f5f826040516102219190610581565b9081526020016040518091039020600201549050919050565b5f604051905090565b5f5ffd5b5f5ffd5b5f5ffd5b5f5ffd5b5f601f19601f8301169050919050565b7f4e487b71000000000000000000000000000000000000000000000000000000005f52604160045260245ffd5b61029982610253565b810181811067ffffffffffffffff821117156102b8576102b7610263565b5b80604052505050565b5f6102ca61023a565b90506102d68282610290565b919050565b5f67ffffffffffffffff8211156102f5576102f4610263565b5b6102fe82610253565b9050602081019050919050565b828183375f83830152505050565b5f61032b610326846102db565b6102c1565b9050828152602081018484840111156103475761034661024f565b5b61035284828561030b565b509392505050565b5f82601f83011261036e5761036d61024b565b5b813561037e848260208601610319565b91505092915050565b5f60ff82169050919050565b61039c81610387565b81146103a6575f5ffd5b50565b5f813590506103b781610393565b92915050565b5f5f604083850312156103d3576103d2610243565b5b5f83013567ffffffffffffffff8111156103f0576103ef610247565b5b6103fc8582860161035a565b925050602061040d858286016103a9565b9150509250929050565b5f6020828403121561042c5761042b610243565b5b5f82013567ffffffffffffffff81111561044957610448610247565b5b6104558482850161035a565b91505092915050565b61046781610387565b82525050565b5f6020820190506104805f83018461045e565b92915050565b5f819050919050565b61049881610486565b82525050565b5f6020820190506104b15f83018461048f565b92915050565b5f82825260208201905092915050565b7f496e76616c6964206465657066616b652076616c7565000000000000000000005f82015250565b5f6104fb6016836104b7565b9150610506826104c7565b602082019050919050565b5f6020820190508181035f830152610528816104ef565b9050919050565b5f81519050919050565b5f81905092915050565b8281835e5f83830152505050565b5f61055b8261052f565b6105658185610539565b9350610575818560208601610543565b80840191505092915050565b5f61058c8284610551565b915081905092915050565b7f4e487b71000000000000000000000000000000000000000000000000000000005f52602260045260245ffd5b5f60028204905060018216806105db57607f821691505b6020821081036105ee576105ed610597565b5b50919050565b5f819050815f5260205f209050919050565b5f6020601f8301049050919050565b5f82821b905092915050565b5f600883026106507fffffffffffffffffffffffffffffffffffffffffffffffffffffffffffffffff82610615565b61065a8683610615565b95508019841693508086168417925050509392505050565b5f819050919050565b5f61069561069061068b84610486565b610672565b610486565b9050919050565b5f819050919050565b6106ae8361067b565b6106c26106ba8261069c565b848454610621565b825550505050565b5f5f905090565b6106d96106ca565b6106e48184846106a5565b505050565b5b81811015610707576106fc5f826106d1565b6001810190506106ea565b5050565b601f82111561074c5761071d816105f4565b61072684610606565b81016020851015610735578190505b61074961074185610606565b8301826106e9565b50505b505050565b5f82821c905092915050565b5f61076c5f1984600802610751565b1980831691505092915050565b5f610784838361075d565b9150826002028217905092915050565b61079d8261052f565b67ffffffffffffffff8111156107b6576107b5610263565b5b6107c082546105c4565b6107cb82828561070b565b5f60209050601f8311600181146107fc575f84156107ea578287015190505b6107f48582610779565b86555061085b565b601f19841661080a866105f4565b5f5b828110156108315784890151825560018201915060208501945060208101905061080c565b8683101561084e578489015161084a601f89168261075d565b8355505b6001600288020188555050505b505050505050565b5f61086d8261052f565b61087781856104b7565b9350610887818560208601610543565b61089081610253565b840191505092915050565b5f6060820190508181035f8301526108b38186610863565b90506108c2602083018561045e565b6108cf604083018461048f565b94935050505056fea26469706673582212208e878727b7176ce222ef90dfe90a2c0c12b402b51d62ee49caa0a42cb0031a6a64736f6c634300081b0033",
			"opcodes": "PUSH1 0x80 PUSH1 0x40 MSTORE CALLVALUE DUP1 ISZERO PUSH1 0xE JUMPI PUSH0 PUSH0 REVERT JUMPDEST POP PUSH2 0x90D DUP1 PUSH2 0x1C PUSH0 CODECOPY PUSH0 RETURN INVALID PUSH1 0x80 PUSH1 0x40 MSTORE CALLVALUE DUP1 ISZERO PUSH2 0xF JUMPI PUSH0 PUSH0 REVERT JUMPDEST POP PUSH1 0x4 CALLDATASIZE LT PUSH2 0x3F JUMPI PUSH0 CALLDATALOAD PUSH1 0xE0 SHR DUP1 PUSH4 0x12022985 EQ PUSH2 0x43 JUMPI DUP1 PUSH4 0x9F429529 EQ PUSH2 0x5F JUMPI DUP1 PUSH4 0xF9B331BF EQ PUSH2 0x8F JUMPI JUMPDEST PUSH0 PUSH0 REVERT JUMPDEST PUSH2 0x5D PUSH1 0x4 DUP1 CALLDATASIZE SUB DUP2 ADD SWAP1 PUSH2 0x58 SWAP2 SWAP1 PUSH2 0x3BD JUMP JUMPDEST PUSH2 0xBF JUMP JUMPDEST STOP JUMPDEST PUSH2 0x79 PUSH1 0x4 DUP1 CALLDATASIZE SUB DUP2 ADD SWAP1 PUSH2 0x74 SWAP2 SWAP1 PUSH2 0x417 JUMP JUMPDEST PUSH2 0x1DC JUMP JUMPDEST PUSH1 0x40 MLOAD PUSH2 0x86 SWAP2 SWAP1 PUSH2 0x46D JUMP JUMPDEST PUSH1 0x40 MLOAD DUP1 SWAP2 SUB SWAP1 RETURN JUMPDEST PUSH2 0xA9 PUSH1 0x4 DUP1 CALLDATASIZE SUB DUP2 ADD SWAP1 PUSH2 0xA4 SWAP2 SWAP1 PUSH2 0x417 JUMP JUMPDEST PUSH2 0x211 JUMP JUMPDEST PUSH1 0x40 MLOAD PUSH2 0xB6 SWAP2 SWAP1 PUSH2 0x49E JUMP JUMPDEST PUSH1 0x40 MLOAD DUP1 SWAP2 SUB SWAP1 RETURN JUMPDEST PUSH1 0x1 DUP2 PUSH1 0xFF AND EQ DUP1 PUSH2 0xD4 JUMPI POP PUSH1 0x2 DUP2 PUSH1 0xFF AND EQ JUMPDEST DUP1 PUSH2 0xE2 JUMPI POP PUSH1 0x3 DUP2 PUSH1 0xFF AND EQ JUMPDEST PUSH2 0x121 JUMPI PUSH1 0x40 MLOAD PUSH32 0x8C379A000000000000000000000000000000000000000000000000000000000 DUP2 MSTORE PUSH1 0x4 ADD PUSH2 0x118 SWAP1 PUSH2 0x511 JUMP JUMPDEST PUSH1 0x40 MLOAD DUP1 SWAP2 SUB SWAP1 REVERT JUMPDEST PUSH1 0x40 MLOAD DUP1 PUSH1 0x60 ADD PUSH1 0x40 MSTORE DUP1 DUP4 DUP2 MSTORE PUSH1 0x20 ADD DUP3 PUSH1 0xFF AND DUP2 MSTORE PUSH1 0x20 ADD TIMESTAMP DUP2 MSTORE POP PUSH0 DUP4 PUSH1 0x40 MLOAD PUSH2 0x14E SWAP2 SWAP1 PUSH2 0x581 JUMP JUMPDEST SWAP1 DUP2 MSTORE PUSH1 0x20 ADD PUSH1 0x40 MLOAD DUP1 SWAP2 SUB SWAP1 KECCAK256 PUSH0 DUP3 ADD MLOAD DUP2 PUSH0 ADD SWAP1 DUP2 PUSH2 0x16F SWAP2 SWAP1 PUSH2 0x794 JUMP JUMPDEST POP PUSH1 0x20 DUP3 ADD MLOAD DUP2 PUSH1 0x1 ADD PUSH0 PUSH2 0x100 EXP DUP2 SLOAD DUP2 PUSH1 0xFF MUL NOT AND SWAP1 DUP4 PUSH1 0xFF AND MUL OR SWAP1 SSTORE POP PUSH1 0x40 DUP3 ADD MLOAD DUP2 PUSH1 0x2 ADD SSTORE SWAP1 POP POP PUSH32 0x3D1C1FB38C34E4FAE14337EE99CE389EAA0DDC6E5BD3F345BCCD4B1397B79202 DUP3 DUP3 TIMESTAMP PUSH1 0x40 MLOAD PUSH2 0x1D0 SWAP4 SWAP3 SWAP2 SWAP1 PUSH2 0x89B JUMP JUMPDEST PUSH1 0x40 MLOAD DUP1 SWAP2 SUB SWAP1 LOG1 POP POP JUMP JUMPDEST PUSH0 PUSH0 DUP3 PUSH1 0x40 MLOAD PUSH2 0x1EC SWAP2 SWAP1 PUSH2 0x581 JUMP JUMPDEST SWAP1 DUP2 MSTORE PUSH1 0x20 ADD PUSH1 0x40 MLOAD DUP1 SWAP2 SUB SWAP1 KECCAK256 PUSH1 0x1 ADD PUSH0 SWAP1 SLOAD SWAP1 PUSH2 0x100 EXP SWAP1 DIV PUSH1 0xFF AND SWAP1 POP SWAP2 SWAP1 POP JUMP JUMPDEST PUSH0 PUSH0 DUP3 PUSH1 0x40 MLOAD PUSH2 0x221 SWAP2 SWAP1 PUSH2 0x581 JUMP JUMPDEST SWAP1 DUP2 MSTORE PUSH1 0x20 ADD PUSH1 0x40 MLOAD DUP1 SWAP2 SUB SWAP1 KECCAK256 PUSH1 0x2 ADD SLOAD SWAP1 POP SWAP2 SWAP1 POP JUMP JUMPDEST PUSH0 PUSH1 0x40 MLOAD SWAP1 POP SWAP1 JUMP JUMPDEST PUSH0 PUSH0 REVERT JUMPDEST PUSH0 PUSH0 REVERT JUMPDEST PUSH0 PUSH0 REVERT JUMPDEST PUSH0 PUSH0 REVERT JUMPDEST PUSH0 PUSH1 0x1F NOT PUSH1 0x1F DUP4 ADD AND SWAP1 POP SWAP2 SWAP1 POP JUMP JUMPDEST PUSH32 0x4E487B7100000000000000000000000000000000000000000000000000000000 PUSH0 MSTORE PUSH1 0x41 PUSH1 0x4 MSTORE PUSH1 0x24 PUSH0 REVERT JUMPDEST PUSH2 0x299 DUP3 PUSH2 0x253 JUMP JUMPDEST DUP2 ADD DUP2 DUP2 LT PUSH8 0xFFFFFFFFFFFFFFFF DUP3 GT OR ISZERO PUSH2 0x2B8 JUMPI PUSH2 0x2B7 PUSH2 0x263 JUMP JUMPDEST JUMPDEST DUP1 PUSH1 0x40 MSTORE POP POP POP JUMP JUMPDEST PUSH0 PUSH2 0x2CA PUSH2 0x23A JUMP JUMPDEST SWAP1 POP PUSH2 0x2D6 DUP3 DUP3 PUSH2 0x290 JUMP JUMPDEST SWAP2 SWAP1 POP JUMP JUMPDEST PUSH0 PUSH8 0xFFFFFFFFFFFFFFFF DUP3 GT ISZERO PUSH2 0x2F5 JUMPI PUSH2 0x2F4 PUSH2 0x263 JUMP JUMPDEST JUMPDEST PUSH2 0x2FE DUP3 PUSH2 0x253 JUMP JUMPDEST SWAP1 POP PUSH1 0x20 DUP2 ADD SWAP1 POP SWAP2 SWAP1 POP JUMP JUMPDEST DUP3 DUP2 DUP4 CALLDATACOPY PUSH0 DUP4 DUP4 ADD MSTORE POP POP POP JUMP JUMPDEST PUSH0 PUSH2 0x32B PUSH2 0x326 DUP5 PUSH2 0x2DB JUMP JUMPDEST PUSH2 0x2C1 JUMP JUMPDEST SWAP1 POP DUP3 DUP2 MSTORE PUSH1 0x20 DUP2 ADD DUP5 DUP5 DUP5 ADD GT ISZERO PUSH2 0x347 JUMPI PUSH2 0x346 PUSH2 0x24F JUMP JUMPDEST JUMPDEST PUSH2 0x352 DUP5 DUP3 DUP6 PUSH2 0x30B JUMP JUMPDEST POP SWAP4 SWAP3 POP POP POP JUMP JUMPDEST PUSH0 DUP3 PUSH1 0x1F DUP4 ADD SLT PUSH2 0x36E JUMPI PUSH2 0x36D PUSH2 0x24B JUMP JUMPDEST JUMPDEST DUP2 CALLDATALOAD PUSH2 0x37E DUP5 DUP3 PUSH1 0x20 DUP7 ADD PUSH2 0x319 JUMP JUMPDEST SWAP2 POP POP SWAP3 SWAP2 POP POP JUMP JUMPDEST PUSH0 PUSH1 0xFF DUP3 AND SWAP1 POP SWAP2 SWAP1 POP JUMP JUMPDEST PUSH2 0x39C DUP2 PUSH2 0x387 JUMP JUMPDEST DUP2 EQ PUSH2 0x3A6 JUMPI PUSH0 PUSH0 REVERT JUMPDEST POP JUMP JUMPDEST PUSH0 DUP2 CALLDATALOAD SWAP1 POP PUSH2 0x3B7 DUP2 PUSH2 0x393 JUMP JUMPDEST SWAP3 SWAP2 POP POP JUMP JUMPDEST PUSH0 PUSH0 PUSH1 0x40 DUP4 DUP6 SUB SLT ISZERO PUSH2 0x3D3 JUMPI PUSH2 0x3D2 PUSH2 0x243 JUMP JUMPDEST JUMPDEST PUSH0 DUP4 ADD CALLDATALOAD PUSH8 0xFFFFFFFFFFFFFFFF DUP2 GT ISZERO PUSH2 0x3F0 JUMPI PUSH2 0x3EF PUSH2 0x247 JUMP JUMPDEST JUMPDEST PUSH2 0x3FC DUP6 DUP3 DUP7 ADD PUSH2 0x35A JUMP JUMPDEST SWAP3 POP POP PUSH1 0x20 PUSH2 0x40D DUP6 DUP3 DUP7 ADD PUSH2 0x3A9 JUMP JUMPDEST SWAP2 POP POP SWAP3 POP SWAP3 SWAP1 POP JUMP JUMPDEST PUSH0 PUSH1 0x20 DUP3 DUP5 SUB SLT ISZERO PUSH2 0x42C JUMPI PUSH2 0x42B PUSH2 0x243 JUMP JUMPDEST JUMPDEST PUSH0 DUP3 ADD CALLDATALOAD PUSH8 0xFFFFFFFFFFFFFFFF DUP2 GT ISZERO PUSH2 0x449 JUMPI PUSH2 0x448 PUSH2 0x247 JUMP JUMPDEST JUMPDEST PUSH2 0x455 DUP5 DUP3 DUP6 ADD PUSH2 0x35A JUMP JUMPDEST SWAP2 POP POP SWAP3 SWAP2 POP POP JUMP JUMPDEST PUSH2 0x467 DUP2 PUSH2 0x387 JUMP JUMPDEST DUP3 MSTORE POP POP JUMP JUMPDEST PUSH0 PUSH1 0x20 DUP3 ADD SWAP1 POP PUSH2 0x480 PUSH0 DUP4 ADD DUP5 PUSH2 0x45E JUMP JUMPDEST SWAP3 SWAP2 POP POP JUMP JUMPDEST PUSH0 DUP2 SWAP1 POP SWAP2 SWAP1 POP JUMP JUMPDEST PUSH2 0x498 DUP2 PUSH2 0x486 JUMP JUMPDEST DUP3 MSTORE POP POP JUMP JUMPDEST PUSH0 PUSH1 0x20 DUP3 ADD SWAP1 POP PUSH2 0x4B1 PUSH0 DUP4 ADD DUP5 PUSH2 0x48F JUMP JUMPDEST SWAP3 SWAP2 POP POP JUMP JUMPDEST PUSH0 DUP3 DUP3 MSTORE PUSH1 0x20 DUP3 ADD SWAP1 POP SWAP3 SWAP2 POP POP JUMP JUMPDEST PUSH32 0x496E76616C6964206465657066616B652076616C756500000000000000000000 PUSH0 DUP3 ADD MSTORE POP JUMP JUMPDEST PUSH0 PUSH2 0x4FB PUSH1 0x16 DUP4 PUSH2 0x4B7 JUMP JUMPDEST SWAP2 POP PUSH2 0x506 DUP3 PUSH2 0x4C7 JUMP JUMPDEST PUSH1 0x20 DUP3 ADD SWAP1 POP SWAP2 SWAP1 POP JUMP JUMPDEST PUSH0 PUSH1 0x20 DUP3 ADD SWAP1 POP DUP2 DUP2 SUB PUSH0 DUP4 ADD MSTORE PUSH2 0x528 DUP2 PUSH2 0x4EF JUMP JUMPDEST SWAP1 POP SWAP2 SWAP1 POP JUMP JUMPDEST PUSH0 DUP2 MLOAD SWAP1 POP SWAP2 SWAP1 POP JUMP JUMPDEST PUSH0 DUP2 SWAP1 POP SWAP3 SWAP2 POP POP JUMP JUMPDEST DUP3 DUP2 DUP4 MCOPY PUSH0 DUP4 DUP4 ADD MSTORE POP POP POP JUMP JUMPDEST PUSH0 PUSH2 0x55B DUP3 PUSH2 0x52F JUMP JUMPDEST PUSH2 0x565 DUP2 DUP6 PUSH2 0x539 JUMP JUMPDEST SWAP4 POP PUSH2 0x575 DUP2 DUP6 PUSH1 0x20 DUP7 ADD PUSH2 0x543 JUMP JUMPDEST DUP1 DUP5 ADD SWAP2 POP POP SWAP3 SWAP2 POP POP JUMP JUMPDEST PUSH0 PUSH2 0x58C DUP3 DUP5 PUSH2 0x551 JUMP JUMPDEST SWAP2 POP DUP2 SWAP1 POP SWAP3 SWAP2 POP POP JUMP JUMPDEST PUSH32 0x4E487B7100000000000000000000000000000000000000000000000000000000 PUSH0 MSTORE PUSH1 0x22 PUSH1 0x4 MSTORE PUSH1 0x24 PUSH0 REVERT JUMPDEST PUSH0 PUSH1 0x2 DUP3 DIV SWAP1 POP PUSH1 0x1 DUP3 AND DUP1 PUSH2 0x5DB JUMPI PUSH1 0x7F DUP3 AND SWAP2 POP JUMPDEST PUSH1 0x20 DUP3 LT DUP2 SUB PUSH2 0x5EE JUMPI PUSH2 0x5ED PUSH2 0x597 JUMP JUMPDEST JUMPDEST POP SWAP2 SWAP1 POP JUMP JUMPDEST PUSH0 DUP2 SWAP1 POP DUP2 PUSH0 MSTORE PUSH1 0x20 PUSH0 KECCAK256 SWAP1 POP SWAP2 SWAP1 POP JUMP JUMPDEST PUSH0 PUSH1 0x20 PUSH1 0x1F DUP4 ADD DIV SWAP1 POP SWAP2 SWAP1 POP JUMP JUMPDEST PUSH0 DUP3 DUP3 SHL SWAP1 POP SWAP3 SWAP2 POP POP JUMP JUMPDEST PUSH0 PUSH1 0x8 DUP4 MUL PUSH2 0x650 PUSH32 0xFFFFFFFFFFFFFFFFFFFFFFFFFFFFFFFFFFFFFFFFFFFFFFFFFFFFFFFFFFFFFFFF DUP3 PUSH2 0x615 JUMP JUMPDEST PUSH2 0x65A DUP7 DUP4 PUSH2 0x615 JUMP JUMPDEST SWAP6 POP DUP1 NOT DUP5 AND SWAP4 POP DUP1 DUP7 AND DUP5 OR SWAP3 POP POP POP SWAP4 SWAP3 POP POP POP JUMP JUMPDEST PUSH0 DUP2 SWAP1 POP SWAP2 SWAP1 POP JUMP JUMPDEST PUSH0 PUSH2 0x695 PUSH2 0x690 PUSH2 0x68B DUP5 PUSH2 0x486 JUMP JUMPDEST PUSH2 0x672 JUMP JUMPDEST PUSH2 0x486 JUMP JUMPDEST SWAP1 POP SWAP2 SWAP1 POP JUMP JUMPDEST PUSH0 DUP2 SWAP1 POP SWAP2 SWAP1 POP JUMP JUMPDEST PUSH2 0x6AE DUP4 PUSH2 0x67B JUMP JUMPDEST PUSH2 0x6C2 PUSH2 0x6BA DUP3 PUSH2 0x69C JUMP JUMPDEST DUP5 DUP5 SLOAD PUSH2 0x621 JUMP JUMPDEST DUP3 SSTORE POP POP POP POP JUMP JUMPDEST PUSH0 PUSH0 SWAP1 POP SWAP1 JUMP JUMPDEST PUSH2 0x6D9 PUSH2 0x6CA JUMP JUMPDEST PUSH2 0x6E4 DUP2 DUP5 DUP5 PUSH2 0x6A5 JUMP JUMPDEST POP POP POP JUMP JUMPDEST JUMPDEST DUP2 DUP2 LT ISZERO PUSH2 0x707 JUMPI PUSH2 0x6FC PUSH0 DUP3 PUSH2 0x6D1 JUMP JUMPDEST PUSH1 0x1 DUP2 ADD SWAP1 POP PUSH2 0x6EA JUMP JUMPDEST POP POP JUMP JUMPDEST PUSH1 0x1F DUP3 GT ISZERO PUSH2 0x74C JUMPI PUSH2 0x71D DUP2 PUSH2 0x5F4 JUMP JUMPDEST PUSH2 0x726 DUP5 PUSH2 0x606 JUMP JUMPDEST DUP2 ADD PUSH1 0x20 DUP6 LT ISZERO PUSH2 0x735 JUMPI DUP2 SWAP1 POP JUMPDEST PUSH2 0x749 PUSH2 0x741 DUP6 PUSH2 0x606 JUMP JUMPDEST DUP4 ADD DUP3 PUSH2 0x6E9 JUMP JUMPDEST POP POP JUMPDEST POP POP POP JUMP JUMPDEST PUSH0 DUP3 DUP3 SHR SWAP1 POP SWAP3 SWAP2 POP POP JUMP JUMPDEST PUSH0 PUSH2 0x76C PUSH0 NOT DUP5 PUSH1 0x8 MUL PUSH2 0x751 JUMP JUMPDEST NOT DUP1 DUP4 AND SWAP2 POP POP SWAP3 SWAP2 POP POP JUMP JUMPDEST PUSH0 PUSH2 0x784 DUP4 DUP4 PUSH2 0x75D JUMP JUMPDEST SWAP2 POP DUP3 PUSH1 0x2 MUL DUP3 OR SWAP1 POP SWAP3 SWAP2 POP POP JUMP JUMPDEST PUSH2 0x79D DUP3 PUSH2 0x52F JUMP JUMPDEST PUSH8 0xFFFFFFFFFFFFFFFF DUP2 GT ISZERO PUSH2 0x7B6 JUMPI PUSH2 0x7B5 PUSH2 0x263 JUMP JUMPDEST JUMPDEST PUSH2 0x7C0 DUP3 SLOAD PUSH2 0x5C4 JUMP JUMPDEST PUSH2 0x7CB DUP3 DUP3 DUP6 PUSH2 0x70B JUMP JUMPDEST PUSH0 PUSH1 0x20 SWAP1 POP PUSH1 0x1F DUP4 GT PUSH1 0x1 DUP2 EQ PUSH2 0x7FC JUMPI PUSH0 DUP5 ISZERO PUSH2 0x7EA JUMPI DUP3 DUP8 ADD MLOAD SWAP1 POP JUMPDEST PUSH2 0x7F4 DUP6 DUP3 PUSH2 0x779 JUMP JUMPDEST DUP7 SSTORE POP PUSH2 0x85B JUMP JUMPDEST PUSH1 0x1F NOT DUP5 AND PUSH2 0x80A DUP7 PUSH2 0x5F4 JUMP JUMPDEST PUSH0 JUMPDEST DUP3 DUP2 LT ISZERO PUSH2 0x831 JUMPI DUP5 DUP10 ADD MLOAD DUP3 SSTORE PUSH1 0x1 DUP3 ADD SWAP2 POP PUSH1 0x20 DUP6 ADD SWAP5 POP PUSH1 0x20 DUP2 ADD SWAP1 POP PUSH2 0x80C JUMP JUMPDEST DUP7 DUP4 LT ISZERO PUSH2 0x84E JUMPI DUP5 DUP10 ADD MLOAD PUSH2 0x84A PUSH1 0x1F DUP10 AND DUP3 PUSH2 0x75D JUMP JUMPDEST DUP4 SSTORE POP JUMPDEST PUSH1 0x1 PUSH1 0x2 DUP9 MUL ADD DUP9 SSTORE POP POP POP JUMPDEST POP POP POP POP POP POP JUMP JUMPDEST PUSH0 PUSH2 0x86D DUP3 PUSH2 0x52F JUMP JUMPDEST PUSH2 0x877 DUP2 DUP6 PUSH2 0x4B7 JUMP JUMPDEST SWAP4 POP PUSH2 0x887 DUP2 DUP6 PUSH1 0x20 DUP7 ADD PUSH2 0x543 JUMP JUMPDEST PUSH2 0x890 DUP2 PUSH2 0x253 JUMP JUMPDEST DUP5 ADD SWAP2 POP POP SWAP3 SWAP2 POP POP JUMP JUMPDEST PUSH0 PUSH1 0x60 DUP3 ADD SWAP1 POP DUP2 DUP2 SUB PUSH0 DUP4 ADD MSTORE PUSH2 0x8B3 DUP2 DUP7 PUSH2 0x863 JUMP JUMPDEST SWAP1 POP PUSH2 0x8C2 PUSH1 0x20 DUP4 ADD DUP6 PUSH2 0x45E JUMP JUMPDEST PUSH2 0x8CF PUSH1 0x40 DUP4 ADD DUP5 PUSH2 0x48F JUMP JUMPDEST SWAP5 SWAP4 POP POP POP POP JUMP INVALID LOG2 PUSH5 0x6970667358 0x22 SLT KECCAK256 DUP15 DUP8 DUP8 0x27 0xB7 OR PUSH13 0xE222EF90DFE90A2C0C12B402B5 SAR PUSH3 0xEE49CA LOG0 LOG4 0x2C 0xB0 SUB BYTE PUSH11 0x64736F6C634300081B0033 "
		},
		"gasEstimates": {
			"creation": {
				"codeDepositCost": "463400",
				"executionCost": "497",
				"totalCost": "463897"
			},
			"external": {
				"getDeepfakeValue(string)": "infinite",
				"getImageTimeStamp(string)": "infinite",
				"storeImage(string,uint8)": "infinite"
			}
		},
		"methodIdentifiers": {
			"getDeepfakeValue(string)": "9f429529",
			"getImageTimeStamp(string)": "f9b331bf",
			"storeImage(string,uint8)": "12022985"
		}
	},
	"abi": [
		{
			"anonymous": false,
			"inputs": [
				{
					"indexed": false,
					"internalType": "string",
					"name": "imageHash",
					"type": "string"
				},
				{
					"indexed": false,
					"internalType": "uint8",
					"name": "deepfakeValue",
					"type": "uint8"
				},
				{
					"indexed": false,
					"internalType": "uint256",
					"name": "timestamp",
					"type": "uint256"
				}
			],
			"name": "ImageAdded",
			"type": "event"
		},
		{
			"inputs": [
				{
					"internalType": "string",
					"name": "_imageHash",
					"type": "string"
				}
			],
			"name": "getDeepfakeValue",
			"outputs": [
				{
					"internalType": "uint8",
					"name": "",
					"type": "uint8"
				}
			],
			"stateMutability": "view",
			"type": "function"
		},
		{
			"inputs": [
				{
					"internalType": "string",
					"name": "_imageHash",
					"type": "string"
				}
			],
			"name": "getImageTimeStamp",
			"outputs": [
				{
					"internalType": "uint256",
					"name": "",
					"type": "uint256"
				}
			],
			"stateMutability": "view",
			"type": "function"
		},
		{
			"inputs": [
				{
					"internalType": "string",
					"name": "_imageHash",
					"type": "string"
				},
				{
					"internalType": "uint8",
					"name": "_deepfakeValue",
					"type": "uint8"
				}
			],
			"name": "storeImage",
			"outputs": [],
			"stateMutability": "nonpayable",
			"type": "function"
		}
	]
}