{
	"data": {
		"bytecode": {
			"linkReferences": {},
			"object": "6080604052348015600e575f5ffd5b506107948061001c5f395ff3fe608060405234801561000f575f5ffd5b5060043610610034575f3560e01c8063342c302314610038578063787fcf6d14610068575b5f5ffd5b610052600480360381019061004d91906102ad565b610084565b60405161005f919061030e565b60405180910390f35b610082600480360381019061007d9190610351565b6100b9565b005b5f5f8260405161009491906103fd565b90815260200160405180910390206001015f9054906101000a900460ff169050919050565b60405180604001604052808381526020018215158152505f836040516100df91906103fd565b90815260200160405180910390205f820151815f0190816101009190610619565b506020820151816001015f6101000a81548160ff0219169083151502179055509050507f2d040366355ca96f4c33572576354e0f33383ca4c9c88d14aed4cdc9401040cf8282604051610154929190610730565b60405180910390a15050565b5f604051905090565b5f5ffd5b5f5ffd5b5f5ffd5b5f5ffd5b5f601f19601f8301169050919050565b7f4e487b71000000000000000000000000000000000000000000000000000000005f52604160045260245ffd5b6101bf82610179565b810181811067ffffffffffffffff821117156101de576101dd610189565b5b80604052505050565b5f6101f0610160565b90506101fc82826101b6565b919050565b5f67ffffffffffffffff82111561021b5761021a610189565b5b61022482610179565b9050602081019050919050565b828183375f83830152505050565b5f61025161024c84610201565b6101e7565b90508281526020810184848401111561026d5761026c610175565b5b610278848285610231565b509392505050565b5f82601f83011261029457610293610171565b5b81356102a484826020860161023f565b91505092915050565b5f602082840312156102c2576102c1610169565b5b5f82013567ffffffffffffffff8111156102df576102de61016d565b5b6102eb84828501610280565b91505092915050565b5f8115159050919050565b610308816102f4565b82525050565b5f6020820190506103215f8301846102ff565b92915050565b610330816102f4565b811461033a575f5ffd5b50565b5f8135905061034b81610327565b92915050565b5f5f6040838503121561036757610366610169565b5b5f83013567ffffffffffffffff8111156103845761038361016d565b5b61039085828601610280565b92505060206103a18582860161033d565b9150509250929050565b5f81519050919050565b5f81905092915050565b8281835e5f83830152505050565b5f6103d7826103ab565b6103e181856103b5565b93506103f18185602086016103bf565b80840191505092915050565b5f61040882846103cd565b915081905092915050565b7f4e487b71000000000000000000000000000000000000000000000000000000005f52602260045260245ffd5b5f600282049050600182168061045757607f821691505b60208210810361046a57610469610413565b5b50919050565b5f819050815f5260205f209050919050565b5f6020601f8301049050919050565b5f82821b905092915050565b5f600883026104cc7fffffffffffffffffffffffffffffffffffffffffffffffffffffffffffffffff82610491565b6104d68683610491565b95508019841693508086168417925050509392505050565b5f819050919050565b5f819050919050565b5f61051a610515610510846104ee565b6104f7565b6104ee565b9050919050565b5f819050919050565b61053383610500565b61054761053f82610521565b84845461049d565b825550505050565b5f5f905090565b61055e61054f565b61056981848461052a565b505050565b5b8181101561058c576105815f82610556565b60018101905061056f565b5050565b601f8211156105d1576105a281610470565b6105ab84610482565b810160208510156105ba578190505b6105ce6105c685610482565b83018261056e565b50505b505050565b5f82821c905092915050565b5f6105f15f19846008026105d6565b1980831691505092915050565b5f61060983836105e2565b9150826002028217905092915050565b610622826103ab565b67ffffffffffffffff81111561063b5761063a610189565b5b6106458254610440565b610650828285610590565b5f60209050601f831160018114610681575f841561066f578287015190505b61067985826105fe565b8655506106e0565b601f19841661068f86610470565b5f5b828110156106b657848901518255600182019150602085019450602081019050610691565b868310156106d357848901516106cf601f8916826105e2565b8355505b6001600288020188555050505b505050505050565b5f82825260208201905092915050565b5f610702826103ab565b61070c81856106e8565b935061071c8185602086016103bf565b61072581610179565b840191505092915050565b5f6040820190508181035f83015261074881856106f8565b905061075760208301846102ff565b939250505056fea2646970667358221220eee74225ade5b9e470d0ca41161f1494317ddc2fb6fa7b8c43daa3e3712ab58b64736f6c634300081b0033",
			"opcodes": "PUSH1 0x80 PUSH1 0x40 MSTORE CALLVALUE DUP1 ISZERO PUSH1 0xE JUMPI PUSH0 PUSH0 REVERT JUMPDEST POP PUSH2 0x794 DUP1 PUSH2 0x1C PUSH0 CODECOPY PUSH0 RETURN INVALID PUSH1 0x80 PUSH1 0x40 MSTORE CALLVALUE DUP1 ISZERO PUSH2 0xF JUMPI PUSH0 PUSH0 REVERT JUMPDEST POP PUSH1 0x4 CALLDATASIZE LT PUSH2 0x34 JUMPI PUSH0 CALLDATALOAD PUSH1 0xE0 SHR DUP1 PUSH4 0x342C3023 EQ PUSH2 0x38 JUMPI DUP1 PUSH4 0x787FCF6D EQ PUSH2 0x68 JUMPI JUMPDEST PUSH0 PUSH0 REVERT JUMPDEST PUSH2 0x52 PUSH1 0x4 DUP1 CALLDATASIZE SUB DUP2 ADD SWAP1 PUSH2 0x4D SWAP2 SWAP1 PUSH2 0x2AD JUMP JUMPDEST PUSH2 0x84 JUMP JUMPDEST PUSH1 0x40 MLOAD PUSH2 0x5F SWAP2 SWAP1 PUSH2 0x30E JUMP JUMPDEST PUSH1 0x40 MLOAD DUP1 SWAP2 SUB SWAP1 RETURN JUMPDEST PUSH2 0x82 PUSH1 0x4 DUP1 CALLDATASIZE SUB DUP2 ADD SWAP1 PUSH2 0x7D SWAP2 SWAP1 PUSH2 0x351 JUMP JUMPDEST PUSH2 0xB9 JUMP JUMPDEST STOP JUMPDEST PUSH0 PUSH0 DUP3 PUSH1 0x40 MLOAD PUSH2 0x94 SWAP2 SWAP1 PUSH2 0x3FD JUMP JUMPDEST SWAP1 DUP2 MSTORE PUSH1 0x20 ADD PUSH1 0x40 MLOAD DUP1 SWAP2 SUB SWAP1 KECCAK256 PUSH1 0x1 ADD PUSH0 SWAP1 SLOAD SWAP1 PUSH2 0x100 EXP SWAP1 DIV PUSH1 0xFF AND SWAP1 POP SWAP2 SWAP1 POP JUMP JUMPDEST PUSH1 0x40 MLOAD DUP1 PUSH1 0x40 ADD PUSH1 0x40 MSTORE DUP1 DUP4 DUP2 MSTORE PUSH1 0x20 ADD DUP3 ISZERO ISZERO DUP2 MSTORE POP PUSH0 DUP4 PUSH1 0x40 MLOAD PUSH2 0xDF SWAP2 SWAP1 PUSH2 0x3FD JUMP JUMPDEST SWAP1 DUP2 MSTORE PUSH1 0x20 ADD PUSH1 0x40 MLOAD DUP1 SWAP2 SUB SWAP1 KECCAK256 PUSH0 DUP3 ADD MLOAD DUP2 PUSH0 ADD SWAP1 DUP2 PUSH2 0x100 SWAP2 SWAP1 PUSH2 0x619 JUMP JUMPDEST POP PUSH1 0x20 DUP3 ADD MLOAD DUP2 PUSH1 0x1 ADD PUSH0 PUSH2 0x100 EXP DUP2 SLOAD DUP2 PUSH1 0xFF MUL NOT AND SWAP1 DUP4 ISZERO ISZERO MUL OR SWAP1 SSTORE POP SWAP1 POP POP PUSH32 0x2D040366355CA96F4C33572576354E0F33383CA4C9C88D14AED4CDC9401040CF DUP3 DUP3 PUSH1 0x40 MLOAD PUSH2 0x154 SWAP3 SWAP2 SWAP1 PUSH2 0x730 JUMP JUMPDEST PUSH1 0x40 MLOAD DUP1 SWAP2 SUB SWAP1 LOG1 POP POP JUMP JUMPDEST PUSH0 PUSH1 0x40 MLOAD SWAP1 POP SWAP1 JUMP JUMPDEST PUSH0 PUSH0 REVERT JUMPDEST PUSH0 PUSH0 REVERT JUMPDEST PUSH0 PUSH0 REVERT JUMPDEST PUSH0 PUSH0 REVERT JUMPDEST PUSH0 PUSH1 0x1F NOT PUSH1 0x1F DUP4 ADD AND SWAP1 POP SWAP2 SWAP1 POP JUMP JUMPDEST PUSH32 0x4E487B7100000000000000000000000000000000000000000000000000000000 PUSH0 MSTORE PUSH1 0x41 PUSH1 0x4 MSTORE PUSH1 0x24 PUSH0 REVERT JUMPDEST PUSH2 0x1BF DUP3 PUSH2 0x179 JUMP JUMPDEST DUP2 ADD DUP2 DUP2 LT PUSH8 0xFFFFFFFFFFFFFFFF DUP3 GT OR ISZERO PUSH2 0x1DE JUMPI PUSH2 0x1DD PUSH2 0x189 JUMP JUMPDEST JUMPDEST DUP1 PUSH1 0x40 MSTORE POP POP POP JUMP JUMPDEST PUSH0 PUSH2 0x1F0 PUSH2 0x160 JUMP JUMPDEST SWAP1 POP PUSH2 0x1FC DUP3 DUP3 PUSH2 0x1B6 JUMP JUMPDEST SWAP2 SWAP1 POP JUMP JUMPDEST PUSH0 PUSH8 0xFFFFFFFFFFFFFFFF DUP3 GT ISZERO PUSH2 0x21B JUMPI PUSH2 0x21A PUSH2 0x189 JUMP JUMPDEST JUMPDEST PUSH2 0x224 DUP3 PUSH2 0x179 JUMP JUMPDEST SWAP1 POP PUSH1 0x20 DUP2 ADD SWAP1 POP SWAP2 SWAP1 POP JUMP JUMPDEST DUP3 DUP2 DUP4 CALLDATACOPY PUSH0 DUP4 DUP4 ADD MSTORE POP POP POP JUMP JUMPDEST PUSH0 PUSH2 0x251 PUSH2 0x24C DUP5 PUSH2 0x201 JUMP JUMPDEST PUSH2 0x1E7 JUMP JUMPDEST SWAP1 POP DUP3 DUP2 MSTORE PUSH1 0x20 DUP2 ADD DUP5 DUP5 DUP5 ADD GT ISZERO PUSH2 0x26D JUMPI PUSH2 0x26C PUSH2 0x175 JUMP JUMPDEST JUMPDEST PUSH2 0x278 DUP5 DUP3 DUP6 PUSH2 0x231 JUMP JUMPDEST POP SWAP4 SWAP3 POP POP POP JUMP JUMPDEST PUSH0 DUP3 PUSH1 0x1F DUP4 ADD SLT PUSH2 0x294 JUMPI PUSH2 0x293 PUSH2 0x171 JUMP JUMPDEST JUMPDEST DUP2 CALLDATALOAD PUSH2 0x2A4 DUP5 DUP3 PUSH1 0x20 DUP7 ADD PUSH2 0x23F JUMP JUMPDEST SWAP2 POP POP SWAP3 SWAP2 POP POP JUMP JUMPDEST PUSH0 PUSH1 0x20 DUP3 DUP5 SUB SLT ISZERO PUSH2 0x2C2 JUMPI PUSH2 0x2C1 PUSH2 0x169 JUMP JUMPDEST JUMPDEST PUSH0 DUP3 ADD CALLDATALOAD PUSH8 0xFFFFFFFFFFFFFFFF DUP2 GT ISZERO PUSH2 0x2DF JUMPI PUSH2 0x2DE PUSH2 0x16D JUMP JUMPDEST JUMPDEST PUSH2 0x2EB DUP5 DUP3 DUP6 ADD PUSH2 0x280 JUMP JUMPDEST SWAP2 POP POP SWAP3 SWAP2 POP POP JUMP JUMPDEST PUSH0 DUP2 ISZERO ISZERO SWAP1 POP SWAP2 SWAP1 POP JUMP JUMPDEST PUSH2 0x308 DUP2 PUSH2 0x2F4 JUMP JUMPDEST DUP3 MSTORE POP POP JUMP JUMPDEST PUSH0 PUSH1 0x20 DUP3 ADD SWAP1 POP PUSH2 0x321 PUSH0 DUP4 ADD DUP5 PUSH2 0x2FF JUMP JUMPDEST SWAP3 SWAP2 POP POP JUMP JUMPDEST PUSH2 0x330 DUP2 PUSH2 0x2F4 JUMP JUMPDEST DUP2 EQ PUSH2 0x33A JUMPI PUSH0 PUSH0 REVERT JUMPDEST POP JUMP JUMPDEST PUSH0 DUP2 CALLDATALOAD SWAP1 POP PUSH2 0x34B DUP2 PUSH2 0x327 JUMP JUMPDEST SWAP3 SWAP2 POP POP JUMP JUMPDEST PUSH0 PUSH0 PUSH1 0x40 DUP4 DUP6 SUB SLT ISZERO PUSH2 0x367 JUMPI PUSH2 0x366 PUSH2 0x169 JUMP JUMPDEST JUMPDEST PUSH0 DUP4 ADD CALLDATALOAD PUSH8 0xFFFFFFFFFFFFFFFF DUP2 GT ISZERO PUSH2 0x384 JUMPI PUSH2 0x383 PUSH2 0x16D JUMP JUMPDEST JUMPDEST PUSH2 0x390 DUP6 DUP3 DUP7 ADD PUSH2 0x280 JUMP JUMPDEST SWAP3 POP POP PUSH1 0x20 PUSH2 0x3A1 DUP6 DUP3 DUP7 ADD PUSH2 0x33D JUMP JUMPDEST SWAP2 POP POP SWAP3 POP SWAP3 SWAP1 POP JUMP JUMPDEST PUSH0 DUP2 MLOAD SWAP1 POP SWAP2 SWAP1 POP JUMP JUMPDEST PUSH0 DUP2 SWAP1 POP SWAP3 SWAP2 POP POP JUMP JUMPDEST DUP3 DUP2 DUP4 MCOPY PUSH0 DUP4 DUP4 ADD MSTORE POP POP POP JUMP JUMPDEST PUSH0 PUSH2 0x3D7 DUP3 PUSH2 0x3AB JUMP JUMPDEST PUSH2 0x3E1 DUP2 DUP6 PUSH2 0x3B5 JUMP JUMPDEST SWAP4 POP PUSH2 0x3F1 DUP2 DUP6 PUSH1 0x20 DUP7 ADD PUSH2 0x3BF JUMP JUMPDEST DUP1 DUP5 ADD SWAP2 POP POP SWAP3 SWAP2 POP POP JUMP JUMPDEST PUSH0 PUSH2 0x408 DUP3 DUP5 PUSH2 0x3CD JUMP JUMPDEST SWAP2 POP DUP2 SWAP1 POP SWAP3 SWAP2 POP POP JUMP JUMPDEST PUSH32 0x4E487B7100000000000000000000000000000000000000000000000000000000 PUSH0 MSTORE PUSH1 0x22 PUSH1 0x4 MSTORE PUSH1 0x24 PUSH0 REVERT JUMPDEST PUSH0 PUSH1 0x2 DUP3 DIV SWAP1 POP PUSH1 0x1 DUP3 AND DUP1 PUSH2 0x457 JUMPI PUSH1 0x7F DUP3 AND SWAP2 POP JUMPDEST PUSH1 0x20 DUP3 LT DUP2 SUB PUSH2 0x46A JUMPI PUSH2 0x469 PUSH2 0x413 JUMP JUMPDEST JUMPDEST POP SWAP2 SWAP1 POP JUMP JUMPDEST PUSH0 DUP2 SWAP1 POP DUP2 PUSH0 MSTORE PUSH1 0x20 PUSH0 KECCAK256 SWAP1 POP SWAP2 SWAP1 POP JUMP JUMPDEST PUSH0 PUSH1 0x20 PUSH1 0x1F DUP4 ADD DIV SWAP1 POP SWAP2 SWAP1 POP JUMP JUMPDEST PUSH0 DUP3 DUP3 SHL SWAP1 POP SWAP3 SWAP2 POP POP JUMP JUMPDEST PUSH0 PUSH1 0x8 DUP4 MUL PUSH2 0x4CC PUSH32 0xFFFFFFFFFFFFFFFFFFFFFFFFFFFFFFFFFFFFFFFFFFFFFFFFFFFFFFFFFFFFFFFF DUP3 PUSH2 0x491 JUMP JUMPDEST PUSH2 0x4D6 DUP7 DUP4 PUSH2 0x491 JUMP JUMPDEST SWAP6 POP DUP1 NOT DUP5 AND SWAP4 POP DUP1 DUP7 AND DUP5 OR SWAP3 POP POP POP SWAP4 SWAP3 POP POP POP JUMP JUMPDEST PUSH0 DUP2 SWAP1 POP SWAP2 SWAP1 POP JUMP JUMPDEST PUSH0 DUP2 SWAP1 POP SWAP2 SWAP1 POP JUMP JUMPDEST PUSH0 PUSH2 0x51A PUSH2 0x515 PUSH2 0x510 DUP5 PUSH2 0x4EE JUMP JUMPDEST PUSH2 0x4F7 JUMP JUMPDEST PUSH2 0x4EE JUMP JUMPDEST SWAP1 POP SWAP2 SWAP1 POP JUMP JUMPDEST PUSH0 DUP2 SWAP1 POP SWAP2 SWAP1 POP JUMP JUMPDEST PUSH2 0x533 DUP4 PUSH2 0x500 JUMP JUMPDEST PUSH2 0x547 PUSH2 0x53F DUP3 PUSH2 0x521 JUMP JUMPDEST DUP5 DUP5 SLOAD PUSH2 0x49D JUMP JUMPDEST DUP3 SSTORE POP POP POP POP JUMP JUMPDEST PUSH0 PUSH0 SWAP1 POP SWAP1 JUMP JUMPDEST PUSH2 0x55E PUSH2 0x54F JUMP JUMPDEST PUSH2 0x569 DUP2 DUP5 DUP5 PUSH2 0x52A JUMP JUMPDEST POP POP POP JUMP JUMPDEST JUMPDEST DUP2 DUP2 LT ISZERO PUSH2 0x58C JUMPI PUSH2 0x581 PUSH0 DUP3 PUSH2 0x556 JUMP JUMPDEST PUSH1 0x1 DUP2 ADD SWAP1 POP PUSH2 0x56F JUMP JUMPDEST POP POP JUMP JUMPDEST PUSH1 0x1F DUP3 GT ISZERO PUSH2 0x5D1 JUMPI PUSH2 0x5A2 DUP2 PUSH2 0x470 JUMP JUMPDEST PUSH2 0x5AB DUP5 PUSH2 0x482 JUMP JUMPDEST DUP2 ADD PUSH1 0x20 DUP6 LT ISZERO PUSH2 0x5BA JUMPI DUP2 SWAP1 POP JUMPDEST PUSH2 0x5CE PUSH2 0x5C6 DUP6 PUSH2 0x482 JUMP JUMPDEST DUP4 ADD DUP3 PUSH2 0x56E JUMP JUMPDEST POP POP JUMPDEST POP POP POP JUMP JUMPDEST PUSH0 DUP3 DUP3 SHR SWAP1 POP SWAP3 SWAP2 POP POP JUMP JUMPDEST PUSH0 PUSH2 0x5F1 PUSH0 NOT DUP5 PUSH1 0x8 MUL PUSH2 0x5D6 JUMP JUMPDEST NOT DUP1 DUP4 AND SWAP2 POP POP SWAP3 SWAP2 POP POP JUMP JUMPDEST PUSH0 PUSH2 0x609 DUP4 DUP4 PUSH2 0x5E2 JUMP JUMPDEST SWAP2 POP DUP3 PUSH1 0x2 MUL DUP3 OR SWAP1 POP SWAP3 SWAP2 POP POP JUMP JUMPDEST PUSH2 0x622 DUP3 PUSH2 0x3AB JUMP JUMPDEST PUSH8 0xFFFFFFFFFFFFFFFF DUP2 GT ISZERO PUSH2 0x63B JUMPI PUSH2 0x63A PUSH2 0x189 JUMP JUMPDEST JUMPDEST PUSH2 0x645 DUP3 SLOAD PUSH2 0x440 JUMP JUMPDEST PUSH2 0x650 DUP3 DUP3 DUP6 PUSH2 0x590 JUMP JUMPDEST PUSH0 PUSH1 0x20 SWAP1 POP PUSH1 0x1F DUP4 GT PUSH1 0x1 DUP2 EQ PUSH2 0x681 JUMPI PUSH0 DUP5 ISZERO PUSH2 0x66F JUMPI DUP3 DUP8 ADD MLOAD SWAP1 POP JUMPDEST PUSH2 0x679 DUP6 DUP3 PUSH2 0x5FE JUMP JUMPDEST DUP7 SSTORE POP PUSH2 0x6E0 JUMP JUMPDEST PUSH1 0x1F NOT DUP5 AND PUSH2 0x68F DUP7 PUSH2 0x470 JUMP JUMPDEST PUSH0 JUMPDEST DUP3 DUP2 LT ISZERO PUSH2 0x6B6 JUMPI DUP5 DUP10 ADD MLOAD DUP3 SSTORE PUSH1 0x1 DUP3 ADD SWAP2 POP PUSH1 0x20 DUP6 ADD SWAP5 POP PUSH1 0x20 DUP2 ADD SWAP1 POP PUSH2 0x691 JUMP JUMPDEST DUP7 DUP4 LT ISZERO PUSH2 0x6D3 JUMPI DUP5 DUP10 ADD MLOAD PUSH2 0x6CF PUSH1 0x1F DUP10 AND DUP3 PUSH2 0x5E2 JUMP JUMPDEST DUP4 SSTORE POP JUMPDEST PUSH1 0x1 PUSH1 0x2 DUP9 MUL ADD DUP9 SSTORE POP POP POP JUMPDEST POP POP POP POP POP POP JUMP JUMPDEST PUSH0 DUP3 DUP3 MSTORE PUSH1 0x20 DUP3 ADD SWAP1 POP SWAP3 SWAP2 POP POP JUMP JUMPDEST PUSH0 PUSH2 0x702 DUP3 PUSH2 0x3AB JUMP JUMPDEST PUSH2 0x70C DUP2 DUP6 PUSH2 0x6E8 JUMP JUMPDEST SWAP4 POP PUSH2 0x71C DUP2 DUP6 PUSH1 0x20 DUP7 ADD PUSH2 0x3BF JUMP JUMPDEST PUSH2 0x725 DUP2 PUSH2 0x179 JUMP JUMPDEST DUP5 ADD SWAP2 POP POP SWAP3 SWAP2 POP POP JUMP JUMPDEST PUSH0 PUSH1 0x40 DUP3 ADD SWAP1 POP DUP2 DUP2 SUB PUSH0 DUP4 ADD MSTORE PUSH2 0x748 DUP2 DUP6 PUSH2 0x6F8 JUMP JUMPDEST SWAP1 POP PUSH2 0x757 PUSH1 0x20 DUP4 ADD DUP5 PUSH2 0x2FF JUMP JUMPDEST SWAP4 SWAP3 POP POP POP JUMP INVALID LOG2 PUSH5 0x6970667358 0x22 SLT KECCAK256 0xEE 0xE7 TIMESTAMP 0x25 0xAD 0xE5 0xB9 0xE4 PUSH17 0xD0CA41161F1494317DDC2FB6FA7B8C43DA LOG3 0xE3 PUSH18 0x2AB58B64736F6C634300081B003300000000 "
		},
		"gasEstimates": {
			"creation": {
				"codeDepositCost": "388000",
				"executionCost": "422",
				"totalCost": "388422"
			},
			"external": {
				"getOriginality(string)": "infinite",
				"storeOriginality(string,bool)": "infinite"
			}
		},
		"methodIdentifiers": {
			"getOriginality(string)": "342c3023",
			"storeOriginality(string,bool)": "787fcf6d"
		}
	},
	"abi": [
		{
			"anonymous": false,
			"inputs": [
				{
					"indexed": false,
					"internalType": "string",
					"name": "imageHash",
					"type": "string"
				},
				{
					"indexed": false,
					"internalType": "bool",
					"name": "originality",
					"type": "bool"
				}
			],
			"name": "OriginalityStored",
			"type": "event"
		},
		{
			"inputs": [
				{
					"internalType": "string",
					"name": "_imageHash",
					"type": "string"
				}
			],
			"name": "getOriginality",
			"outputs": [
				{
					"internalType": "bool",
					"name": "",
					"type": "bool"
				}
			],
			"stateMutability": "view",
			"type": "function"
		},
		{
			"inputs": [
				{
					"internalType": "string",
					"name": "_imageHash",
					"type": "string"
				},
				{
					"internalType": "bool",
					"name": "_originality",
					"type": "bool"
				}
			],
			"name": "storeOriginality",
			"outputs": [],
			"stateMutability": "nonpayable",
			"type": "function"
		}
	]
}